{
  "contractName": "owned",
  "abi": [
    {
      "inputs": [],
      "name": "owneds",
      "outputs": [],
      "stateMutability": "nonpayable",
      "type": "function"
    }
  ],
  "bytecode": "0x6080604052348015600f57600080fd5b5060ad8061001e6000396000f3fe6080604052348015600f57600080fd5b506004361060285760003560e01c80635c51619814602d575b600080fd5b60336035565b005b336000806101000a81548173ffffffffffffffffffffffffffffffffffffffff021916908373ffffffffffffffffffffffffffffffffffffffff16021790555056fea26469706673582212201dbaa34384995814ec38a903b2a56a4c4a45eb707ae7ae676975a059b198ba9064736f6c634300060c0033",
  "immutableReferences": {},
  "source": "pragma solidity ^0.6.0;\n\n//\"SPDX-License-Identifier: UNLICENSED\"\ncontract owned {\n    address owner;\n\n    modifier onlyowner() {\n        if (msg.sender == owner) {\n            _;\n        }\n    }\n\n    function owneds() public {\n        owner = msg.sender;\n    }\n}\n",
  "sourcePath": "/home/jeffrey/token/inleveren/BC3_Jeffrey/PD-13/ChainsGathering/dapp/lib/owned.sol",
  "compiler": {
    "name": "solc",
    "version": "0.6.12+commit.27d51765.Emscripten.clang"
  },
  "schemaVersion": "3.3.2",
  "updatedAt": "2021-01-19T15:45:33.467Z",
  "devdoc": {
    "kind": "dev",
    "methods": {},
    "version": 1
  },
  "userdoc": {
    "kind": "user",
    "methods": {},
    "version": 1
  }
}