{
  "contractName": "HeroesMatch",
  "abi": [
    {
      "inputs": [],
      "stateMutability": "payable",
      "type": "constructor",
      "payable": true
    },
    {
      "anonymous": false,
      "inputs": [
        {
          "indexed": false,
          "internalType": "address",
          "name": "player",
          "type": "address"
        },
        {
          "indexed": false,
          "internalType": "uint256",
          "name": "item",
          "type": "uint256"
        }
      ],
      "name": "ReceivedItem",
      "type": "event"
    },
    {
      "anonymous": false,
      "inputs": [
        {
          "components": [
            {
              "internalType": "string",
              "name": "name",
              "type": "string"
            },
            {
              "internalType": "uint256",
              "name": "rarity",
              "type": "uint256"
            },
            {
              "components": [
                {
                  "internalType": "string",
                  "name": "skill_name",
                  "type": "string"
                },
                {
                  "internalType": "string",
                  "name": "description",
                  "type": "string"
                },
                {
                  "internalType": "uint256",
                  "name": "min_skill_damage",
                  "type": "uint256"
                },
                {
                  "internalType": "uint256",
                  "name": "max_skill_damage",
                  "type": "uint256"
                }
              ],
              "internalType": "struct Skill.SkillClass",
              "name": "skill_1",
              "type": "tuple"
            },
            {
              "components": [
                {
                  "internalType": "string",
                  "name": "skill_name",
                  "type": "string"
                },
                {
                  "internalType": "string",
                  "name": "description",
                  "type": "string"
                },
                {
                  "internalType": "uint256",
                  "name": "min_skill_damage",
                  "type": "uint256"
                },
                {
                  "internalType": "uint256",
                  "name": "max_skill_damage",
                  "type": "uint256"
                }
              ],
              "internalType": "struct Skill.SkillClass",
              "name": "skill_2",
              "type": "tuple"
            }
          ],
          "indexed": false,
          "internalType": "struct Heroes.HeroesClass",
          "name": "challenger",
          "type": "tuple"
        },
        {
          "components": [
            {
              "internalType": "string",
              "name": "name",
              "type": "string"
            },
            {
              "internalType": "uint256",
              "name": "rarity",
              "type": "uint256"
            },
            {
              "components": [
                {
                  "internalType": "string",
                  "name": "skill_name",
                  "type": "string"
                },
                {
                  "internalType": "string",
                  "name": "description",
                  "type": "string"
                },
                {
                  "internalType": "uint256",
                  "name": "min_skill_damage",
                  "type": "uint256"
                },
                {
                  "internalType": "uint256",
                  "name": "max_skill_damage",
                  "type": "uint256"
                }
              ],
              "internalType": "struct Skill.SkillClass",
              "name": "skill_1",
              "type": "tuple"
            },
            {
              "components": [
                {
                  "internalType": "string",
                  "name": "skill_name",
                  "type": "string"
                },
                {
                  "internalType": "string",
                  "name": "description",
                  "type": "string"
                },
                {
                  "internalType": "uint256",
                  "name": "min_skill_damage",
                  "type": "uint256"
                },
                {
                  "internalType": "uint256",
                  "name": "max_skill_damage",
                  "type": "uint256"
                }
              ],
              "internalType": "struct Skill.SkillClass",
              "name": "skill_2",
              "type": "tuple"
            }
          ],
          "indexed": false,
          "internalType": "struct Heroes.HeroesClass",
          "name": "opponent",
          "type": "tuple"
        },
        {
          "indexed": false,
          "internalType": "bool",
          "name": "result",
          "type": "bool"
        }
      ],
      "name": "RoundWinner",
      "type": "event"
    },
    {
      "inputs": [],
      "name": "deployed",
      "outputs": [
        {
          "internalType": "contract Heroes",
          "name": "",
          "type": "address"
        }
      ],
      "stateMutability": "view",
      "type": "function",
      "constant": true
    },
    {
      "inputs": [
        {
          "internalType": "address",
          "name": "",
          "type": "address"
        }
      ],
      "name": "ownerToMatch",
      "outputs": [
        {
          "components": [
            {
              "internalType": "string",
              "name": "name",
              "type": "string"
            },
            {
              "internalType": "uint256",
              "name": "rarity",
              "type": "uint256"
            },
            {
              "components": [
                {
                  "internalType": "string",
                  "name": "skill_name",
                  "type": "string"
                },
                {
                  "internalType": "string",
                  "name": "description",
                  "type": "string"
                },
                {
                  "internalType": "uint256",
                  "name": "min_skill_damage",
                  "type": "uint256"
                },
                {
                  "internalType": "uint256",
                  "name": "max_skill_damage",
                  "type": "uint256"
                }
              ],
              "internalType": "struct Skill.SkillClass",
              "name": "skill_1",
              "type": "tuple"
            },
            {
              "components": [
                {
                  "internalType": "string",
                  "name": "skill_name",
                  "type": "string"
                },
                {
                  "internalType": "string",
                  "name": "description",
                  "type": "string"
                },
                {
                  "internalType": "uint256",
                  "name": "min_skill_damage",
                  "type": "uint256"
                },
                {
                  "internalType": "uint256",
                  "name": "max_skill_damage",
                  "type": "uint256"
                }
              ],
              "internalType": "struct Skill.SkillClass",
              "name": "skill_2",
              "type": "tuple"
            }
          ],
          "internalType": "struct Heroes.HeroesClass",
          "name": "challenger",
          "type": "tuple"
        },
        {
          "components": [
            {
              "internalType": "string",
              "name": "name",
              "type": "string"
            },
            {
              "internalType": "uint256",
              "name": "rarity",
              "type": "uint256"
            },
            {
              "components": [
                {
                  "internalType": "string",
                  "name": "skill_name",
                  "type": "string"
                },
                {
                  "internalType": "string",
                  "name": "description",
                  "type": "string"
                },
                {
                  "internalType": "uint256",
                  "name": "min_skill_damage",
                  "type": "uint256"
                },
                {
                  "internalType": "uint256",
                  "name": "max_skill_damage",
                  "type": "uint256"
                }
              ],
              "internalType": "struct Skill.SkillClass",
              "name": "skill_1",
              "type": "tuple"
            },
            {
              "components": [
                {
                  "internalType": "string",
                  "name": "skill_name",
                  "type": "string"
                },
                {
                  "internalType": "string",
                  "name": "description",
                  "type": "string"
                },
                {
                  "internalType": "uint256",
                  "name": "min_skill_damage",
                  "type": "uint256"
                },
                {
                  "internalType": "uint256",
                  "name": "max_skill_damage",
                  "type": "uint256"
                }
              ],
              "internalType": "struct Skill.SkillClass",
              "name": "skill_2",
              "type": "tuple"
            }
          ],
          "internalType": "struct Heroes.HeroesClass",
          "name": "opponent",
          "type": "tuple"
        }
      ],
      "stateMutability": "view",
      "type": "function",
      "constant": true
    },
    {
      "inputs": [],
      "name": "priceOfUrl",
      "outputs": [
        {
          "internalType": "uint256",
          "name": "",
          "type": "uint256"
        }
      ],
      "stateMutability": "view",
      "type": "function",
      "constant": true
    },
    {
      "inputs": [],
      "name": "season",
      "outputs": [
        {
          "internalType": "string",
          "name": "",
          "type": "string"
        }
      ],
      "stateMutability": "view",
      "type": "function",
      "constant": true
    },
    {
      "inputs": [],
      "name": "temp",
      "outputs": [
        {
          "internalType": "string",
          "name": "",
          "type": "string"
        }
      ],
      "stateMutability": "view",
      "type": "function",
      "constant": true
    },
    {
      "inputs": [
        {
          "internalType": "bytes32",
          "name": "",
          "type": "bytes32"
        },
        {
          "internalType": "string",
          "name": "result",
          "type": "string"
        }
      ],
      "name": "__callback",
      "outputs": [],
      "stateMutability": "nonpayable",
      "type": "function"
    },
    {
      "inputs": [
        {
          "internalType": "bytes32",
          "name": "_myid",
          "type": "bytes32"
        },
        {
          "internalType": "string",
          "name": "_result",
          "type": "string"
        },
        {
          "internalType": "bytes",
          "name": "_proof",
          "type": "bytes"
        }
      ],
      "name": "__callback",
      "outputs": [],
      "stateMutability": "nonpayable",
      "type": "function"
    },
    {
      "inputs": [
        {
          "internalType": "string",
          "name": "_season",
          "type": "string"
        }
      ],
      "name": "initialize",
      "outputs": [],
      "stateMutability": "nonpayable",
      "type": "function"
    },
    {
      "inputs": [
        {
          "internalType": "string",
          "name": "_season",
          "type": "string"
        }
      ],
      "name": "setSeason",
      "outputs": [],
      "stateMutability": "nonpayable",
      "type": "function"
    },
    {
      "inputs": [],
      "name": "destroyHero",
      "outputs": [],
      "stateMutability": "nonpayable",
      "type": "function"
    },
    {
      "inputs": [],
      "name": "deployHero",
      "outputs": [
        {
          "internalType": "contract Heroes",
          "name": "",
          "type": "address"
        }
      ],
      "stateMutability": "nonpayable",
      "type": "function"
    },
    {
      "inputs": [],
      "name": "getTemp",
      "outputs": [],
      "stateMutability": "payable",
      "type": "function",
      "payable": true
    },
    {
      "inputs": [
        {
          "internalType": "uint256",
          "name": "item",
          "type": "uint256"
        }
      ],
      "name": "getReward",
      "outputs": [],
      "stateMutability": "nonpayable",
      "type": "function"
    },
    {
      "inputs": [
        {
          "components": [
            {
              "internalType": "string",
              "name": "name",
              "type": "string"
            },
            {
              "internalType": "uint256",
              "name": "rarity",
              "type": "uint256"
            },
            {
              "components": [
                {
                  "internalType": "string",
                  "name": "skill_name",
                  "type": "string"
                },
                {
                  "internalType": "string",
                  "name": "description",
                  "type": "string"
                },
                {
                  "internalType": "uint256",
                  "name": "min_skill_damage",
                  "type": "uint256"
                },
                {
                  "internalType": "uint256",
                  "name": "max_skill_damage",
                  "type": "uint256"
                }
              ],
              "internalType": "struct Skill.SkillClass",
              "name": "skill_1",
              "type": "tuple"
            },
            {
              "components": [
                {
                  "internalType": "string",
                  "name": "skill_name",
                  "type": "string"
                },
                {
                  "internalType": "string",
                  "name": "description",
                  "type": "string"
                },
                {
                  "internalType": "uint256",
                  "name": "min_skill_damage",
                  "type": "uint256"
                },
                {
                  "internalType": "uint256",
                  "name": "max_skill_damage",
                  "type": "uint256"
                }
              ],
              "internalType": "struct Skill.SkillClass",
              "name": "skill_2",
              "type": "tuple"
            }
          ],
          "internalType": "struct Heroes.HeroesClass",
          "name": "_challenger",
          "type": "tuple"
        },
        {
          "components": [
            {
              "internalType": "string",
              "name": "name",
              "type": "string"
            },
            {
              "internalType": "uint256",
              "name": "rarity",
              "type": "uint256"
            },
            {
              "components": [
                {
                  "internalType": "string",
                  "name": "skill_name",
                  "type": "string"
                },
                {
                  "internalType": "string",
                  "name": "description",
                  "type": "string"
                },
                {
                  "internalType": "uint256",
                  "name": "min_skill_damage",
                  "type": "uint256"
                },
                {
                  "internalType": "uint256",
                  "name": "max_skill_damage",
                  "type": "uint256"
                }
              ],
              "internalType": "struct Skill.SkillClass",
              "name": "skill_1",
              "type": "tuple"
            },
            {
              "components": [
                {
                  "internalType": "string",
                  "name": "skill_name",
                  "type": "string"
                },
                {
                  "internalType": "string",
                  "name": "description",
                  "type": "string"
                },
                {
                  "internalType": "uint256",
                  "name": "min_skill_damage",
                  "type": "uint256"
                },
                {
                  "internalType": "uint256",
                  "name": "max_skill_damage",
                  "type": "uint256"
                }
              ],
              "internalType": "struct Skill.SkillClass",
              "name": "skill_2",
              "type": "tuple"
            }
          ],
          "internalType": "struct Heroes.HeroesClass",
          "name": "_opponent",
          "type": "tuple"
        }
      ],
      "name": "initFight",
      "outputs": [
        {
          "components": [
            {
              "internalType": "string",
              "name": "name",
              "type": "string"
            },
            {
              "internalType": "uint256",
              "name": "rarity",
              "type": "uint256"
            },
            {
              "components": [
                {
                  "internalType": "string",
                  "name": "skill_name",
                  "type": "string"
                },
                {
                  "internalType": "string",
                  "name": "description",
                  "type": "string"
                },
                {
                  "internalType": "uint256",
                  "name": "min_skill_damage",
                  "type": "uint256"
                },
                {
                  "internalType": "uint256",
                  "name": "max_skill_damage",
                  "type": "uint256"
                }
              ],
              "internalType": "struct Skill.SkillClass",
              "name": "skill_1",
              "type": "tuple"
            },
            {
              "components": [
                {
                  "internalType": "string",
                  "name": "skill_name",
                  "type": "string"
                },
                {
                  "internalType": "string",
                  "name": "description",
                  "type": "string"
                },
                {
                  "internalType": "uint256",
                  "name": "min_skill_damage",
                  "type": "uint256"
                },
                {
                  "internalType": "uint256",
                  "name": "max_skill_damage",
                  "type": "uint256"
                }
              ],
              "internalType": "struct Skill.SkillClass",
              "name": "skill_2",
              "type": "tuple"
            }
          ],
          "internalType": "struct Heroes.HeroesClass",
          "name": "",
          "type": "tuple"
        }
      ],
      "stateMutability": "nonpayable",
      "type": "function"
    },
    {
      "inputs": [
        {
          "internalType": "uint256",
          "name": "randomNumberChallenger",
          "type": "uint256"
        },
        {
          "internalType": "uint256",
          "name": "randomNumberOpponent",
          "type": "uint256"
        }
      ],
      "name": "beginFight",
      "outputs": [
        {
          "internalType": "bool",
          "name": "",
          "type": "bool"
        },
        {
          "internalType": "uint256",
          "name": "",
          "type": "uint256"
        }
      ],
      "stateMutability": "nonpayable",
      "type": "function"
    },
    {
      "inputs": [
        {
          "internalType": "uint256",
          "name": "randomNumberChallenger",
          "type": "uint256"
        },
        {
          "internalType": "uint256",
          "name": "randomNumberOpponent",
          "type": "uint256"
        }
      ],
      "name": "didChallengerWin",
      "outputs": [
        {
          "internalType": "bool",
          "name": "",
          "type": "bool"
        }
      ],
      "stateMutability": "nonpayable",
      "type": "function"
    }
  ],
  "bytecode": "0x6080604052614089806100136000396000f3fe6080604052600436106100f35760003560e01c8063897822b11161008a578063c50b0fb011610059578063c50b0fb0146102f7578063df16e36214610322578063f62d18881461035f578063f905c15a14610388576100f3565b8063897822b11461026d5780639525256014610284578063ae025c0c1461028e578063c27567c9146102cc576100f3565b806343d3b1be116100c657806343d3b1be1461019c578063580dad8d146101c7578063673402e5146102045780638668a50c1461022f576100f3565b80631c4b774b146100f857806327dc297e146101215780632d1e7f861461014a57806338bbfa5014610173575b600080fd5b34801561010457600080fd5b5061011f600480360381019061011a9190612c50565b6103b3565b005b34801561012d57600080fd5b5061014860048036038101906101439190612ad0565b6103ef565b005b34801561015657600080fd5b50610171600480360381019061016c9190612ba3565b610449565b005b34801561017f57600080fd5b5061019a60048036038101906101959190612b24565b610463565b005b3480156101a857600080fd5b506101b1610486565b6040516101be919061349c565b60405180910390f35b3480156101d357600080fd5b506101ee60048036038101906101e99190612be4565b61048c565b6040516101fb91906133fe565b60405180910390f35b34801561021057600080fd5b506102196106bc565b604051610226919061333c565b60405180910390f35b34801561023b57600080fd5b5061025660048036038101906102519190612ca2565b61075a565b6040516102649291906132b3565b60405180910390f35b34801561027957600080fd5b506102826109c0565b005b61028c610a86565b005b34801561029a57600080fd5b506102b560048036038101906102b09190612a55565b610bb5565b6040516102c3929190613420565b60405180910390f35b3480156102d857600080fd5b506102e16112f5565b6040516102ee91906132dc565b60405180910390f35b34801561030357600080fd5b5061030c611390565b604051610319919061333c565b60405180910390f35b34801561032e57600080fd5b5061034960048036038101906103449190612ca2565b61142e565b6040516103569190613298565b60405180910390f35b34801561036b57600080fd5b5061038660048036038101906103819190612ba3565b6115c8565b005b34801561039457600080fd5b5061039d6116cd565b6040516103aa91906132dc565b60405180910390f35b7f6a25488c7d3aabc1977d19779cf2091613a2f71d0a0d13880837c533807c93f833826040516103e492919061326f565b60405180910390a150565b6103f76116f3565b73ffffffffffffffffffffffffffffffffffffffff163373ffffffffffffffffffffffffffffffffffffffff161461042e57600080fd5b80603990805190602001906104449291906126c9565b505050565b80603b908051906020019061045f9291906126c9565b5050565b6000801b600360008060001b815260200190815260200160002081905550505050565b603a5481565b610494612749565b604051806040016040528084815260200183815250603c60003373ffffffffffffffffffffffffffffffffffffffff1673ffffffffffffffffffffffffffffffffffffffff168152602001908152602001600020600082015181600001600082015181600001908051906020019061050d9291906126c9565b5060208201518160010155604082015181600201600082015181600001908051906020019061053d9291906126c9565b50602082015181600101908051906020019061055a9291906126c9565b506040820151816002015560608201518160030155505060608201518160060160008201518160000190805190602001906105969291906126c9565b5060208201518160010190805190602001906105b39291906126c9565b50604082015181600201556060820151816003015550505050602082015181600a0160008201518160000190805190602001906105f19291906126c9565b506020820151816001015560408201518160020160008201518160000190805190602001906106219291906126c9565b50602082015181600101908051906020019061063e9291906126c9565b5060408201518160020155606082015181600301555050606082015181600601600082015181600001908051906020019061067a9291906126c9565b5060208201518160010190805190602001906106979291906126c9565b5060408201518160020155606082015181600301555050505090505082905092915050565b60398054600181600116156101000203166002900480601f0160208091040260200160405190810160405280929190818152602001828054600181600116156101000203166002900480156107525780601f1061072757610100808354040283529160200191610752565b820191906000526020600020905b81548152906001019060200180831161073557829003601f168201915b505050505081565b60008060405160200161076c9061325a565b60405160208183030381529060405280519060200120603c60003373ffffffffffffffffffffffffffffffffffffffff1673ffffffffffffffffffffffffffffffffffffffff1681526020019081526020016000206000016000016040516020016107d79190613243565b60405160208183030381529060405280519060200120141561082e576040517f08c379a00000000000000000000000000000000000000000000000000000000081526004016108259061339e565b60405180910390fd5b60405160200161083d9061325a565b60405160208183030381529060405280519060200120603c60003373ffffffffffffffffffffffffffffffffffffffff1673ffffffffffffffffffffffffffffffffffffffff168152602001908152602001600020600a016000016040516020016108a89190613243565b6040516020818303038152906040528051906020012014156108ff576040517f08c379a00000000000000000000000000000000000000000000000000000000081526004016108f69061337e565b60405180910390fd5b600061090b858561142e565b90508015610968576001603c60003373ffffffffffffffffffffffffffffffffffffffff1673ffffffffffffffffffffffffffffffffffffffff1681526020019081526020016000206000016002016002015492509250506109b9565b6000603c60003373ffffffffffffffffffffffffffffffffffffffff1673ffffffffffffffffffffffffffffffffffffffff168152602001908152602001600020600a016006016002015492509250505b9250929050565b603860009054906101000a900473ffffffffffffffffffffffffffffffffffffffff1673ffffffffffffffffffffffffffffffffffffffff166383197ef06040518163ffffffff1660e01b8152600401600060405180830381600087803b158015610a2a57600080fd5b505af1158015610a3e573d6000803e3d6000fd5b505050506000603860006101000a81548173ffffffffffffffffffffffffffffffffffffffff021916908373ffffffffffffffffffffffffffffffffffffffff160217905550565b66470de4df82000080341015610ad1576040517f08c379a0000000000000000000000000000000000000000000000000000000008152600401610ac8906133de565b60405180910390fd5b610b0f6040518060400160405280600381526020017f55524c0000000000000000000000000000000000000000000000000000000000815250611a07565b603a81905550603a54471015610b5a576040517f08c379a0000000000000000000000000000000000000000000000000000000008152600401610b519061335e565b60405180910390fd5b610bb16040518060400160405280600381526020017f55524c0000000000000000000000000000000000000000000000000000000000815250604051806080016040528060608152602001613ff460609139611d28565b5050565b603c60205280600052604060002060009150905080600001604051806080016040529081600082018054600181600116156101000203166002900480601f016020809104026020016040519081016040528092919081815260200182805460018160011615610100020316600290048015610c715780601f10610c4657610100808354040283529160200191610c71565b820191906000526020600020905b815481529060010190602001808311610c5457829003601f168201915b505050505081526020016001820154815260200160028201604051806080016040529081600082018054600181600116156101000203166002900480601f016020809104026020016040519081016040528092919081815260200182805460018160011615610100020316600290048015610d2d5780601f10610d0257610100808354040283529160200191610d2d565b820191906000526020600020905b815481529060010190602001808311610d1057829003601f168201915b50505050508152602001600182018054600181600116156101000203166002900480601f016020809104026020016040519081016040528092919081815260200182805460018160011615610100020316600290048015610dcf5780601f10610da457610100808354040283529160200191610dcf565b820191906000526020600020905b815481529060010190602001808311610db257829003601f168201915b5050505050815260200160028201548152602001600382015481525050815260200160068201604051806080016040529081600082018054600181600116156101000203166002900480601f016020809104026020016040519081016040528092919081815260200182805460018160011615610100020316600290048015610e995780601f10610e6e57610100808354040283529160200191610e99565b820191906000526020600020905b815481529060010190602001808311610e7c57829003601f168201915b50505050508152602001600182018054600181600116156101000203166002900480601f016020809104026020016040519081016040528092919081815260200182805460018160011615610100020316600290048015610f3b5780601f10610f1057610100808354040283529160200191610f3b565b820191906000526020600020905b815481529060010190602001808311610f1e57829003601f168201915b5050505050815260200160028201548152602001600382015481525050815250509080600a01604051806080016040529081600082018054600181600116156101000203166002900480601f0160208091040260200160405190810160405280929190818152602001828054600181600116156101000203166002900480156110055780601f10610fda57610100808354040283529160200191611005565b820191906000526020600020905b815481529060010190602001808311610fe857829003601f168201915b505050505081526020016001820154815260200160028201604051806080016040529081600082018054600181600116156101000203166002900480601f0160208091040260200160405190810160405280929190818152602001828054600181600116156101000203166002900480156110c15780601f10611096576101008083540402835291602001916110c1565b820191906000526020600020905b8154815290600101906020018083116110a457829003601f168201915b50505050508152602001600182018054600181600116156101000203166002900480601f0160208091040260200160405190810160405280929190818152602001828054600181600116156101000203166002900480156111635780601f1061113857610100808354040283529160200191611163565b820191906000526020600020905b81548152906001019060200180831161114657829003601f168201915b5050505050815260200160028201548152602001600382015481525050815260200160068201604051806080016040529081600082018054600181600116156101000203166002900480601f01602080910402602001604051908101604052809291908181526020018280546001816001161561010002031660029004801561122d5780601f106112025761010080835404028352916020019161122d565b820191906000526020600020905b81548152906001019060200180831161121057829003601f168201915b50505050508152602001600182018054600181600116156101000203166002900480601f0160208091040260200160405190810160405280929190818152602001828054600181600116156101000203166002900480156112cf5780601f106112a4576101008083540402835291602001916112cf565b820191906000526020600020905b8154815290600101906020018083116112b257829003601f168201915b505050505081526020016002820154815260200160038201548152505081525050905082565b60008060001b6040516113079061277d565b8190604051809103906000f5905080158015611327573d6000803e3d6000fd5b50603860006101000a81548173ffffffffffffffffffffffffffffffffffffffff021916908373ffffffffffffffffffffffffffffffffffffffff160217905550603860009054906101000a900473ffffffffffffffffffffffffffffffffffffffff16905090565b603b8054600181600116156101000203166002900480601f0160208091040260200160405190810160405280929190818152602001828054600181600116156101000203166002900480156114265780601f106113fb57610100808354040283529160200191611426565b820191906000526020600020905b81548152906001019060200180831161140957829003601f168201915b505050505081565b6000818311156114ff577fbc4b92d339fc9a0c95f60c056c191fea7200e8580924dc0a223bfaa7ab8c1e67603c60003373ffffffffffffffffffffffffffffffffffffffff1673ffffffffffffffffffffffffffffffffffffffff168152602001908152602001600020600001603c60003373ffffffffffffffffffffffffffffffffffffffff1673ffffffffffffffffffffffffffffffffffffffff168152602001908152602001600020600a0160016040516114ee93929190613457565b60405180910390a1600190506115c2565b7fbc4b92d339fc9a0c95f60c056c191fea7200e8580924dc0a223bfaa7ab8c1e67603c60003373ffffffffffffffffffffffffffffffffffffffff1673ffffffffffffffffffffffffffffffffffffffff168152602001908152602001600020600001603c60003373ffffffffffffffffffffffffffffffffffffffff1673ffffffffffffffffffffffffffffffffffffffff168152602001908152602001600020600a0160006040516115b593929190613457565b60405180910390a1600090505b92915050565b600560019054906101000a900460ff16806115e757506115e6612125565b5b806115ff5750600560009054906101000a900460ff16155b61163e576040517f08c379a0000000000000000000000000000000000000000000000000000000008152600401611635906133be565b60405180910390fd5b6000600560019054906101000a900460ff161590508015611690576001600560016101000a81548160ff0219169083151502179055506001600560006101000a81548160ff0219169083151502179055505b81603b90805190602001906116a69291906126c9565b5080156116c9576000600560016101000a81548160ff0219169083151502179055505b5050565b603860009054906101000a900473ffffffffffffffffffffffffffffffffffffffff1681565b60008073ffffffffffffffffffffffffffffffffffffffff16600160009054906101000a900473ffffffffffffffffffffffffffffffffffffffff1673ffffffffffffffffffffffffffffffffffffffff16148061177b57506000611779600160009054906101000a900473ffffffffffffffffffffffffffffffffffffffff1661213c565b145b1561178c5761178a6000612147565b505b600160009054906101000a900473ffffffffffffffffffffffffffffffffffffffff1673ffffffffffffffffffffffffffffffffffffffff166338cc48316040518163ffffffff1660e01b8152600401602060405180830381600087803b1580156117f657600080fd5b505af115801561180a573d6000803e3d6000fd5b505050506040513d601f19601f8201168201806040525081019061182e9190612a7e565b73ffffffffffffffffffffffffffffffffffffffff1660008054906101000a900473ffffffffffffffffffffffffffffffffffffffff1673ffffffffffffffffffffffffffffffffffffffff161461196257600160009054906101000a900473ffffffffffffffffffffffffffffffffffffffff1673ffffffffffffffffffffffffffffffffffffffff166338cc48316040518163ffffffff1660e01b8152600401602060405180830381600087803b1580156118ea57600080fd5b505af11580156118fe573d6000803e3d6000fd5b505050506040513d601f19601f820116820180604052508101906119229190612a7e565b6000806101000a81548173ffffffffffffffffffffffffffffffffffffffff021916908373ffffffffffffffffffffffffffffffffffffffff1602179055505b60008054906101000a900473ffffffffffffffffffffffffffffffffffffffff1673ffffffffffffffffffffffffffffffffffffffff1663c281d19e6040518163ffffffff1660e01b8152600401602060405180830381600087803b1580156119ca57600080fd5b505af11580156119de573d6000803e3d6000fd5b505050506040513d601f19601f82011682018060405250810190611a029190612a7e565b905090565b60008073ffffffffffffffffffffffffffffffffffffffff16600160009054906101000a900473ffffffffffffffffffffffffffffffffffffffff1673ffffffffffffffffffffffffffffffffffffffff161480611a8f57506000611a8d600160009054906101000a900473ffffffffffffffffffffffffffffffffffffffff1661213c565b145b15611aa057611a9e6000612147565b505b600160009054906101000a900473ffffffffffffffffffffffffffffffffffffffff1673ffffffffffffffffffffffffffffffffffffffff166338cc48316040518163ffffffff1660e01b8152600401602060405180830381600087803b158015611b0a57600080fd5b505af1158015611b1e573d6000803e3d6000fd5b505050506040513d601f19601f82011682018060405250810190611b429190612a7e565b73ffffffffffffffffffffffffffffffffffffffff1660008054906101000a900473ffffffffffffffffffffffffffffffffffffffff1673ffffffffffffffffffffffffffffffffffffffff1614611c7657600160009054906101000a900473ffffffffffffffffffffffffffffffffffffffff1673ffffffffffffffffffffffffffffffffffffffff166338cc48316040518163ffffffff1660e01b8152600401602060405180830381600087803b158015611bfe57600080fd5b505af1158015611c12573d6000803e3d6000fd5b505050506040513d601f19601f82011682018060405250810190611c369190612a7e565b6000806101000a81548173ffffffffffffffffffffffffffffffffffffffff021916908373ffffffffffffffffffffffffffffffffffffffff1602179055505b60008054906101000a900473ffffffffffffffffffffffffffffffffffffffff1673ffffffffffffffffffffffffffffffffffffffff1663524f3889836040518263ffffffff1660e01b8152600401611ccf919061333c565b602060405180830381600087803b158015611ce957600080fd5b505af1158015611cfd573d6000803e3d6000fd5b505050506040513d601f19601f82011682018060405250810190611d219190612c79565b9050919050565b60008073ffffffffffffffffffffffffffffffffffffffff16600160009054906101000a900473ffffffffffffffffffffffffffffffffffffffff1673ffffffffffffffffffffffffffffffffffffffff161480611db057506000611dae600160009054906101000a900473ffffffffffffffffffffffffffffffffffffffff1661213c565b145b15611dc157611dbf6000612147565b505b600160009054906101000a900473ffffffffffffffffffffffffffffffffffffffff1673ffffffffffffffffffffffffffffffffffffffff166338cc48316040518163ffffffff1660e01b8152600401602060405180830381600087803b158015611e2b57600080fd5b505af1158015611e3f573d6000803e3d6000fd5b505050506040513d601f19601f82011682018060405250810190611e639190612a7e565b73ffffffffffffffffffffffffffffffffffffffff1660008054906101000a900473ffffffffffffffffffffffffffffffffffffffff1673ffffffffffffffffffffffffffffffffffffffff1614611f9757600160009054906101000a900473ffffffffffffffffffffffffffffffffffffffff1673ffffffffffffffffffffffffffffffffffffffff166338cc48316040518163ffffffff1660e01b8152600401602060405180830381600087803b158015611f1f57600080fd5b505af1158015611f33573d6000803e3d6000fd5b505050506040513d601f19601f82011682018060405250810190611f579190612a7e565b6000806101000a81548173ffffffffffffffffffffffffffffffffffffffff021916908373ffffffffffffffffffffffffffffffffffffffff1602179055505b60008060009054906101000a900473ffffffffffffffffffffffffffffffffffffffff1673ffffffffffffffffffffffffffffffffffffffff1663524f3889856040518263ffffffff1660e01b8152600401611ff3919061333c565b602060405180830381600087803b15801561200d57600080fd5b505af1158015612021573d6000803e3d6000fd5b505050506040513d601f19601f820116820180604052508101906120459190612c79565b905062030d403a02670de0b6b3a76400000181111561206a576000801b91505061211f565b60008054906101000a900473ffffffffffffffffffffffffffffffffffffffff1673ffffffffffffffffffffffffffffffffffffffff1663adf59f9982600087876040518563ffffffff1660e01b81526004016120c9939291906132f7565b6020604051808303818588803b1580156120e257600080fd5b505af11580156120f6573d6000803e3d6000fd5b50505050506040513d601f19601f8201168201806040525081019061211b9190612aa7565b9150505b92915050565b6000803090506000813b9050600081149250505090565b6000813b9050919050565b6000612151612158565b9050919050565b600080612178731d3b2638a7cc9f2cb3d298a3da7a90b67e5506ed61213c565b111561221a57731d3b2638a7cc9f2cb3d298a3da7a90b67e5506ed600160006101000a81548173ffffffffffffffffffffffffffffffffffffffff021916908373ffffffffffffffffffffffffffffffffffffffff1602179055506122116040518060400160405280600b81526020017f6574685f6d61696e6e65740000000000000000000000000000000000000000008152506126af565b600190506126ac565b600061223973c03a2615d5efaf5f49f60b7bb6583eaec212fdf161213c565b11156122db5773c03a2615d5efaf5f49f60b7bb6583eaec212fdf1600160006101000a81548173ffffffffffffffffffffffffffffffffffffffff021916908373ffffffffffffffffffffffffffffffffffffffff1602179055506122d26040518060400160405280600c81526020017f6574685f726f707374656e3300000000000000000000000000000000000000008152506126af565b600190506126ac565b60006122fa73b7a07bcf2ba2f2703b24c0691b5278999c59ac7e61213c565b111561239c5773b7a07bcf2ba2f2703b24c0691b5278999c59ac7e600160006101000a81548173ffffffffffffffffffffffffffffffffffffffff021916908373ffffffffffffffffffffffffffffffffffffffff1602179055506123936040518060400160405280600981526020017f6574685f6b6f76616e00000000000000000000000000000000000000000000008152506126af565b600190506126ac565b60006123bb73146500cfd35b22e4a392fe0adc06de1a1368ed4861213c565b111561245d5773146500cfd35b22e4a392fe0adc06de1a1368ed48600160006101000a81548173ffffffffffffffffffffffffffffffffffffffff021916908373ffffffffffffffffffffffffffffffffffffffff1602179055506124546040518060400160405280600b81526020017f6574685f72696e6b6562790000000000000000000000000000000000000000008152506126af565b600190506126ac565b600061247c73a2998efd205fb9d4b4963afb70778d6354ad3a4161213c565b111561251e5773a2998efd205fb9d4b4963afb70778d6354ad3a41600160006101000a81548173ffffffffffffffffffffffffffffffffffffffff021916908373ffffffffffffffffffffffffffffffffffffffff1602179055506125156040518060400160405280600a81526020017f6574685f676f65726c69000000000000000000000000000000000000000000008152506126af565b600190506126ac565b600061253d736f485c8bf6fc43ea212e93bbf8ce046c7f1cb47561213c565b11156125a157736f485c8bf6fc43ea212e93bbf8ce046c7f1cb475600160006101000a81548173ffffffffffffffffffffffffffffffffffffffff021916908373ffffffffffffffffffffffffffffffffffffffff160217905550600190506126ac565b60006125c07320e12a1f859b3feae5fb2a0a32c18f5a65555bbf61213c565b1115612624577320e12a1f859b3feae5fb2a0a32c18f5a65555bbf600160006101000a81548173ffffffffffffffffffffffffffffffffffffffff021916908373ffffffffffffffffffffffffffffffffffffffff160217905550600190506126ac565b60006126437351efaf4c8b3c9afbd5ab9f4bbc82784ab6ef8faa61213c565b11156126a7577351efaf4c8b3c9afbd5ab9f4bbc82784ab6ef8faa600160006101000a81548173ffffffffffffffffffffffffffffffffffffffff021916908373ffffffffffffffffffffffffffffffffffffffff160217905550600190506126ac565b600090505b90565b80600290805190602001906126c59291906126c9565b5050565b828054600181600116156101000203166002900490600052602060002090601f016020900481019282601f1061270a57805160ff1916838001178555612738565b82800160010185558215612738579182015b8281111561273757825182559160200191906001019061271c565b5b509050612745919061278a565b5090565b6040518060800160405280606081526020016000815260200161276a6127a7565b81526020016127776127a7565b81525090565b6108e38061371183390190565b5b808211156127a357600081600090555060010161278b565b5090565b6040518060800160405280606081526020016060815260200160008152602001600081525090565b6000813590506127de816136cb565b92915050565b6000815190506127f3816136cb565b92915050565b600081359050612808816136e2565b92915050565b60008151905061281d816136e2565b92915050565b600082601f83011261283457600080fd5b8135612847612842826134e4565b6134b7565b9150808252602083016020830185838301111561286357600080fd5b61286e838284613651565b50505092915050565b600082601f83011261288857600080fd5b813561289b61289682613510565b6134b7565b915080825260208301602083018583830111156128b757600080fd5b6128c2838284613651565b50505092915050565b6000608082840312156128dd57600080fd5b6128e760806134b7565b9050600082013567ffffffffffffffff81111561290357600080fd5b61290f84828501612877565b600083015250602061292384828501612a2b565b602083015250604082013567ffffffffffffffff81111561294357600080fd5b61294f84828501612987565b604083015250606082013567ffffffffffffffff81111561296f57600080fd5b61297b84828501612987565b60608301525092915050565b60006080828403121561299957600080fd5b6129a360806134b7565b9050600082013567ffffffffffffffff8111156129bf57600080fd5b6129cb84828501612877565b600083015250602082013567ffffffffffffffff8111156129eb57600080fd5b6129f784828501612877565b6020830152506040612a0b84828501612a2b565b6040830152506060612a1f84828501612a2b565b60608301525092915050565b600081359050612a3a816136f9565b92915050565b600081519050612a4f816136f9565b92915050565b600060208284031215612a6757600080fd5b6000612a75848285016127cf565b91505092915050565b600060208284031215612a9057600080fd5b6000612a9e848285016127e4565b91505092915050565b600060208284031215612ab957600080fd5b6000612ac78482850161280e565b91505092915050565b60008060408385031215612ae357600080fd5b6000612af1858286016127f9565b925050602083013567ffffffffffffffff811115612b0e57600080fd5b612b1a85828601612877565b9150509250929050565b600080600060608486031215612b3957600080fd5b6000612b47868287016127f9565b935050602084013567ffffffffffffffff811115612b6457600080fd5b612b7086828701612877565b925050604084013567ffffffffffffffff811115612b8d57600080fd5b612b9986828701612823565b9150509250925092565b600060208284031215612bb557600080fd5b600082013567ffffffffffffffff811115612bcf57600080fd5b612bdb84828501612877565b91505092915050565b60008060408385031215612bf757600080fd5b600083013567ffffffffffffffff811115612c1157600080fd5b612c1d858286016128cb565b925050602083013567ffffffffffffffff811115612c3a57600080fd5b612c46858286016128cb565b9150509250929050565b600060208284031215612c6257600080fd5b6000612c7084828501612a2b565b91505092915050565b600060208284031215612c8b57600080fd5b6000612c9984828501612a40565b91505092915050565b60008060408385031215612cb557600080fd5b6000612cc385828601612a2b565b9250506020612cd485828601612a2b565b9150509250929050565b612ce7816135e5565b82525050565b612cf6816135a5565b82525050565b612d05816135f7565b82525050565b612d148161361b565b82525050565b6000612d2582613551565b612d2f818561355c565b9350612d3f818560208601613660565b612d48816136ad565b840191505092915050565b6000612d5e82613551565b612d68818561356d565b9350612d78818560208601613660565b612d81816136ad565b840191505092915050565b600081546001811660008114612da95760018114612dcf57612e13565b607f6002830416612dba818761355c565b955060ff198316865260208601935050612e13565b60028204612ddd818761355c565b9550612de88561353c565b60005b82811015612e0a57815481890152600182019150602081019050612deb565b80880195505050505b505092915050565b600081546001811660008114612e385760018114612e5d57612ea1565b607f6002830416612e49818761357e565b955060ff1983168652808601935050612ea1565b60028204612e6b818761357e565b9550612e768561353c565b60005b82811015612e9857815481890152600182019150602081019050612e79565b82880195505050505b505092915050565b6000612eb6602e8361356d565b91507f706c656173652061646420736f6d652045544820746f20636f76657220666f7260008301527f20746865207175657279206665650000000000000000000000000000000000006020830152604082019050919050565b6000612f1c600b8361356d565b91507f4e6f206f70706f6e656e740000000000000000000000000000000000000000006000830152602082019050919050565b6000612f5c600d8361356d565b91507f4e6f206368616c6c656e676572000000000000000000000000000000000000006000830152602082019050919050565b6000612f9c602e8361356d565b91507f436f6e747261637420696e7374616e63652068617320616c726561647920626560008301527f656e20696e697469616c697a65640000000000000000000000000000000000006020830152604082019050919050565b600061300260008361357e565b9150600082019050919050565b600061301c60118361356d565b91507f4d4f5245205354414b45204e45454445440000000000000000000000000000006000830152602082019050919050565b6000608083016000830151848203600086015261306c8282612d1a565b91505060208301516130816020860182613225565b5060408301518482036040860152613099828261313b565b915050606083015184820360608601526130b3828261313b565b9150508091505092915050565b600060808301600080840185830360008701526130dd8382612d8c565b925050600184015490506130f081613693565b6130fd6020870182613225565b5060028401858303604087015261311483826131a5565b92505060068401858303606087015261312d83826131a5565b925050819250505092915050565b600060808301600083015184820360008601526131588282612d1a565b915050602083015184820360208601526131728282612d1a565b91505060408301516131876040860182613225565b50606083015161319a6060860182613225565b508091505092915050565b600060808301600080840185830360008701526131c28382612d8c565b9250506001840185830360208701526131db8382612d8c565b925050600284015490506131ee81613693565b6131fb6040870182613225565b506003840154905061320c81613693565b6132196060870182613225565b50819250505092915050565b61322e816135db565b82525050565b61323d816135db565b82525050565b600061324f8284612e1b565b915081905092915050565b600061326582612ff5565b9150819050919050565b60006040820190506132846000830185612cde565b6132916020830184613234565b9392505050565b60006020820190506132ad6000830184612ced565b92915050565b60006040820190506132c86000830185612ced565b6132d56020830184613234565b9392505050565b60006020820190506132f16000830184612cfc565b92915050565b600060608201905061330c6000830186612d0b565b818103602083015261331e8185612d53565b905081810360408301526133328184612d53565b9050949350505050565b600060208201905081810360008301526133568184612d53565b905092915050565b6000602082019050818103600083015261337781612ea9565b9050919050565b6000602082019050818103600083015261339781612f0f565b9050919050565b600060208201905081810360008301526133b781612f4f565b9050919050565b600060208201905081810360008301526133d781612f8f565b9050919050565b600060208201905081810360008301526133f78161300f565b9050919050565b60006020820190508181036000830152613418818461304f565b905092915050565b6000604082019050818103600083015261343a818561304f565b9050818103602083015261344e818461304f565b90509392505050565b6000606082019050818103600083015261347181866130c0565b9050818103602083015261348581856130c0565b90506134946040830184612ced565b949350505050565b60006020820190506134b16000830184613234565b92915050565b6000604051905081810181811067ffffffffffffffff821117156134da57600080fd5b8060405250919050565b600067ffffffffffffffff8211156134fb57600080fd5b601f19601f8301169050602081019050919050565b600067ffffffffffffffff82111561352757600080fd5b601f19601f8301169050602081019050919050565b60008190508160005260206000209050919050565b600081519050919050565b600082825260208201905092915050565b600082825260208201905092915050565b600081905092915050565b6000819050919050565b600061359e826135bb565b9050919050565b60008115159050919050565b6000819050919050565b600073ffffffffffffffffffffffffffffffffffffffff82169050919050565b6000819050919050565b60006135f08261362d565b9050919050565b600061360282613609565b9050919050565b6000613614826135bb565b9050919050565b6000613626826135db565b9050919050565b60006136388261363f565b9050919050565b600061364a826135bb565b9050919050565b82818337600083830152505050565b60005b8381101561367e578082015181840152602081019050613663565b8381111561368d576000848401525b50505050565b60006136a66136a1836136be565b613589565b9050919050565b6000601f19601f8301169050919050565b60008160001c9050919050565b6136d481613593565b81146136df57600080fd5b50565b6136eb816135b1565b81146136f657600080fd5b50565b613702816135db565b811461370d57600080fd5b5056fe608060405234801561001057600080fd5b506108c3806100206000396000f3fe608060405234801561001057600080fd5b50600436106100575760003560e01c80630f1ff7c71461005c578063349b95911461008c57806383197ef0146100bc578063882c2a43146100c6578063a26085f8146100f6575b600080fd5b61007660048036038101906100719190610477565b610112565b6040516100839190610705565b60405180910390f35b6100a660048036038101906100a191906104b8565b610133565b6040516100b39190610727565b60405180910390f35b6100c4610165565b005b6100e060048036038101906100db91906104f9565b61017e565b6040516100ed9190610705565b60405180910390f35b610110600480360381019061010b919061044e565b6101b1565b005b61011a610214565b6001826020018181510191508181525050819050919050565b61013b610248565b600a826040018181510191508181525050600a826060018181510191508181525050819050919050565b3373ffffffffffffffffffffffffffffffffffffffff16ff5b610186610214565b600184111561019d578282606001819052506101a7565b8282604001819052505b8190509392505050565b8073ffffffffffffffffffffffffffffffffffffffff166383197ef06040518163ffffffff1660e01b8152600401600060405180830381600087803b1580156101f957600080fd5b505af115801561020d573d6000803e3d6000fd5b5050505050565b60405180608001604052806060815260200160008152602001610235610248565b8152602001610242610248565b81525090565b6040518060800160405280606081526020016060815260200160008152602001600081525090565b60008135905061027f8161085f565b92915050565b600082601f83011261029657600080fd5b81356102a96102a482610776565b610749565b915080825260208301602083018583830111156102c557600080fd5b6102d083828461080c565b50505092915050565b6000608082840312156102eb57600080fd5b6102f56080610749565b9050600082013567ffffffffffffffff81111561031157600080fd5b61031d84828501610285565b600083015250602061033184828501610439565b602083015250604082013567ffffffffffffffff81111561035157600080fd5b61035d84828501610395565b604083015250606082013567ffffffffffffffff81111561037d57600080fd5b61038984828501610395565b60608301525092915050565b6000608082840312156103a757600080fd5b6103b16080610749565b9050600082013567ffffffffffffffff8111156103cd57600080fd5b6103d984828501610285565b600083015250602082013567ffffffffffffffff8111156103f957600080fd5b61040584828501610285565b602083015250604061041984828501610439565b604083015250606061042d84828501610439565b60608301525092915050565b60008135905061044881610876565b92915050565b60006020828403121561046057600080fd5b600061046e84828501610270565b91505092915050565b60006020828403121561048957600080fd5b600082013567ffffffffffffffff8111156104a357600080fd5b6104af848285016102d9565b91505092915050565b6000602082840312156104ca57600080fd5b600082013567ffffffffffffffff8111156104e457600080fd5b6104f084828501610395565b91505092915050565b60008060006060848603121561050e57600080fd5b600061051c86828701610439565b935050602084013567ffffffffffffffff81111561053957600080fd5b61054586828701610395565b925050604084013567ffffffffffffffff81111561056257600080fd5b61056e868287016102d9565b9150509250925092565b6000610583826107a2565b61058d81856107ad565b935061059d81856020860161081b565b6105a68161084e565b840191505092915050565b600060808301600083015184820360008601526105ce8282610578565b91505060208301516105e360208601826106f6565b50604083015184820360408601526105fb8282610622565b915050606083015184820360608601526106158282610622565b9150508091505092915050565b6000608083016000830151848203600086015261063f8282610578565b915050602083015184820360208601526106598282610578565b915050604083015161066e60408601826106f6565b50606083015161068160608601826106f6565b508091505092915050565b600060808301600083015184820360008601526106a98282610578565b915050602083015184820360208601526106c38282610578565b91505060408301516106d860408601826106f6565b5060608301516106eb60608601826106f6565b508091505092915050565b6106ff81610802565b82525050565b6000602082019050818103600083015261071f81846105b1565b905092915050565b60006020820190508181036000830152610741818461068c565b905092915050565b6000604051905081810181811067ffffffffffffffff8211171561076c57600080fd5b8060405250919050565b600067ffffffffffffffff82111561078d57600080fd5b601f19601f8301169050602081019050919050565b600081519050919050565b600082825260208201905092915050565b60006107c9826107e2565b9050919050565b60006107db826107be565b9050919050565b600073ffffffffffffffffffffffffffffffffffffffff82169050919050565b6000819050919050565b82818337600083830152505050565b60005b8381101561083957808201518184015260208101905061081e565b83811115610848576000848401525b50505050565b6000601f19601f8301169050919050565b610868816107d0565b811461087357600080fd5b50565b61087f81610802565b811461088a57600080fd5b5056fea2646970667358221220339df63cb3f92587ead0fabbd29e325811474c49cca8f2f3485b2e3bfbaf5f6064736f6c634300060c00336a736f6e28687474703a2f2f776565726c6976652e6e6c2f6170692f6a736f6e2d646174612d31306d696e2e7068703f6b65793d65393531366436633061266c6f63617469653d44656e48616167292e6c697665776565725b305d2e74656d70a2646970667358221220b46c07fb59871bac8c27846704262c776d330a15f091209325b70684245ede3164736f6c634300060c0033",
  "immutableReferences": {},
  "source": "/// Based on https://solidity.readthedocs.io/en/develop/natspec-format.html\n\npragma solidity ^0.6.0;\npragma experimental ABIEncoderV2;\n\nimport \"./Heroes.sol\";\nimport \"./ProvableAPI.sol\";\nimport \"../../node_modules/@openzeppelin/upgrades-core/contracts/Initializable.sol\";\n\n/// @title A arena for a 1 on 1 battle\n/// @author Jeffrey Lo-A-Foe\n/// @notice You can use this contract for a simple one on one battle \n/// @dev All function calls are currently implemented without side effects\ncontract HeroesMatch is usingProvable, Initializable{\n\nHeroes public deployed;\nstring  public temp;\nuint256 public priceOfUrl;\nstring public season;\n\nmodifier minAmount(uint _amount){ require(msg.value >= _amount, \"MORE STAKE NEEDED\"); _;}\n\n    struct Match {\n        Heroes.HeroesClass challenger;\n        Heroes.HeroesClass opponent;\n    }\n\n    event RoundWinner(Heroes.HeroesClass challenger, Heroes.HeroesClass opponent, bool result) ;\n    event ReceivedItem(address player, uint item);\n\n    mapping(address => Match) public ownerToMatch;\n\n    constructor() public payable{}\n\n    function __callback(bytes32 /* myid prevent warning*/ , string memory result ) override public {\n        if (msg.sender != provable_cbAddress()) revert();\n        temp = result;\n    }\n\n    function initialize(string memory _season) public initializer {\n        season = _season;\n    }\n\n    function setSeason(string memory _season) public {\n        season = _season;\n    }\n\n    function destroyHero() public{\n        deployed.destroy();\n        deployed = Heroes(address(0));\n    }\n\n    function deployHero() public returns (Heroes) {\n        deployed = new Heroes{salt: 0x00}();\n        return deployed;\n    }\n\n    /// @notice Weather for some fight variation\n    /// @dev extend\n    function getTemp() public payable minAmount(0.02 ether){\n        priceOfUrl = provable_getPrice(\"URL\");\n        require (address(this).balance >= priceOfUrl,\n                \"please add some ETH to cover for the query fee\");\n        provable_query(\"URL\",\n                \"json(http://weerlive.nl/api/json-data-10min.php?key=e9516d6c0a&locatie=DenHaag).liveweer[0].temp\");\n    }\n\n    function getReward(uint item) public{\n        emit ReceivedItem(msg.sender, item);\n    }\n\n    /// @notice set the fighting arena and say who battles who\n    /// @dev extend\n    /// @param _opponent contains of name skill damage\n    /// @param _challenger contains of name skill damage\n    /// @return _challenger give back what character is made\n    //Set the fight arena\n    function initFight(Heroes.HeroesClass memory _challenger, Heroes.HeroesClass memory _opponent) public returns (Heroes.HeroesClass memory) {\n        ownerToMatch[msg.sender] = Match(_challenger,_opponent);\n        return _challenger;\n    }\n\n    /// @notice calculate the winning state\n    /// @dev extend\n    /// @param randomNumberChallenger The numbers are random generated from the dApp\n    /// @param randomNumberOpponent The numbers are random generated from the dApp\n    /// @return did challenger win and how much dmg is done\n    //Start the fight and determine damage.\n    function beginFight(uint randomNumberChallenger, uint randomNumberOpponent) public returns (bool, uint){\n        //No challenger or opponent\n        require(keccak256(abi.encodePacked(ownerToMatch[msg.sender].challenger.name)) != keccak256(abi.encodePacked(\"\")), \"No challenger\");\n        require(keccak256(abi.encodePacked(ownerToMatch[msg.sender].opponent.name)) != keccak256(abi.encodePacked(\"\")), \"No opponent\");\n\n        bool winner = didChallengerWin(randomNumberChallenger, randomNumberOpponent);\n\n        //Give result and the amount of damage\n        if(winner) {\n            return (true, ownerToMatch[msg.sender].challenger.skill_1.min_skill_damage);\n        }\n        else {\n            return (false, ownerToMatch[msg.sender].opponent.skill_2.min_skill_damage);\n        }\n    }\n    /// @notice announce the winner in the event log\n    /// @dev extend\n    /// @param randomNumberChallenger The numbers are random generated from the dApp\n    /// @param randomNumberOpponent The numbers are random generated from the dApp\n    /// @return did challenger win\n    //Determine who wins the fight\n    function didChallengerWin(uint randomNumberChallenger, uint randomNumberOpponent) public returns(bool) {\n        if(randomNumberChallenger > randomNumberOpponent) {\n            emit RoundWinner(ownerToMatch[msg.sender].challenger, ownerToMatch[msg.sender].opponent, true);\n            return true;\n        }\n        else {\n            emit RoundWinner(ownerToMatch[msg.sender].challenger, ownerToMatch[msg.sender].opponent, false);\n            return false;\n        }\n    }\n}",
  "sourcePath": "/home/jeffrey/token/inleveren/BC3_Jeffrey/PD-08/ChainsGathering/dapp/contracts/Match.sol",
  "compiler": {
    "name": "solc",
    "version": "0.6.12+commit.27d51765.Emscripten.clang"
  },
  "schemaVersion": "3.3.2",
  "updatedAt": "2020-12-22T22:34:30.758Z",
  "networkType": "ethereum",
  "devdoc": {
    "author": "Jeffrey Lo-A-Foe",
    "details": "All function calls are currently implemented without side effects",
    "kind": "dev",
    "methods": {
      "beginFight(uint256,uint256)": {
        "details": "extend",
        "params": {
          "randomNumberChallenger": "The numbers are random generated from the dApp",
          "randomNumberOpponent": "The numbers are random generated from the dApp"
        },
        "returns": {
          "_0": "did challenger win and how much dmg is done"
        }
      },
      "didChallengerWin(uint256,uint256)": {
        "details": "extend",
        "params": {
          "randomNumberChallenger": "The numbers are random generated from the dApp",
          "randomNumberOpponent": "The numbers are random generated from the dApp"
        },
        "returns": {
          "_0": "did challenger win"
        }
      },
      "getTemp()": {
        "details": "extend"
      },
      "initFight((string,uint256,(string,string,uint256,uint256),(string,string,uint256,uint256)),(string,uint256,(string,string,uint256,uint256),(string,string,uint256,uint256)))": {
        "details": "extend",
        "params": {
          "_challenger": "contains of name skill damage",
          "_opponent": "contains of name skill damage"
        },
        "returns": {
          "_0": "_challenger give back what character is made"
        }
      }
    },
    "title": "A arena for a 1 on 1 battle",
    "version": 1
  },
  "userdoc": {
    "kind": "user",
    "methods": {
      "beginFight(uint256,uint256)": {
        "notice": "calculate the winning state"
      },
      "didChallengerWin(uint256,uint256)": {
        "notice": "announce the winner in the event log"
      },
      "getTemp()": {
        "notice": "Weather for some fight variation"
      },
      "initFight((string,uint256,(string,string,uint256,uint256),(string,string,uint256,uint256)),(string,uint256,(string,string,uint256,uint256),(string,string,uint256,uint256)))": {
        "notice": "set the fighting arena and say who battles who"
      }
    },
    "notice": "You can use this contract for a simple one on one battle ",
    "version": 1
  }
}