{
  "contractName": "Skill",
  "abi": [
    {
      "inputs": [],
      "stateMutability": "nonpayable",
      "type": "constructor"
    },
    {
      "inputs": [
        {
          "components": [
            {
              "internalType": "string",
              "name": "skill_name",
              "type": "string"
            },
            {
              "internalType": "string",
              "name": "description",
              "type": "string"
            },
            {
              "internalType": "uint256",
              "name": "min_skill_damage",
              "type": "uint256"
            },
            {
              "internalType": "uint256",
              "name": "max_skill_damage",
              "type": "uint256"
            }
          ],
          "internalType": "struct Skill.SkillClass",
          "name": "skill",
          "type": "tuple"
        }
      ],
      "name": "increaseSkillDamage",
      "outputs": [
        {
          "components": [
            {
              "internalType": "string",
              "name": "skill_name",
              "type": "string"
            },
            {
              "internalType": "string",
              "name": "description",
              "type": "string"
            },
            {
              "internalType": "uint256",
              "name": "min_skill_damage",
              "type": "uint256"
            },
            {
              "internalType": "uint256",
              "name": "max_skill_damage",
              "type": "uint256"
            }
          ],
          "internalType": "struct Skill.SkillClass",
          "name": "",
          "type": "tuple"
        }
      ],
      "stateMutability": "nonpayable",
      "type": "function"
    },
    {
      "inputs": [],
      "name": "destroy",
      "outputs": [],
      "stateMutability": "nonpayable",
      "type": "function"
    }
  ],
  "bytecode": "0x608060405234801561001057600080fd5b50610429806100206000396000f3fe608060405234801561001057600080fd5b50600436106100365760003560e01c8063349b95911461003b57806383197ef01461006b575b600080fd5b610055600480360381019061005091906101f5565b610075565b60405161006291906102e8565b60405180910390f35b6100736100a7565b005b61007d6100c0565b600a826040018181510191508181525050600a826060018181510191508181525050819050919050565b3373ffffffffffffffffffffffffffffffffffffffff16ff5b6040518060800160405280606081526020016060815260200160008152602001600081525090565b600082601f8301126100f957600080fd5b813561010c61010782610337565b61030a565b9150808252602083016020830185838301111561012857600080fd5b610133838284610389565b50505092915050565b60006080828403121561014e57600080fd5b610158608061030a565b9050600082013567ffffffffffffffff81111561017457600080fd5b610180848285016100e8565b600083015250602082013567ffffffffffffffff8111156101a057600080fd5b6101ac848285016100e8565b60208301525060406101c0848285016101e0565b60408301525060606101d4848285016101e0565b60608301525092915050565b6000813590506101ef816103dc565b92915050565b60006020828403121561020757600080fd5b600082013567ffffffffffffffff81111561022157600080fd5b61022d8482850161013c565b91505092915050565b600061024182610363565b61024b818561036e565b935061025b818560208601610398565b610264816103cb565b840191505092915050565b6000608083016000830151848203600086015261028c8282610236565b915050602083015184820360208601526102a68282610236565b91505060408301516102bb60408601826102d9565b5060608301516102ce60608601826102d9565b508091505092915050565b6102e28161037f565b82525050565b60006020820190508181036000830152610302818461026f565b905092915050565b6000604051905081810181811067ffffffffffffffff8211171561032d57600080fd5b8060405250919050565b600067ffffffffffffffff82111561034e57600080fd5b601f19601f8301169050602081019050919050565b600081519050919050565b600082825260208201905092915050565b6000819050919050565b82818337600083830152505050565b60005b838110156103b657808201518184015260208101905061039b565b838111156103c5576000848401525b50505050565b6000601f19601f8301169050919050565b6103e58161037f565b81146103f057600080fd5b5056fea2646970667358221220e5a76f41876c9223382e53bbc1c80865588f217e18c2a537127adbc79ad6eb3c64736f6c634300060c0033",
  "immutableReferences": {},
  "source": "pragma solidity ^0.6.0;\npragma experimental ABIEncoderV2;\n\ncontract Skill {\n\n    struct SkillClass {\n        string skill_name;\n        string description;\n        uint min_skill_damage;\n        uint max_skill_damage;\n    }\n\n    function increaseSkillDamage(SkillClass memory skill) public returns(SkillClass memory) {\n        skill.min_skill_damage += 10;\n        skill.max_skill_damage += 10;\n        return skill;\n    }\n\n    function destroy() public {\n        selfdestruct(msg.sender);\n    }\n\n    constructor() public {}\n\n}",
  "sourcePath": "/home/jeffrey/token/inleveren/BC3_Jeffrey/PD-08/ChainsGathering/dapp/contracts/Skill.sol",
  "compiler": {
    "name": "solc",
    "version": "0.6.12+commit.27d51765.Emscripten.clang"
  },
  "schemaVersion": "3.3.2",
  "updatedAt": "2020-12-16T14:39:39.840Z",
  "devdoc": {
    "kind": "dev",
    "methods": {},
    "version": 1
  },
  "userdoc": {
    "kind": "user",
    "methods": {},
    "version": 1
  }
}