{
  "contractName": "HeroesMatch2",
  "abi": [
    {
      "inputs": [],
      "stateMutability": "payable",
      "type": "constructor",
      "payable": true
    },
    {
      "anonymous": false,
      "inputs": [
        {
          "indexed": false,
          "internalType": "address",
          "name": "player",
          "type": "address"
        },
        {
          "indexed": false,
          "internalType": "uint256",
          "name": "item",
          "type": "uint256"
        }
      ],
      "name": "ReceivedItem",
      "type": "event"
    },
    {
      "anonymous": false,
      "inputs": [
        {
          "components": [
            {
              "internalType": "string",
              "name": "name",
              "type": "string"
            },
            {
              "internalType": "uint256",
              "name": "rarity",
              "type": "uint256"
            },
            {
              "components": [
                {
                  "internalType": "string",
                  "name": "skill_name",
                  "type": "string"
                },
                {
                  "internalType": "string",
                  "name": "description",
                  "type": "string"
                },
                {
                  "internalType": "uint256",
                  "name": "min_skill_damage",
                  "type": "uint256"
                },
                {
                  "internalType": "uint256",
                  "name": "max_skill_damage",
                  "type": "uint256"
                }
              ],
              "internalType": "struct HeroesMatch2.SkillClass",
              "name": "skill_1",
              "type": "tuple"
            },
            {
              "components": [
                {
                  "internalType": "string",
                  "name": "skill_name",
                  "type": "string"
                },
                {
                  "internalType": "string",
                  "name": "description",
                  "type": "string"
                },
                {
                  "internalType": "uint256",
                  "name": "min_skill_damage",
                  "type": "uint256"
                },
                {
                  "internalType": "uint256",
                  "name": "max_skill_damage",
                  "type": "uint256"
                }
              ],
              "internalType": "struct HeroesMatch2.SkillClass",
              "name": "skill_2",
              "type": "tuple"
            }
          ],
          "indexed": false,
          "internalType": "struct HeroesMatch2.HeroesClass",
          "name": "challenger",
          "type": "tuple"
        },
        {
          "components": [
            {
              "internalType": "string",
              "name": "name",
              "type": "string"
            },
            {
              "internalType": "uint256",
              "name": "rarity",
              "type": "uint256"
            },
            {
              "components": [
                {
                  "internalType": "string",
                  "name": "skill_name",
                  "type": "string"
                },
                {
                  "internalType": "string",
                  "name": "description",
                  "type": "string"
                },
                {
                  "internalType": "uint256",
                  "name": "min_skill_damage",
                  "type": "uint256"
                },
                {
                  "internalType": "uint256",
                  "name": "max_skill_damage",
                  "type": "uint256"
                }
              ],
              "internalType": "struct HeroesMatch2.SkillClass",
              "name": "skill_1",
              "type": "tuple"
            },
            {
              "components": [
                {
                  "internalType": "string",
                  "name": "skill_name",
                  "type": "string"
                },
                {
                  "internalType": "string",
                  "name": "description",
                  "type": "string"
                },
                {
                  "internalType": "uint256",
                  "name": "min_skill_damage",
                  "type": "uint256"
                },
                {
                  "internalType": "uint256",
                  "name": "max_skill_damage",
                  "type": "uint256"
                }
              ],
              "internalType": "struct HeroesMatch2.SkillClass",
              "name": "skill_2",
              "type": "tuple"
            }
          ],
          "indexed": false,
          "internalType": "struct HeroesMatch2.HeroesClass",
          "name": "opponent",
          "type": "tuple"
        },
        {
          "indexed": false,
          "internalType": "bool",
          "name": "result",
          "type": "bool"
        }
      ],
      "name": "RoundWinner",
      "type": "event"
    },
    {
      "inputs": [
        {
          "internalType": "address",
          "name": "",
          "type": "address"
        }
      ],
      "name": "ownerToMatch",
      "outputs": [
        {
          "components": [
            {
              "internalType": "string",
              "name": "name",
              "type": "string"
            },
            {
              "internalType": "uint256",
              "name": "rarity",
              "type": "uint256"
            },
            {
              "components": [
                {
                  "internalType": "string",
                  "name": "skill_name",
                  "type": "string"
                },
                {
                  "internalType": "string",
                  "name": "description",
                  "type": "string"
                },
                {
                  "internalType": "uint256",
                  "name": "min_skill_damage",
                  "type": "uint256"
                },
                {
                  "internalType": "uint256",
                  "name": "max_skill_damage",
                  "type": "uint256"
                }
              ],
              "internalType": "struct HeroesMatch2.SkillClass",
              "name": "skill_1",
              "type": "tuple"
            },
            {
              "components": [
                {
                  "internalType": "string",
                  "name": "skill_name",
                  "type": "string"
                },
                {
                  "internalType": "string",
                  "name": "description",
                  "type": "string"
                },
                {
                  "internalType": "uint256",
                  "name": "min_skill_damage",
                  "type": "uint256"
                },
                {
                  "internalType": "uint256",
                  "name": "max_skill_damage",
                  "type": "uint256"
                }
              ],
              "internalType": "struct HeroesMatch2.SkillClass",
              "name": "skill_2",
              "type": "tuple"
            }
          ],
          "internalType": "struct HeroesMatch2.HeroesClass",
          "name": "challenger",
          "type": "tuple"
        },
        {
          "components": [
            {
              "internalType": "string",
              "name": "name",
              "type": "string"
            },
            {
              "internalType": "uint256",
              "name": "rarity",
              "type": "uint256"
            },
            {
              "components": [
                {
                  "internalType": "string",
                  "name": "skill_name",
                  "type": "string"
                },
                {
                  "internalType": "string",
                  "name": "description",
                  "type": "string"
                },
                {
                  "internalType": "uint256",
                  "name": "min_skill_damage",
                  "type": "uint256"
                },
                {
                  "internalType": "uint256",
                  "name": "max_skill_damage",
                  "type": "uint256"
                }
              ],
              "internalType": "struct HeroesMatch2.SkillClass",
              "name": "skill_1",
              "type": "tuple"
            },
            {
              "components": [
                {
                  "internalType": "string",
                  "name": "skill_name",
                  "type": "string"
                },
                {
                  "internalType": "string",
                  "name": "description",
                  "type": "string"
                },
                {
                  "internalType": "uint256",
                  "name": "min_skill_damage",
                  "type": "uint256"
                },
                {
                  "internalType": "uint256",
                  "name": "max_skill_damage",
                  "type": "uint256"
                }
              ],
              "internalType": "struct HeroesMatch2.SkillClass",
              "name": "skill_2",
              "type": "tuple"
            }
          ],
          "internalType": "struct HeroesMatch2.HeroesClass",
          "name": "opponent",
          "type": "tuple"
        }
      ],
      "stateMutability": "view",
      "type": "function",
      "constant": true
    },
    {
      "inputs": [],
      "name": "priceOfUrl",
      "outputs": [
        {
          "internalType": "uint256",
          "name": "",
          "type": "uint256"
        }
      ],
      "stateMutability": "view",
      "type": "function",
      "constant": true
    },
    {
      "inputs": [],
      "name": "season",
      "outputs": [
        {
          "internalType": "string",
          "name": "",
          "type": "string"
        }
      ],
      "stateMutability": "view",
      "type": "function",
      "constant": true
    },
    {
      "inputs": [],
      "name": "temp",
      "outputs": [
        {
          "internalType": "string",
          "name": "",
          "type": "string"
        }
      ],
      "stateMutability": "view",
      "type": "function",
      "constant": true
    },
    {
      "inputs": [
        {
          "internalType": "string",
          "name": "_season",
          "type": "string"
        }
      ],
      "name": "setSeason",
      "outputs": [],
      "stateMutability": "nonpayable",
      "type": "function"
    },
    {
      "inputs": [
        {
          "internalType": "uint256",
          "name": "item",
          "type": "uint256"
        }
      ],
      "name": "getReward",
      "outputs": [],
      "stateMutability": "nonpayable",
      "type": "function"
    },
    {
      "inputs": [
        {
          "components": [
            {
              "internalType": "string",
              "name": "name",
              "type": "string"
            },
            {
              "internalType": "uint256",
              "name": "rarity",
              "type": "uint256"
            },
            {
              "components": [
                {
                  "internalType": "string",
                  "name": "skill_name",
                  "type": "string"
                },
                {
                  "internalType": "string",
                  "name": "description",
                  "type": "string"
                },
                {
                  "internalType": "uint256",
                  "name": "min_skill_damage",
                  "type": "uint256"
                },
                {
                  "internalType": "uint256",
                  "name": "max_skill_damage",
                  "type": "uint256"
                }
              ],
              "internalType": "struct HeroesMatch2.SkillClass",
              "name": "skill_1",
              "type": "tuple"
            },
            {
              "components": [
                {
                  "internalType": "string",
                  "name": "skill_name",
                  "type": "string"
                },
                {
                  "internalType": "string",
                  "name": "description",
                  "type": "string"
                },
                {
                  "internalType": "uint256",
                  "name": "min_skill_damage",
                  "type": "uint256"
                },
                {
                  "internalType": "uint256",
                  "name": "max_skill_damage",
                  "type": "uint256"
                }
              ],
              "internalType": "struct HeroesMatch2.SkillClass",
              "name": "skill_2",
              "type": "tuple"
            }
          ],
          "internalType": "struct HeroesMatch2.HeroesClass",
          "name": "_challenger",
          "type": "tuple"
        },
        {
          "components": [
            {
              "internalType": "string",
              "name": "name",
              "type": "string"
            },
            {
              "internalType": "uint256",
              "name": "rarity",
              "type": "uint256"
            },
            {
              "components": [
                {
                  "internalType": "string",
                  "name": "skill_name",
                  "type": "string"
                },
                {
                  "internalType": "string",
                  "name": "description",
                  "type": "string"
                },
                {
                  "internalType": "uint256",
                  "name": "min_skill_damage",
                  "type": "uint256"
                },
                {
                  "internalType": "uint256",
                  "name": "max_skill_damage",
                  "type": "uint256"
                }
              ],
              "internalType": "struct HeroesMatch2.SkillClass",
              "name": "skill_1",
              "type": "tuple"
            },
            {
              "components": [
                {
                  "internalType": "string",
                  "name": "skill_name",
                  "type": "string"
                },
                {
                  "internalType": "string",
                  "name": "description",
                  "type": "string"
                },
                {
                  "internalType": "uint256",
                  "name": "min_skill_damage",
                  "type": "uint256"
                },
                {
                  "internalType": "uint256",
                  "name": "max_skill_damage",
                  "type": "uint256"
                }
              ],
              "internalType": "struct HeroesMatch2.SkillClass",
              "name": "skill_2",
              "type": "tuple"
            }
          ],
          "internalType": "struct HeroesMatch2.HeroesClass",
          "name": "_opponent",
          "type": "tuple"
        }
      ],
      "name": "initFight",
      "outputs": [
        {
          "components": [
            {
              "internalType": "string",
              "name": "name",
              "type": "string"
            },
            {
              "internalType": "uint256",
              "name": "rarity",
              "type": "uint256"
            },
            {
              "components": [
                {
                  "internalType": "string",
                  "name": "skill_name",
                  "type": "string"
                },
                {
                  "internalType": "string",
                  "name": "description",
                  "type": "string"
                },
                {
                  "internalType": "uint256",
                  "name": "min_skill_damage",
                  "type": "uint256"
                },
                {
                  "internalType": "uint256",
                  "name": "max_skill_damage",
                  "type": "uint256"
                }
              ],
              "internalType": "struct HeroesMatch2.SkillClass",
              "name": "skill_1",
              "type": "tuple"
            },
            {
              "components": [
                {
                  "internalType": "string",
                  "name": "skill_name",
                  "type": "string"
                },
                {
                  "internalType": "string",
                  "name": "description",
                  "type": "string"
                },
                {
                  "internalType": "uint256",
                  "name": "min_skill_damage",
                  "type": "uint256"
                },
                {
                  "internalType": "uint256",
                  "name": "max_skill_damage",
                  "type": "uint256"
                }
              ],
              "internalType": "struct HeroesMatch2.SkillClass",
              "name": "skill_2",
              "type": "tuple"
            }
          ],
          "internalType": "struct HeroesMatch2.HeroesClass",
          "name": "",
          "type": "tuple"
        }
      ],
      "stateMutability": "nonpayable",
      "type": "function"
    },
    {
      "inputs": [
        {
          "internalType": "uint256",
          "name": "randomNumberChallenger",
          "type": "uint256"
        },
        {
          "internalType": "uint256",
          "name": "randomNumberOpponent",
          "type": "uint256"
        }
      ],
      "name": "beginFight",
      "outputs": [
        {
          "internalType": "bool",
          "name": "",
          "type": "bool"
        },
        {
          "internalType": "uint256",
          "name": "",
          "type": "uint256"
        }
      ],
      "stateMutability": "nonpayable",
      "type": "function"
    },
    {
      "inputs": [
        {
          "internalType": "uint256",
          "name": "randomNumberChallenger",
          "type": "uint256"
        },
        {
          "internalType": "uint256",
          "name": "randomNumberOpponent",
          "type": "uint256"
        }
      ],
      "name": "didChallengerWin",
      "outputs": [
        {
          "internalType": "bool",
          "name": "",
          "type": "bool"
        }
      ],
      "stateMutability": "nonpayable",
      "type": "function"
    }
  ],
  "bytecode": "0x6080604052611d01806100136000396000f3fe608060405234801561001057600080fd5b50600436106100935760003560e01c8063673402e511610066578063673402e51461011e5780638668a50c1461013c578063ae025c0c1461016d578063c50b0fb01461019e578063df16e362146101bc57610093565b80631c4b774b146100985780632d1e7f86146100b457806343d3b1be146100d0578063580dad8d146100ee575b600080fd5b6100b260048036038101906100ad91906114a1565b6101ec565b005b6100ce60048036038101906100c991906113f4565b610228565b005b6100d8610242565b6040516100e59190611ada565b60405180910390f35b61010860048036038101906101039190611435565b610248565b6040516101159190611a3c565b60405180910390f35b610126610478565b60405161013391906119da565b60405180910390f35b610156600480360381019061015191906114ca565b610516565b6040516101649291906119b1565b60405180910390f35b610187600480360381019061018291906113cb565b61077c565b604051610195929190611a5e565b60405180910390f35b6101a6610ebc565b6040516101b391906119da565b60405180910390f35b6101d660048036038101906101d191906114ca565b610f5a565b6040516101e39190611996565b60405180910390f35b7f6a25488c7d3aabc1977d19779cf2091613a2f71d0a0d13880837c533807c93f8338260405161021d92919061196d565b60405180910390a150565b806002908051906020019061023e9291906110f4565b5050565b60015481565b610250611174565b604051806040016040528084815260200183815250600360003373ffffffffffffffffffffffffffffffffffffffff1673ffffffffffffffffffffffffffffffffffffffff16815260200190815260200160002060008201518160000160008201518160000190805190602001906102c99291906110f4565b506020820151816001015560408201518160020160008201518160000190805190602001906102f99291906110f4565b5060208201518160010190805190602001906103169291906110f4565b506040820151816002015560608201518160030155505060608201518160060160008201518160000190805190602001906103529291906110f4565b50602082015181600101908051906020019061036f9291906110f4565b50604082015181600201556060820151816003015550505050602082015181600a0160008201518160000190805190602001906103ad9291906110f4565b506020820151816001015560408201518160020160008201518160000190805190602001906103dd9291906110f4565b5060208201518160010190805190602001906103fa9291906110f4565b506040820151816002015560608201518160030155505060608201518160060160008201518160000190805190602001906104369291906110f4565b5060208201518160010190805190602001906104539291906110f4565b5060408201518160020155606082015181600301555050505090505082905092915050565b60008054600181600116156101000203166002900480601f01602080910402602001604051908101604052809291908181526020018280546001816001161561010002031660029004801561050e5780601f106104e35761010080835404028352916020019161050e565b820191906000526020600020905b8154815290600101906020018083116104f157829003601f168201915b505050505081565b60008060405160200161052890611958565b60405160208183030381529060405280519060200120600360003373ffffffffffffffffffffffffffffffffffffffff1673ffffffffffffffffffffffffffffffffffffffff1681526020019081526020016000206000016000016040516020016105939190611941565b6040516020818303038152906040528051906020012014156105ea576040517f08c379a00000000000000000000000000000000000000000000000000000000081526004016105e190611a1c565b60405180910390fd5b6040516020016105f990611958565b60405160208183030381529060405280519060200120600360003373ffffffffffffffffffffffffffffffffffffffff1673ffffffffffffffffffffffffffffffffffffffff168152602001908152602001600020600a016000016040516020016106649190611941565b6040516020818303038152906040528051906020012014156106bb576040517f08c379a00000000000000000000000000000000000000000000000000000000081526004016106b2906119fc565b60405180910390fd5b60006106c78585610f5a565b90508015610724576001600360003373ffffffffffffffffffffffffffffffffffffffff1673ffffffffffffffffffffffffffffffffffffffff168152602001908152602001600020600001600201600201549250925050610775565b6000600360003373ffffffffffffffffffffffffffffffffffffffff1673ffffffffffffffffffffffffffffffffffffffff168152602001908152602001600020600a016006016002015492509250505b9250929050565b600360205280600052604060002060009150905080600001604051806080016040529081600082018054600181600116156101000203166002900480601f0160208091040260200160405190810160405280929190818152602001828054600181600116156101000203166002900480156108385780601f1061080d57610100808354040283529160200191610838565b820191906000526020600020905b81548152906001019060200180831161081b57829003601f168201915b505050505081526020016001820154815260200160028201604051806080016040529081600082018054600181600116156101000203166002900480601f0160208091040260200160405190810160405280929190818152602001828054600181600116156101000203166002900480156108f45780601f106108c9576101008083540402835291602001916108f4565b820191906000526020600020905b8154815290600101906020018083116108d757829003601f168201915b50505050508152602001600182018054600181600116156101000203166002900480601f0160208091040260200160405190810160405280929190818152602001828054600181600116156101000203166002900480156109965780601f1061096b57610100808354040283529160200191610996565b820191906000526020600020905b81548152906001019060200180831161097957829003601f168201915b5050505050815260200160028201548152602001600382015481525050815260200160068201604051806080016040529081600082018054600181600116156101000203166002900480601f016020809104026020016040519081016040528092919081815260200182805460018160011615610100020316600290048015610a605780601f10610a3557610100808354040283529160200191610a60565b820191906000526020600020905b815481529060010190602001808311610a4357829003601f168201915b50505050508152602001600182018054600181600116156101000203166002900480601f016020809104026020016040519081016040528092919081815260200182805460018160011615610100020316600290048015610b025780601f10610ad757610100808354040283529160200191610b02565b820191906000526020600020905b815481529060010190602001808311610ae557829003601f168201915b5050505050815260200160028201548152602001600382015481525050815250509080600a01604051806080016040529081600082018054600181600116156101000203166002900480601f016020809104026020016040519081016040528092919081815260200182805460018160011615610100020316600290048015610bcc5780601f10610ba157610100808354040283529160200191610bcc565b820191906000526020600020905b815481529060010190602001808311610baf57829003601f168201915b505050505081526020016001820154815260200160028201604051806080016040529081600082018054600181600116156101000203166002900480601f016020809104026020016040519081016040528092919081815260200182805460018160011615610100020316600290048015610c885780601f10610c5d57610100808354040283529160200191610c88565b820191906000526020600020905b815481529060010190602001808311610c6b57829003601f168201915b50505050508152602001600182018054600181600116156101000203166002900480601f016020809104026020016040519081016040528092919081815260200182805460018160011615610100020316600290048015610d2a5780601f10610cff57610100808354040283529160200191610d2a565b820191906000526020600020905b815481529060010190602001808311610d0d57829003601f168201915b5050505050815260200160028201548152602001600382015481525050815260200160068201604051806080016040529081600082018054600181600116156101000203166002900480601f016020809104026020016040519081016040528092919081815260200182805460018160011615610100020316600290048015610df45780601f10610dc957610100808354040283529160200191610df4565b820191906000526020600020905b815481529060010190602001808311610dd757829003601f168201915b50505050508152602001600182018054600181600116156101000203166002900480601f016020809104026020016040519081016040528092919081815260200182805460018160011615610100020316600290048015610e965780601f10610e6b57610100808354040283529160200191610e96565b820191906000526020600020905b815481529060010190602001808311610e7957829003601f168201915b505050505081526020016002820154815260200160038201548152505081525050905082565b60028054600181600116156101000203166002900480601f016020809104026020016040519081016040528092919081815260200182805460018160011615610100020316600290048015610f525780601f10610f2757610100808354040283529160200191610f52565b820191906000526020600020905b815481529060010190602001808311610f3557829003601f168201915b505050505081565b60008183111561102b577fbc4b92d339fc9a0c95f60c056c191fea7200e8580924dc0a223bfaa7ab8c1e67600360003373ffffffffffffffffffffffffffffffffffffffff1673ffffffffffffffffffffffffffffffffffffffff168152602001908152602001600020600001600360003373ffffffffffffffffffffffffffffffffffffffff1673ffffffffffffffffffffffffffffffffffffffff168152602001908152602001600020600a01600160405161101a93929190611a95565b60405180910390a1600190506110ee565b7fbc4b92d339fc9a0c95f60c056c191fea7200e8580924dc0a223bfaa7ab8c1e67600360003373ffffffffffffffffffffffffffffffffffffffff1673ffffffffffffffffffffffffffffffffffffffff168152602001908152602001600020600001600360003373ffffffffffffffffffffffffffffffffffffffff1673ffffffffffffffffffffffffffffffffffffffff168152602001908152602001600020600a0160006040516110e193929190611a95565b60405180910390a1600090505b92915050565b828054600181600116156101000203166002900490600052602060002090601f016020900481019282601f1061113557805160ff1916838001178555611163565b82800160010185558215611163579182015b82811115611162578251825591602001919060010190611147565b5b50905061117091906111a8565b5090565b604051806080016040528060608152602001600081526020016111956111c5565b81526020016111a26111c5565b81525090565b5b808211156111c15760008160009055506001016111a9565b5090565b6040518060800160405280606081526020016060815260200160008152602001600081525090565b6000813590506111fc81611c9d565b92915050565b600082601f83011261121357600080fd5b813561122661122182611b22565b611af5565b9150808252602083016020830185838301111561124257600080fd5b61124d838284611c23565b50505092915050565b60006080828403121561126857600080fd5b6112726080611af5565b9050600082013567ffffffffffffffff81111561128e57600080fd5b61129a84828501611202565b60008301525060206112ae848285016113b6565b602083015250604082013567ffffffffffffffff8111156112ce57600080fd5b6112da84828501611312565b604083015250606082013567ffffffffffffffff8111156112fa57600080fd5b61130684828501611312565b60608301525092915050565b60006080828403121561132457600080fd5b61132e6080611af5565b9050600082013567ffffffffffffffff81111561134a57600080fd5b61135684828501611202565b600083015250602082013567ffffffffffffffff81111561137657600080fd5b61138284828501611202565b6020830152506040611396848285016113b6565b60408301525060606113aa848285016113b6565b60608301525092915050565b6000813590506113c581611cb4565b92915050565b6000602082840312156113dd57600080fd5b60006113eb848285016111ed565b91505092915050565b60006020828403121561140657600080fd5b600082013567ffffffffffffffff81111561142057600080fd5b61142c84828501611202565b91505092915050565b6000806040838503121561144857600080fd5b600083013567ffffffffffffffff81111561146257600080fd5b61146e85828601611256565b925050602083013567ffffffffffffffff81111561148b57600080fd5b61149785828601611256565b9150509250929050565b6000602082840312156114b357600080fd5b60006114c1848285016113b6565b91505092915050565b600080604083850312156114dd57600080fd5b60006114eb858286016113b6565b92505060206114fc858286016113b6565b9150509250929050565b61150f81611bed565b82525050565b61151e81611bb7565b82525050565b600061152f82611b63565b6115398185611b6e565b9350611549818560208601611c32565b61155281611c7f565b840191505092915050565b600061156882611b63565b6115728185611b7f565b9350611582818560208601611c32565b61158b81611c7f565b840191505092915050565b6000815460018116600081146115b357600181146115d95761161d565b607f60028304166115c48187611b6e565b955060ff19831686526020860193505061161d565b600282046115e78187611b6e565b95506115f285611b4e565b60005b82811015611614578154818901526001820191506020810190506115f5565b80880195505050505b505092915050565b6000815460018116600081146116425760018114611667576116ab565b607f60028304166116538187611b90565b955060ff19831686528086019350506116ab565b600282046116758187611b90565b955061168085611b4e565b60005b828110156116a257815481890152600182019150602081019050611683565b82880195505050505b505092915050565b60006116c0600b83611b7f565b91507f4e6f206f70706f6e656e740000000000000000000000000000000000000000006000830152602082019050919050565b6000611700600d83611b7f565b91507f4e6f206368616c6c656e676572000000000000000000000000000000000000006000830152602082019050919050565b6000611740600083611b90565b9150600082019050919050565b6000608083016000830151848203600086015261176a8282611524565b915050602083015161177f6020860182611923565b50604083015184820360408601526117978282611839565b915050606083015184820360608601526117b18282611839565b9150508091505092915050565b600060808301600080840185830360008701526117db8382611596565b925050600184015490506117ee81611c65565b6117fb6020870182611923565b5060028401858303604087015261181283826118a3565b92505060068401858303606087015261182b83826118a3565b925050819250505092915050565b600060808301600083015184820360008601526118568282611524565b915050602083015184820360208601526118708282611524565b91505060408301516118856040860182611923565b5060608301516118986060860182611923565b508091505092915050565b600060808301600080840185830360008701526118c08382611596565b9250506001840185830360208701526118d98382611596565b925050600284015490506118ec81611c65565b6118f96040870182611923565b506003840154905061190a81611c65565b6119176060870182611923565b50819250505092915050565b61192c81611be3565b82525050565b61193b81611be3565b82525050565b600061194d8284611625565b915081905092915050565b600061196382611733565b9150819050919050565b60006040820190506119826000830185611506565b61198f6020830184611932565b9392505050565b60006020820190506119ab6000830184611515565b92915050565b60006040820190506119c66000830185611515565b6119d36020830184611932565b9392505050565b600060208201905081810360008301526119f4818461155d565b905092915050565b60006020820190508181036000830152611a15816116b3565b9050919050565b60006020820190508181036000830152611a35816116f3565b9050919050565b60006020820190508181036000830152611a56818461174d565b905092915050565b60006040820190508181036000830152611a78818561174d565b90508181036020830152611a8c818461174d565b90509392505050565b60006060820190508181036000830152611aaf81866117be565b90508181036020830152611ac381856117be565b9050611ad26040830184611515565b949350505050565b6000602082019050611aef6000830184611932565b92915050565b6000604051905081810181811067ffffffffffffffff82111715611b1857600080fd5b8060405250919050565b600067ffffffffffffffff821115611b3957600080fd5b601f19601f8301169050602081019050919050565b60008190508160005260206000209050919050565b600081519050919050565b600082825260208201905092915050565b600082825260208201905092915050565b600081905092915050565b6000819050919050565b6000611bb082611bc3565b9050919050565b60008115159050919050565b600073ffffffffffffffffffffffffffffffffffffffff82169050919050565b6000819050919050565b6000611bf882611bff565b9050919050565b6000611c0a82611c11565b9050919050565b6000611c1c82611bc3565b9050919050565b82818337600083830152505050565b60005b83811015611c50578082015181840152602081019050611c35565b83811115611c5f576000848401525b50505050565b6000611c78611c7383611c90565b611b9b565b9050919050565b6000601f19601f8301169050919050565b60008160001c9050919050565b611ca681611ba5565b8114611cb157600080fd5b50565b611cbd81611be3565b8114611cc857600080fd5b5056fea2646970667358221220940e7ffc7cd2e57d102ec34600c01b4fcd8fa0e357033d38751b45cc04fb441d64736f6c634300060c0033",
  "immutableReferences": {},
  "source": "/// Based on https://solidity.readthedocs.io/en/develop/natspec-format.html\n\npragma solidity ^0.6.0;\npragma experimental ABIEncoderV2;\n\n/// @title A arena for a 1 on 1 battle\n/// @author Jeffrey Lo-A-Foe\n/// @notice You can use this contract for a simple one on one battle \n/// @dev All function calls are currently implemented without side effects\ncontract HeroesMatch2 {\n\nstring  public temp;\nuint256 public priceOfUrl;\nstring public season;\n\nmodifier minAmount(uint _amount){ require(msg.value >= _amount, \"MORE STAKE NEEDED\"); _;}\n\n    struct Match {\n        HeroesClass challenger;\n        HeroesClass opponent;\n    }\n\n    struct HeroesClass {\n        string name;\n        uint rarity;\n        SkillClass skill_1;\n        SkillClass skill_2;\n    }\n\n    struct SkillClass {\n        string skill_name;\n        string description;\n        uint min_skill_damage;\n        uint max_skill_damage;\n    }    \n\n    event RoundWinner(HeroesClass challenger, HeroesClass opponent, bool result) ;\n    event ReceivedItem(address player, uint item);\n\n    mapping(address => Match) public ownerToMatch;\n\n    constructor() public payable{}\n\n    function setSeason(string memory _season) public {\n        season = _season;\n    }\n\n    function getReward(uint item) public{\n        emit ReceivedItem(msg.sender, item);\n    }\n\n    /// @notice set the fighting arena and say who battles who\n    /// @dev extend\n    /// @param _opponent contains of name skill damage\n    /// @param _challenger contains of name skill damage\n    /// @return _challenger give back what character is made\n    //Set the fight arena\n    function initFight(HeroesClass memory _challenger, HeroesClass memory _opponent) public returns (HeroesClass memory) {\n        ownerToMatch[msg.sender] = Match(_challenger,_opponent);\n        return _challenger;\n    }\n\n    /// @notice calculate the winning state\n    /// @dev extend\n    /// @param randomNumberChallenger The numbers are random generated from the dApp\n    /// @param randomNumberOpponent The numbers are random generated from the dApp\n    /// @return did challenger win and how much dmg is done\n    //Start the fight and determine damage.\n    function beginFight(uint randomNumberChallenger, uint randomNumberOpponent) public returns (bool, uint){\n        //No challenger or opponent\n        require(keccak256(abi.encodePacked(ownerToMatch[msg.sender].challenger.name)) != keccak256(abi.encodePacked(\"\")), \"No challenger\");\n        require(keccak256(abi.encodePacked(ownerToMatch[msg.sender].opponent.name)) != keccak256(abi.encodePacked(\"\")), \"No opponent\");\n\n        bool winner = didChallengerWin(randomNumberChallenger, randomNumberOpponent);\n\n        //Give result and the amount of damage\n        if(winner) {\n            return (true, ownerToMatch[msg.sender].challenger.skill_1.min_skill_damage);\n        }\n        else {\n            return (false, ownerToMatch[msg.sender].opponent.skill_2.min_skill_damage);\n        }\n    }\n    /// @notice announce the winner in the event log\n    /// @dev extend\n    /// @param randomNumberChallenger The numbers are random generated from the dApp\n    /// @param randomNumberOpponent The numbers are random generated from the dApp\n    /// @return did challenger win\n    //Determine who wins the fight\n    function didChallengerWin(uint randomNumberChallenger, uint randomNumberOpponent) public returns(bool) {\n        if(randomNumberChallenger > randomNumberOpponent) {\n            emit RoundWinner(ownerToMatch[msg.sender].challenger, ownerToMatch[msg.sender].opponent, true);\n            return true;\n        }\n        else {\n            emit RoundWinner(ownerToMatch[msg.sender].challenger, ownerToMatch[msg.sender].opponent, false);\n            return false;\n        }\n    }\n}",
  "sourcePath": "/home/jeffrey/token/inleveren/BC3_Jeffrey/PD-08/ChainsGathering/dapp/contracts/Match2.sol",
  "compiler": {
    "name": "solc",
    "version": "0.6.12+commit.27d51765.Emscripten.clang"
  },
  "schemaVersion": "3.3.2",
  "updatedAt": "2020-12-22T22:34:30.830Z",
  "networkType": "ethereum",
  "devdoc": {
    "author": "Jeffrey Lo-A-Foe",
    "details": "All function calls are currently implemented without side effects",
    "kind": "dev",
    "methods": {
      "beginFight(uint256,uint256)": {
        "details": "extend",
        "params": {
          "randomNumberChallenger": "The numbers are random generated from the dApp",
          "randomNumberOpponent": "The numbers are random generated from the dApp"
        },
        "returns": {
          "_0": "did challenger win and how much dmg is done"
        }
      },
      "didChallengerWin(uint256,uint256)": {
        "details": "extend",
        "params": {
          "randomNumberChallenger": "The numbers are random generated from the dApp",
          "randomNumberOpponent": "The numbers are random generated from the dApp"
        },
        "returns": {
          "_0": "did challenger win"
        }
      },
      "initFight((string,uint256,(string,string,uint256,uint256),(string,string,uint256,uint256)),(string,uint256,(string,string,uint256,uint256),(string,string,uint256,uint256)))": {
        "details": "extend",
        "params": {
          "_challenger": "contains of name skill damage",
          "_opponent": "contains of name skill damage"
        },
        "returns": {
          "_0": "_challenger give back what character is made"
        }
      }
    },
    "title": "A arena for a 1 on 1 battle",
    "version": 1
  },
  "userdoc": {
    "kind": "user",
    "methods": {
      "beginFight(uint256,uint256)": {
        "notice": "calculate the winning state"
      },
      "didChallengerWin(uint256,uint256)": {
        "notice": "announce the winner in the event log"
      },
      "initFight((string,uint256,(string,string,uint256,uint256),(string,string,uint256,uint256)),(string,uint256,(string,string,uint256,uint256),(string,string,uint256,uint256)))": {
        "notice": "set the fighting arena and say who battles who"
      }
    },
    "notice": "You can use this contract for a simple one on one battle ",
    "version": 1
  }
}