{
  "contractName": "Heroes",
  "abi": [
    {
      "inputs": [],
      "stateMutability": "nonpayable",
      "type": "constructor"
    },
    {
      "inputs": [
        {
          "components": [
            {
              "internalType": "string",
              "name": "skill_name",
              "type": "string"
            },
            {
              "internalType": "string",
              "name": "description",
              "type": "string"
            },
            {
              "internalType": "uint256",
              "name": "min_skill_damage",
              "type": "uint256"
            },
            {
              "internalType": "uint256",
              "name": "max_skill_damage",
              "type": "uint256"
            }
          ],
          "internalType": "struct Skill.SkillClass",
          "name": "skill",
          "type": "tuple"
        }
      ],
      "name": "increaseSkillDamage",
      "outputs": [
        {
          "components": [
            {
              "internalType": "string",
              "name": "skill_name",
              "type": "string"
            },
            {
              "internalType": "string",
              "name": "description",
              "type": "string"
            },
            {
              "internalType": "uint256",
              "name": "min_skill_damage",
              "type": "uint256"
            },
            {
              "internalType": "uint256",
              "name": "max_skill_damage",
              "type": "uint256"
            }
          ],
          "internalType": "struct Skill.SkillClass",
          "name": "",
          "type": "tuple"
        }
      ],
      "stateMutability": "nonpayable",
      "type": "function"
    },
    {
      "inputs": [
        {
          "components": [
            {
              "internalType": "string",
              "name": "name",
              "type": "string"
            },
            {
              "internalType": "uint256",
              "name": "rarity",
              "type": "uint256"
            },
            {
              "components": [
                {
                  "internalType": "string",
                  "name": "skill_name",
                  "type": "string"
                },
                {
                  "internalType": "string",
                  "name": "description",
                  "type": "string"
                },
                {
                  "internalType": "uint256",
                  "name": "min_skill_damage",
                  "type": "uint256"
                },
                {
                  "internalType": "uint256",
                  "name": "max_skill_damage",
                  "type": "uint256"
                }
              ],
              "internalType": "struct Skill.SkillClass",
              "name": "skill_1",
              "type": "tuple"
            },
            {
              "components": [
                {
                  "internalType": "string",
                  "name": "skill_name",
                  "type": "string"
                },
                {
                  "internalType": "string",
                  "name": "description",
                  "type": "string"
                },
                {
                  "internalType": "uint256",
                  "name": "min_skill_damage",
                  "type": "uint256"
                },
                {
                  "internalType": "uint256",
                  "name": "max_skill_damage",
                  "type": "uint256"
                }
              ],
              "internalType": "struct Skill.SkillClass",
              "name": "skill_2",
              "type": "tuple"
            }
          ],
          "internalType": "struct Heroes.HeroesClass",
          "name": "hero",
          "type": "tuple"
        }
      ],
      "name": "increaseRarity",
      "outputs": [
        {
          "components": [
            {
              "internalType": "string",
              "name": "name",
              "type": "string"
            },
            {
              "internalType": "uint256",
              "name": "rarity",
              "type": "uint256"
            },
            {
              "components": [
                {
                  "internalType": "string",
                  "name": "skill_name",
                  "type": "string"
                },
                {
                  "internalType": "string",
                  "name": "description",
                  "type": "string"
                },
                {
                  "internalType": "uint256",
                  "name": "min_skill_damage",
                  "type": "uint256"
                },
                {
                  "internalType": "uint256",
                  "name": "max_skill_damage",
                  "type": "uint256"
                }
              ],
              "internalType": "struct Skill.SkillClass",
              "name": "skill_1",
              "type": "tuple"
            },
            {
              "components": [
                {
                  "internalType": "string",
                  "name": "skill_name",
                  "type": "string"
                },
                {
                  "internalType": "string",
                  "name": "description",
                  "type": "string"
                },
                {
                  "internalType": "uint256",
                  "name": "min_skill_damage",
                  "type": "uint256"
                },
                {
                  "internalType": "uint256",
                  "name": "max_skill_damage",
                  "type": "uint256"
                }
              ],
              "internalType": "struct Skill.SkillClass",
              "name": "skill_2",
              "type": "tuple"
            }
          ],
          "internalType": "struct Heroes.HeroesClass",
          "name": "",
          "type": "tuple"
        }
      ],
      "stateMutability": "nonpayable",
      "type": "function"
    },
    {
      "inputs": [
        {
          "internalType": "uint256",
          "name": "number",
          "type": "uint256"
        },
        {
          "components": [
            {
              "internalType": "string",
              "name": "skill_name",
              "type": "string"
            },
            {
              "internalType": "string",
              "name": "description",
              "type": "string"
            },
            {
              "internalType": "uint256",
              "name": "min_skill_damage",
              "type": "uint256"
            },
            {
              "internalType": "uint256",
              "name": "max_skill_damage",
              "type": "uint256"
            }
          ],
          "internalType": "struct Skill.SkillClass",
          "name": "skill",
          "type": "tuple"
        },
        {
          "components": [
            {
              "internalType": "string",
              "name": "name",
              "type": "string"
            },
            {
              "internalType": "uint256",
              "name": "rarity",
              "type": "uint256"
            },
            {
              "components": [
                {
                  "internalType": "string",
                  "name": "skill_name",
                  "type": "string"
                },
                {
                  "internalType": "string",
                  "name": "description",
                  "type": "string"
                },
                {
                  "internalType": "uint256",
                  "name": "min_skill_damage",
                  "type": "uint256"
                },
                {
                  "internalType": "uint256",
                  "name": "max_skill_damage",
                  "type": "uint256"
                }
              ],
              "internalType": "struct Skill.SkillClass",
              "name": "skill_1",
              "type": "tuple"
            },
            {
              "components": [
                {
                  "internalType": "string",
                  "name": "skill_name",
                  "type": "string"
                },
                {
                  "internalType": "string",
                  "name": "description",
                  "type": "string"
                },
                {
                  "internalType": "uint256",
                  "name": "min_skill_damage",
                  "type": "uint256"
                },
                {
                  "internalType": "uint256",
                  "name": "max_skill_damage",
                  "type": "uint256"
                }
              ],
              "internalType": "struct Skill.SkillClass",
              "name": "skill_2",
              "type": "tuple"
            }
          ],
          "internalType": "struct Heroes.HeroesClass",
          "name": "hero",
          "type": "tuple"
        }
      ],
      "name": "changeSkill",
      "outputs": [
        {
          "components": [
            {
              "internalType": "string",
              "name": "name",
              "type": "string"
            },
            {
              "internalType": "uint256",
              "name": "rarity",
              "type": "uint256"
            },
            {
              "components": [
                {
                  "internalType": "string",
                  "name": "skill_name",
                  "type": "string"
                },
                {
                  "internalType": "string",
                  "name": "description",
                  "type": "string"
                },
                {
                  "internalType": "uint256",
                  "name": "min_skill_damage",
                  "type": "uint256"
                },
                {
                  "internalType": "uint256",
                  "name": "max_skill_damage",
                  "type": "uint256"
                }
              ],
              "internalType": "struct Skill.SkillClass",
              "name": "skill_1",
              "type": "tuple"
            },
            {
              "components": [
                {
                  "internalType": "string",
                  "name": "skill_name",
                  "type": "string"
                },
                {
                  "internalType": "string",
                  "name": "description",
                  "type": "string"
                },
                {
                  "internalType": "uint256",
                  "name": "min_skill_damage",
                  "type": "uint256"
                },
                {
                  "internalType": "uint256",
                  "name": "max_skill_damage",
                  "type": "uint256"
                }
              ],
              "internalType": "struct Skill.SkillClass",
              "name": "skill_2",
              "type": "tuple"
            }
          ],
          "internalType": "struct Heroes.HeroesClass",
          "name": "",
          "type": "tuple"
        }
      ],
      "stateMutability": "nonpayable",
      "type": "function"
    }
  ],
  "bytecode": "0x608060405234801561001057600080fd5b50610772806100206000396000f3fe608060405234801561001057600080fd5b50600436106100415760003560e01c80630f1ff7c714610046578063349b959114610076578063882c2a43146100a6575b600080fd5b610060600480360381019061005b9190610381565b6100d6565b60405161006d919061060f565b60405180910390f35b610090600480360381019061008b91906103c2565b6100f7565b60405161009d9190610631565b60405180910390f35b6100c060048036038101906100bb9190610403565b610129565b6040516100cd919061060f565b60405180910390f35b6100de61015c565b6001826020018181510191508181525050819050919050565b6100ff610190565b600a826040018181510191508181525050600a826060018181510191508181525050819050919050565b61013161015c565b600184111561014857828260600181905250610152565b8282604001819052505b8190509392505050565b6040518060800160405280606081526020016000815260200161017d610190565b815260200161018a610190565b81525090565b6040518060800160405280606081526020016060815260200160008152602001600081525090565b600082601f8301126101c957600080fd5b81356101dc6101d782610680565b610653565b915080825260208301602083018583830111156101f857600080fd5b6102038382846106d2565b50505092915050565b60006080828403121561021e57600080fd5b6102286080610653565b9050600082013567ffffffffffffffff81111561024457600080fd5b610250848285016101b8565b60008301525060206102648482850161036c565b602083015250604082013567ffffffffffffffff81111561028457600080fd5b610290848285016102c8565b604083015250606082013567ffffffffffffffff8111156102b057600080fd5b6102bc848285016102c8565b60608301525092915050565b6000608082840312156102da57600080fd5b6102e46080610653565b9050600082013567ffffffffffffffff81111561030057600080fd5b61030c848285016101b8565b600083015250602082013567ffffffffffffffff81111561032c57600080fd5b610338848285016101b8565b602083015250604061034c8482850161036c565b60408301525060606103608482850161036c565b60608301525092915050565b60008135905061037b81610725565b92915050565b60006020828403121561039357600080fd5b600082013567ffffffffffffffff8111156103ad57600080fd5b6103b98482850161020c565b91505092915050565b6000602082840312156103d457600080fd5b600082013567ffffffffffffffff8111156103ee57600080fd5b6103fa848285016102c8565b91505092915050565b60008060006060848603121561041857600080fd5b60006104268682870161036c565b935050602084013567ffffffffffffffff81111561044357600080fd5b61044f868287016102c8565b925050604084013567ffffffffffffffff81111561046c57600080fd5b6104788682870161020c565b9150509250925092565b600061048d826106ac565b61049781856106b7565b93506104a78185602086016106e1565b6104b081610714565b840191505092915050565b600060808301600083015184820360008601526104d88282610482565b91505060208301516104ed6020860182610600565b5060408301518482036040860152610505828261052c565b9150506060830151848203606086015261051f828261052c565b9150508091505092915050565b600060808301600083015184820360008601526105498282610482565b915050602083015184820360208601526105638282610482565b91505060408301516105786040860182610600565b50606083015161058b6060860182610600565b508091505092915050565b600060808301600083015184820360008601526105b38282610482565b915050602083015184820360208601526105cd8282610482565b91505060408301516105e26040860182610600565b5060608301516105f56060860182610600565b508091505092915050565b610609816106c8565b82525050565b6000602082019050818103600083015261062981846104bb565b905092915050565b6000602082019050818103600083015261064b8184610596565b905092915050565b6000604051905081810181811067ffffffffffffffff8211171561067657600080fd5b8060405250919050565b600067ffffffffffffffff82111561069757600080fd5b601f19601f8301169050602081019050919050565b600081519050919050565b600082825260208201905092915050565b6000819050919050565b82818337600083830152505050565b60005b838110156106ff5780820151818401526020810190506106e4565b8381111561070e576000848401525b50505050565b6000601f19601f8301169050919050565b61072e816106c8565b811461073957600080fd5b5056fea26469706673582212204bf997e3e25a7243e98cbfd1855a3f7142e995510fff4014022864dffe0a68a864736f6c634300060c0033",
  "immutableReferences": {},
  "source": "pragma solidity ^0.6.0;\npragma experimental ABIEncoderV2;\n\nimport \"./Skill.sol\";\n\ncontract Heroes is Skill{\n\n    struct HeroesClass {\n        string name;\n        uint rarity;\n        SkillClass skill_1;\n        SkillClass skill_2;\n    }\n\n    function increaseRarity(HeroesClass memory hero) public returns (HeroesClass memory) {\n        hero.rarity += 1;\n        return hero;\n    }\n\n    function changeSkill(uint number, SkillClass memory skill, HeroesClass memory hero) public returns (HeroesClass memory) {\n        if(number > 1){\n            hero.skill_2 = skill;\n        }\n        else{\n            hero.skill_1 = skill;\n        }\n        return hero;\n    }\n\n    constructor() public {}\n\n}",
  "sourcePath": "/home/jeffrey/token/ChainsGathering/dapp/contracts/Heroes.sol",
  "compiler": {
    "name": "solc",
    "version": "0.6.12+commit.27d51765.Emscripten.clang"
  },
  "schemaVersion": "3.3.2",
  "updatedAt": "2020-12-01T14:41:39.623Z",
  "devdoc": {
    "kind": "dev",
    "methods": {},
    "version": 1
  },
  "userdoc": {
    "kind": "user",
    "methods": {},
    "version": 1
  }
}