{
  "contractName": "HeroesMatch",
  "abi": [
    {
      "inputs": [],
      "stateMutability": "nonpayable",
      "type": "constructor"
    },
    {
      "anonymous": false,
      "inputs": [
        {
          "components": [
            {
              "internalType": "string",
              "name": "name",
              "type": "string"
            },
            {
              "internalType": "uint256",
              "name": "rarity",
              "type": "uint256"
            },
            {
              "components": [
                {
                  "internalType": "string",
                  "name": "skill_name",
                  "type": "string"
                },
                {
                  "internalType": "string",
                  "name": "description",
                  "type": "string"
                },
                {
                  "internalType": "uint256",
                  "name": "min_skill_damage",
                  "type": "uint256"
                },
                {
                  "internalType": "uint256",
                  "name": "max_skill_damage",
                  "type": "uint256"
                }
              ],
              "internalType": "struct HeroesMatch.SkillClass",
              "name": "skill_1",
              "type": "tuple"
            },
            {
              "components": [
                {
                  "internalType": "string",
                  "name": "skill_name",
                  "type": "string"
                },
                {
                  "internalType": "string",
                  "name": "description",
                  "type": "string"
                },
                {
                  "internalType": "uint256",
                  "name": "min_skill_damage",
                  "type": "uint256"
                },
                {
                  "internalType": "uint256",
                  "name": "max_skill_damage",
                  "type": "uint256"
                }
              ],
              "internalType": "struct HeroesMatch.SkillClass",
              "name": "skill_2",
              "type": "tuple"
            }
          ],
          "indexed": false,
          "internalType": "struct HeroesMatch.HeroesClass",
          "name": "challenger",
          "type": "tuple"
        },
        {
          "components": [
            {
              "internalType": "string",
              "name": "name",
              "type": "string"
            },
            {
              "internalType": "uint256",
              "name": "rarity",
              "type": "uint256"
            },
            {
              "components": [
                {
                  "internalType": "string",
                  "name": "skill_name",
                  "type": "string"
                },
                {
                  "internalType": "string",
                  "name": "description",
                  "type": "string"
                },
                {
                  "internalType": "uint256",
                  "name": "min_skill_damage",
                  "type": "uint256"
                },
                {
                  "internalType": "uint256",
                  "name": "max_skill_damage",
                  "type": "uint256"
                }
              ],
              "internalType": "struct HeroesMatch.SkillClass",
              "name": "skill_1",
              "type": "tuple"
            },
            {
              "components": [
                {
                  "internalType": "string",
                  "name": "skill_name",
                  "type": "string"
                },
                {
                  "internalType": "string",
                  "name": "description",
                  "type": "string"
                },
                {
                  "internalType": "uint256",
                  "name": "min_skill_damage",
                  "type": "uint256"
                },
                {
                  "internalType": "uint256",
                  "name": "max_skill_damage",
                  "type": "uint256"
                }
              ],
              "internalType": "struct HeroesMatch.SkillClass",
              "name": "skill_2",
              "type": "tuple"
            }
          ],
          "indexed": false,
          "internalType": "struct HeroesMatch.HeroesClass",
          "name": "opponent",
          "type": "tuple"
        },
        {
          "indexed": false,
          "internalType": "bool",
          "name": "result",
          "type": "bool"
        }
      ],
      "name": "RoundWinner",
      "type": "event"
    },
    {
      "inputs": [
        {
          "internalType": "address",
          "name": "",
          "type": "address"
        }
      ],
      "name": "ownerToMatch",
      "outputs": [
        {
          "components": [
            {
              "internalType": "string",
              "name": "name",
              "type": "string"
            },
            {
              "internalType": "uint256",
              "name": "rarity",
              "type": "uint256"
            },
            {
              "components": [
                {
                  "internalType": "string",
                  "name": "skill_name",
                  "type": "string"
                },
                {
                  "internalType": "string",
                  "name": "description",
                  "type": "string"
                },
                {
                  "internalType": "uint256",
                  "name": "min_skill_damage",
                  "type": "uint256"
                },
                {
                  "internalType": "uint256",
                  "name": "max_skill_damage",
                  "type": "uint256"
                }
              ],
              "internalType": "struct HeroesMatch.SkillClass",
              "name": "skill_1",
              "type": "tuple"
            },
            {
              "components": [
                {
                  "internalType": "string",
                  "name": "skill_name",
                  "type": "string"
                },
                {
                  "internalType": "string",
                  "name": "description",
                  "type": "string"
                },
                {
                  "internalType": "uint256",
                  "name": "min_skill_damage",
                  "type": "uint256"
                },
                {
                  "internalType": "uint256",
                  "name": "max_skill_damage",
                  "type": "uint256"
                }
              ],
              "internalType": "struct HeroesMatch.SkillClass",
              "name": "skill_2",
              "type": "tuple"
            }
          ],
          "internalType": "struct HeroesMatch.HeroesClass",
          "name": "challenger",
          "type": "tuple"
        },
        {
          "components": [
            {
              "internalType": "string",
              "name": "name",
              "type": "string"
            },
            {
              "internalType": "uint256",
              "name": "rarity",
              "type": "uint256"
            },
            {
              "components": [
                {
                  "internalType": "string",
                  "name": "skill_name",
                  "type": "string"
                },
                {
                  "internalType": "string",
                  "name": "description",
                  "type": "string"
                },
                {
                  "internalType": "uint256",
                  "name": "min_skill_damage",
                  "type": "uint256"
                },
                {
                  "internalType": "uint256",
                  "name": "max_skill_damage",
                  "type": "uint256"
                }
              ],
              "internalType": "struct HeroesMatch.SkillClass",
              "name": "skill_1",
              "type": "tuple"
            },
            {
              "components": [
                {
                  "internalType": "string",
                  "name": "skill_name",
                  "type": "string"
                },
                {
                  "internalType": "string",
                  "name": "description",
                  "type": "string"
                },
                {
                  "internalType": "uint256",
                  "name": "min_skill_damage",
                  "type": "uint256"
                },
                {
                  "internalType": "uint256",
                  "name": "max_skill_damage",
                  "type": "uint256"
                }
              ],
              "internalType": "struct HeroesMatch.SkillClass",
              "name": "skill_2",
              "type": "tuple"
            }
          ],
          "internalType": "struct HeroesMatch.HeroesClass",
          "name": "opponent",
          "type": "tuple"
        }
      ],
      "stateMutability": "view",
      "type": "function",
      "constant": true
    },
    {
      "inputs": [
        {
          "components": [
            {
              "internalType": "string",
              "name": "name",
              "type": "string"
            },
            {
              "internalType": "uint256",
              "name": "rarity",
              "type": "uint256"
            },
            {
              "components": [
                {
                  "internalType": "string",
                  "name": "skill_name",
                  "type": "string"
                },
                {
                  "internalType": "string",
                  "name": "description",
                  "type": "string"
                },
                {
                  "internalType": "uint256",
                  "name": "min_skill_damage",
                  "type": "uint256"
                },
                {
                  "internalType": "uint256",
                  "name": "max_skill_damage",
                  "type": "uint256"
                }
              ],
              "internalType": "struct HeroesMatch.SkillClass",
              "name": "skill_1",
              "type": "tuple"
            },
            {
              "components": [
                {
                  "internalType": "string",
                  "name": "skill_name",
                  "type": "string"
                },
                {
                  "internalType": "string",
                  "name": "description",
                  "type": "string"
                },
                {
                  "internalType": "uint256",
                  "name": "min_skill_damage",
                  "type": "uint256"
                },
                {
                  "internalType": "uint256",
                  "name": "max_skill_damage",
                  "type": "uint256"
                }
              ],
              "internalType": "struct HeroesMatch.SkillClass",
              "name": "skill_2",
              "type": "tuple"
            }
          ],
          "internalType": "struct HeroesMatch.HeroesClass",
          "name": "_challenger",
          "type": "tuple"
        },
        {
          "components": [
            {
              "internalType": "string",
              "name": "name",
              "type": "string"
            },
            {
              "internalType": "uint256",
              "name": "rarity",
              "type": "uint256"
            },
            {
              "components": [
                {
                  "internalType": "string",
                  "name": "skill_name",
                  "type": "string"
                },
                {
                  "internalType": "string",
                  "name": "description",
                  "type": "string"
                },
                {
                  "internalType": "uint256",
                  "name": "min_skill_damage",
                  "type": "uint256"
                },
                {
                  "internalType": "uint256",
                  "name": "max_skill_damage",
                  "type": "uint256"
                }
              ],
              "internalType": "struct HeroesMatch.SkillClass",
              "name": "skill_1",
              "type": "tuple"
            },
            {
              "components": [
                {
                  "internalType": "string",
                  "name": "skill_name",
                  "type": "string"
                },
                {
                  "internalType": "string",
                  "name": "description",
                  "type": "string"
                },
                {
                  "internalType": "uint256",
                  "name": "min_skill_damage",
                  "type": "uint256"
                },
                {
                  "internalType": "uint256",
                  "name": "max_skill_damage",
                  "type": "uint256"
                }
              ],
              "internalType": "struct HeroesMatch.SkillClass",
              "name": "skill_2",
              "type": "tuple"
            }
          ],
          "internalType": "struct HeroesMatch.HeroesClass",
          "name": "_opponent",
          "type": "tuple"
        }
      ],
      "name": "initFight",
      "outputs": [
        {
          "components": [
            {
              "internalType": "string",
              "name": "name",
              "type": "string"
            },
            {
              "internalType": "uint256",
              "name": "rarity",
              "type": "uint256"
            },
            {
              "components": [
                {
                  "internalType": "string",
                  "name": "skill_name",
                  "type": "string"
                },
                {
                  "internalType": "string",
                  "name": "description",
                  "type": "string"
                },
                {
                  "internalType": "uint256",
                  "name": "min_skill_damage",
                  "type": "uint256"
                },
                {
                  "internalType": "uint256",
                  "name": "max_skill_damage",
                  "type": "uint256"
                }
              ],
              "internalType": "struct HeroesMatch.SkillClass",
              "name": "skill_1",
              "type": "tuple"
            },
            {
              "components": [
                {
                  "internalType": "string",
                  "name": "skill_name",
                  "type": "string"
                },
                {
                  "internalType": "string",
                  "name": "description",
                  "type": "string"
                },
                {
                  "internalType": "uint256",
                  "name": "min_skill_damage",
                  "type": "uint256"
                },
                {
                  "internalType": "uint256",
                  "name": "max_skill_damage",
                  "type": "uint256"
                }
              ],
              "internalType": "struct HeroesMatch.SkillClass",
              "name": "skill_2",
              "type": "tuple"
            }
          ],
          "internalType": "struct HeroesMatch.HeroesClass",
          "name": "",
          "type": "tuple"
        }
      ],
      "stateMutability": "nonpayable",
      "type": "function"
    },
    {
      "inputs": [
        {
          "internalType": "uint256",
          "name": "randomNumberChallenger",
          "type": "uint256"
        },
        {
          "internalType": "uint256",
          "name": "randomNumberOpponent",
          "type": "uint256"
        }
      ],
      "name": "beginFight",
      "outputs": [
        {
          "internalType": "bool",
          "name": "",
          "type": "bool"
        },
        {
          "internalType": "uint256",
          "name": "",
          "type": "uint256"
        }
      ],
      "stateMutability": "nonpayable",
      "type": "function"
    },
    {
      "inputs": [
        {
          "internalType": "uint256",
          "name": "randomNumberChallenger",
          "type": "uint256"
        },
        {
          "internalType": "uint256",
          "name": "randomNumberOpponent",
          "type": "uint256"
        }
      ],
      "name": "didChallengerWin",
      "outputs": [
        {
          "internalType": "bool",
          "name": "",
          "type": "bool"
        }
      ],
      "stateMutability": "nonpayable",
      "type": "function"
    }
  ],
  "bytecode": "0x608060405234801561001057600080fd5b50611939806100206000396000f3fe608060405234801561001057600080fd5b506004361061004c5760003560e01c8063580dad8d146100515780638668a50c14610081578063ae025c0c146100b2578063df16e362146100e3575b600080fd5b61006b6004803603810190610066919061117a565b610113565b60405161007891906116c5565b60405180910390f35b61009b600480360381019061009691906111e6565b610342565b6040516100a992919061165c565b60405180910390f35b6100cc60048036038101906100c79190611151565b6105a4565b6040516100da9291906116e7565b60405180910390f35b6100fd60048036038101906100f891906111e6565b610ce4565b60405161010a9190611641565b60405180910390f35b61011b610e7a565b6040518060400160405280848152602001838152506000803373ffffffffffffffffffffffffffffffffffffffff1673ffffffffffffffffffffffffffffffffffffffff1681526020019081526020016000206000820151816000016000820151816000019080519060200190610193929190610eae565b506020820151816001015560408201518160020160008201518160000190805190602001906101c3929190610eae565b5060208201518160010190805190602001906101e0929190610eae565b5060408201518160020155606082015181600301555050606082015181600601600082015181600001908051906020019061021c929190610eae565b506020820151816001019080519060200190610239929190610eae565b50604082015181600201556060820151816003015550505050602082015181600a016000820151816000019080519060200190610277929190610eae565b506020820151816001015560408201518160020160008201518160000190805190602001906102a7929190610eae565b5060208201518160010190805190602001906102c4929190610eae565b50604082015181600201556060820151816003015550506060820151816006016000820151816000019080519060200190610300929190610eae565b50602082015181600101908051906020019061031d929190610eae565b5060408201518160020155606082015181600301555050505090505082905092915050565b6000806040516020016103549061162c565b604051602081830303815290604052805190602001206000803373ffffffffffffffffffffffffffffffffffffffff1673ffffffffffffffffffffffffffffffffffffffff1681526020019081526020016000206000016000016040516020016103be9190611615565b604051602081830303815290604052805190602001201415610415576040517f08c379a000000000000000000000000000000000000000000000000000000000815260040161040c906116a5565b60405180910390fd5b6040516020016104249061162c565b604051602081830303815290604052805190602001206000803373ffffffffffffffffffffffffffffffffffffffff1673ffffffffffffffffffffffffffffffffffffffff168152602001908152602001600020600a0160000160405160200161048e9190611615565b6040516020818303038152906040528051906020012014156104e5576040517f08c379a00000000000000000000000000000000000000000000000000000000081526004016104dc90611685565b60405180910390fd5b60006104f18585610ce4565b9050801561054d5760016000803373ffffffffffffffffffffffffffffffffffffffff1673ffffffffffffffffffffffffffffffffffffffff16815260200190815260200160002060000160020160020154925092505061059d565b60008060003373ffffffffffffffffffffffffffffffffffffffff1673ffffffffffffffffffffffffffffffffffffffff168152602001908152602001600020600a016006016002015492509250505b9250929050565b600060205280600052604060002060009150905080600001604051806080016040529081600082018054600181600116156101000203166002900480601f0160208091040260200160405190810160405280929190818152602001828054600181600116156101000203166002900480156106605780601f1061063557610100808354040283529160200191610660565b820191906000526020600020905b81548152906001019060200180831161064357829003601f168201915b505050505081526020016001820154815260200160028201604051806080016040529081600082018054600181600116156101000203166002900480601f01602080910402602001604051908101604052809291908181526020018280546001816001161561010002031660029004801561071c5780601f106106f15761010080835404028352916020019161071c565b820191906000526020600020905b8154815290600101906020018083116106ff57829003601f168201915b50505050508152602001600182018054600181600116156101000203166002900480601f0160208091040260200160405190810160405280929190818152602001828054600181600116156101000203166002900480156107be5780601f10610793576101008083540402835291602001916107be565b820191906000526020600020905b8154815290600101906020018083116107a157829003601f168201915b5050505050815260200160028201548152602001600382015481525050815260200160068201604051806080016040529081600082018054600181600116156101000203166002900480601f0160208091040260200160405190810160405280929190818152602001828054600181600116156101000203166002900480156108885780601f1061085d57610100808354040283529160200191610888565b820191906000526020600020905b81548152906001019060200180831161086b57829003601f168201915b50505050508152602001600182018054600181600116156101000203166002900480601f01602080910402602001604051908101604052809291908181526020018280546001816001161561010002031660029004801561092a5780601f106108ff5761010080835404028352916020019161092a565b820191906000526020600020905b81548152906001019060200180831161090d57829003601f168201915b5050505050815260200160028201548152602001600382015481525050815250509080600a01604051806080016040529081600082018054600181600116156101000203166002900480601f0160208091040260200160405190810160405280929190818152602001828054600181600116156101000203166002900480156109f45780601f106109c9576101008083540402835291602001916109f4565b820191906000526020600020905b8154815290600101906020018083116109d757829003601f168201915b505050505081526020016001820154815260200160028201604051806080016040529081600082018054600181600116156101000203166002900480601f016020809104026020016040519081016040528092919081815260200182805460018160011615610100020316600290048015610ab05780601f10610a8557610100808354040283529160200191610ab0565b820191906000526020600020905b815481529060010190602001808311610a9357829003601f168201915b50505050508152602001600182018054600181600116156101000203166002900480601f016020809104026020016040519081016040528092919081815260200182805460018160011615610100020316600290048015610b525780601f10610b2757610100808354040283529160200191610b52565b820191906000526020600020905b815481529060010190602001808311610b3557829003601f168201915b5050505050815260200160028201548152602001600382015481525050815260200160068201604051806080016040529081600082018054600181600116156101000203166002900480601f016020809104026020016040519081016040528092919081815260200182805460018160011615610100020316600290048015610c1c5780601f10610bf157610100808354040283529160200191610c1c565b820191906000526020600020905b815481529060010190602001808311610bff57829003601f168201915b50505050508152602001600182018054600181600116156101000203166002900480601f016020809104026020016040519081016040528092919081815260200182805460018160011615610100020316600290048015610cbe5780601f10610c9357610100808354040283529160200191610cbe565b820191906000526020600020905b815481529060010190602001808311610ca157829003601f168201915b505050505081526020016002820154815260200160038201548152505081525050905082565b600081831115610db3577fbc4b92d339fc9a0c95f60c056c191fea7200e8580924dc0a223bfaa7ab8c1e676000803373ffffffffffffffffffffffffffffffffffffffff1673ffffffffffffffffffffffffffffffffffffffff1681526020019081526020016000206000016000803373ffffffffffffffffffffffffffffffffffffffff1673ffffffffffffffffffffffffffffffffffffffff168152602001908152602001600020600a016001604051610da29392919061171e565b60405180910390a160019050610e74565b7fbc4b92d339fc9a0c95f60c056c191fea7200e8580924dc0a223bfaa7ab8c1e676000803373ffffffffffffffffffffffffffffffffffffffff1673ffffffffffffffffffffffffffffffffffffffff1681526020019081526020016000206000016000803373ffffffffffffffffffffffffffffffffffffffff1673ffffffffffffffffffffffffffffffffffffffff168152602001908152602001600020600a016000604051610e679392919061171e565b60405180910390a1600090505b92915050565b60405180608001604052806060815260200160008152602001610e9b610f2e565b8152602001610ea8610f2e565b81525090565b828054600181600116156101000203166002900490600052602060002090601f016020900481019282601f10610eef57805160ff1916838001178555610f1d565b82800160010185558215610f1d579182015b82811115610f1c578251825591602001919060010190610f01565b5b509050610f2a9190610f56565b5090565b6040518060800160405280606081526020016060815260200160008152602001600081525090565b5b80821115610f6f576000816000905550600101610f57565b5090565b600081359050610f82816118d5565b92915050565b600082601f830112610f9957600080fd5b8135610fac610fa782611790565b611763565b91508082526020830160208301858383011115610fc857600080fd5b610fd383828461185b565b50505092915050565b600060808284031215610fee57600080fd5b610ff86080611763565b9050600082013567ffffffffffffffff81111561101457600080fd5b61102084828501610f88565b60008301525060206110348482850161113c565b602083015250604082013567ffffffffffffffff81111561105457600080fd5b61106084828501611098565b604083015250606082013567ffffffffffffffff81111561108057600080fd5b61108c84828501611098565b60608301525092915050565b6000608082840312156110aa57600080fd5b6110b46080611763565b9050600082013567ffffffffffffffff8111156110d057600080fd5b6110dc84828501610f88565b600083015250602082013567ffffffffffffffff8111156110fc57600080fd5b61110884828501610f88565b602083015250604061111c8482850161113c565b60408301525060606111308482850161113c565b60608301525092915050565b60008135905061114b816118ec565b92915050565b60006020828403121561116357600080fd5b600061117184828501610f73565b91505092915050565b6000806040838503121561118d57600080fd5b600083013567ffffffffffffffff8111156111a757600080fd5b6111b385828601610fdc565b925050602083013567ffffffffffffffff8111156111d057600080fd5b6111dc85828601610fdc565b9150509250929050565b600080604083850312156111f957600080fd5b60006112078582860161113c565b92505060206112188582860161113c565b9150509250929050565b61122b81611825565b82525050565b600061123c826117d1565b61124681856117dc565b935061125681856020860161186a565b61125f816118b7565b840191505092915050565b60008154600181166000811461128757600181146112ad576112f1565b607f600283041661129881876117dc565b955060ff1983168652602086019350506112f1565b600282046112bb81876117dc565b95506112c6856117bc565b60005b828110156112e8578154818901526001820191506020810190506112c9565b80880195505050505b505092915050565b600081546001811660008114611316576001811461133b5761137f565b607f600283041661132781876117fe565b955060ff198316865280860193505061137f565b6002820461134981876117fe565b9550611354856117bc565b60005b8281101561137657815481890152600182019150602081019050611357565b82880195505050505b505092915050565b6000611394600b836117ed565b91507f4e6f206f70706f6e656e740000000000000000000000000000000000000000006000830152602082019050919050565b60006113d4600d836117ed565b91507f4e6f206368616c6c656e676572000000000000000000000000000000000000006000830152602082019050919050565b60006114146000836117fe565b9150600082019050919050565b6000608083016000830151848203600086015261143e8282611231565b915050602083015161145360208601826115f7565b506040830151848203604086015261146b828261150d565b91505060608301518482036060860152611485828261150d565b9150508091505092915050565b600060808301600080840185830360008701526114af838261126a565b925050600184015490506114c28161189d565b6114cf60208701826115f7565b506002840185830360408701526114e68382611577565b9250506006840185830360608701526114ff8382611577565b925050819250505092915050565b6000608083016000830151848203600086015261152a8282611231565b915050602083015184820360208601526115448282611231565b915050604083015161155960408601826115f7565b50606083015161156c60608601826115f7565b508091505092915050565b60006080830160008084018583036000870152611594838261126a565b9250506001840185830360208701526115ad838261126a565b925050600284015490506115c08161189d565b6115cd60408701826115f7565b50600384015490506115de8161189d565b6115eb60608701826115f7565b50819250505092915050565b61160081611851565b82525050565b61160f81611851565b82525050565b600061162182846112f9565b915081905092915050565b600061163782611407565b9150819050919050565b60006020820190506116566000830184611222565b92915050565b60006040820190506116716000830185611222565b61167e6020830184611606565b9392505050565b6000602082019050818103600083015261169e81611387565b9050919050565b600060208201905081810360008301526116be816113c7565b9050919050565b600060208201905081810360008301526116df8184611421565b905092915050565b600060408201905081810360008301526117018185611421565b905081810360208301526117158184611421565b90509392505050565b600060608201905081810360008301526117388186611492565b9050818103602083015261174c8185611492565b905061175b6040830184611222565b949350505050565b6000604051905081810181811067ffffffffffffffff8211171561178657600080fd5b8060405250919050565b600067ffffffffffffffff8211156117a757600080fd5b601f19601f8301169050602081019050919050565b60008190508160005260206000209050919050565b600081519050919050565b600082825260208201905092915050565b600082825260208201905092915050565b600081905092915050565b6000819050919050565b600061181e82611831565b9050919050565b60008115159050919050565b600073ffffffffffffffffffffffffffffffffffffffff82169050919050565b6000819050919050565b82818337600083830152505050565b60005b8381101561188857808201518184015260208101905061186d565b83811115611897576000848401525b50505050565b60006118b06118ab836118c8565b611809565b9050919050565b6000601f19601f8301169050919050565b60008160001c9050919050565b6118de81611813565b81146118e957600080fd5b50565b6118f581611851565b811461190057600080fd5b5056fea2646970667358221220d509f9ef016b19206b26257d7943086b4977a3e9589d2683f488b6031cb7fd3664736f6c634300060c0033",
  "immutableReferences": {},
  "source": "pragma solidity ^0.6.0;\npragma experimental ABIEncoderV2;\n\nimport \"./Heroes.sol\";\n\ncontract HeroesMatch {\n\n    struct Match {\n        HeroesClass challenger;\n        HeroesClass opponent;\n    }\n\n    struct HeroesClass {\n        string name;\n        uint rarity;\n        SkillClass skill_1;\n        SkillClass skill_2;\n    }\n\n    struct SkillClass {\n        string skill_name;\n        string description;\n        uint min_skill_damage;\n        uint max_skill_damage;\n    }\n\n    event RoundWinner(HeroesClass challenger, HeroesClass opponent, bool result) ;\n\n    mapping(address => Match) public ownerToMatch;\n\n    constructor() public {}\n\n    //Set the fight arena\n    function initFight(HeroesClass memory _challenger, HeroesClass memory _opponent) public returns (HeroesClass memory) {\n        ownerToMatch[msg.sender] = Match(_challenger,_opponent);\n        return _challenger;\n    }\n\n    //Start the fight and determine damage.\n    function beginFight(uint randomNumberChallenger, uint randomNumberOpponent) public returns (bool, uint){\n        //No challenger or opponent\n        require(keccak256(abi.encodePacked(ownerToMatch[msg.sender].challenger.name)) != keccak256(abi.encodePacked(\"\")), \"No challenger\");\n        require(keccak256(abi.encodePacked(ownerToMatch[msg.sender].opponent.name)) != keccak256(abi.encodePacked(\"\")), \"No opponent\");\n\n        //Determine winner\n        bool winner = didChallengerWin(randomNumberChallenger, randomNumberOpponent);\n\n        //Give result and the amount of damage\n        if(winner) {\n            return (true, ownerToMatch[msg.sender].challenger.skill_1.min_skill_damage);\n        }\n        else {\n            return (false, ownerToMatch[msg.sender].opponent.skill_2.min_skill_damage);\n        }   \n    }\n\n    //Determine who wins the fight\n    function didChallengerWin(uint randomNumberChallenger, uint randomNumberOpponent) public returns(bool) {\n        if(randomNumberChallenger > randomNumberOpponent) {\n            emit RoundWinner(ownerToMatch[msg.sender].challenger, ownerToMatch[msg.sender].opponent, true);\n            return true;\n        }\n        else {\n            emit RoundWinner(ownerToMatch[msg.sender].challenger, ownerToMatch[msg.sender].opponent, false);\n            return false;\n        }\n    }\n}",
  "sourcePath": "/home/jeffrey/token/ChainsGathering/dapp/contracts/Match.sol",
  "compiler": {
    "name": "solc",
    "version": "0.6.12+commit.27d51765.Emscripten.clang"
  },
  "schemaVersion": "3.3.2",
  "updatedAt": "2020-12-01T15:19:01.148Z",
  "networkType": "ethereum",
  "devdoc": {
    "kind": "dev",
    "methods": {},
    "version": 1
  },
  "userdoc": {
    "kind": "user",
    "methods": {},
    "version": 1
  }
}