{
  "contractName": "mortal",
  "abi": [
    {
      "inputs": [],
      "name": "owneds",
      "outputs": [],
      "stateMutability": "nonpayable",
      "type": "function"
    },
    {
      "inputs": [],
      "name": "kill",
      "outputs": [],
      "stateMutability": "nonpayable",
      "type": "function"
    }
  ],
  "bytecode": "0x608060405234801561001057600080fd5b5061015d806100206000396000f3fe608060405234801561001057600080fd5b50600436106100365760003560e01c806341c0e1b51461003b5780635c51619814610045575b600080fd5b61004361004f565b005b61004d6100e5565b005b60008060009054906101000a900473ffffffffffffffffffffffffffffffffffffffff16905060008054906101000a900473ffffffffffffffffffffffffffffffffffffffff1673ffffffffffffffffffffffffffffffffffffffff163373ffffffffffffffffffffffffffffffffffffffff1614156100e2578073ffffffffffffffffffffffffffffffffffffffff16ff5b50565b336000806101000a81548173ffffffffffffffffffffffffffffffffffffffff021916908373ffffffffffffffffffffffffffffffffffffffff16021790555056fea2646970667358221220676b0351e6be6232faec57e8791f23cc1e12075cfc434286fa33f689836801c064736f6c634300060c0033",
  "immutableReferences": {},
  "source": "pragma solidity ^0.6.0;\n\nimport \"./owned.sol\";\n\ncontract mortal is owned {\n    function kill() public {\n        address payable wallet = payable(address(owner));\n        if (msg.sender == owner)\n            selfdestruct(wallet);\n    }\n}\n",
  "sourcePath": "/home/jeffrey/token/ChainsGathering/dapp/lib/mortal.sol",
  "compiler": {
    "name": "solc",
    "version": "0.6.12+commit.27d51765.Emscripten.clang"
  },
  "schemaVersion": "3.3.2",
  "updatedAt": "2020-12-01T14:41:39.660Z",
  "devdoc": {
    "kind": "dev",
    "methods": {},
    "version": 1
  },
  "userdoc": {
    "kind": "user",
    "methods": {},
    "version": 1
  }
}