{
  "contractName": "HeroesMatch",
  "abi": [
    {
      "inputs": [],
      "stateMutability": "payable",
      "type": "constructor"
    },
    {
      "anonymous": false,
      "inputs": [
        {
          "indexed": true,
          "internalType": "address",
          "name": "previousOwner",
          "type": "address"
        },
        {
          "indexed": true,
          "internalType": "address",
          "name": "newOwner",
          "type": "address"
        }
      ],
      "name": "OwnershipTransferred",
      "type": "event"
    },
    {
      "anonymous": false,
      "inputs": [
        {
          "indexed": false,
          "internalType": "address",
          "name": "player",
          "type": "address"
        },
        {
          "indexed": false,
          "internalType": "uint256",
          "name": "item",
          "type": "uint256"
        }
      ],
      "name": "ReceivedItem",
      "type": "event"
    },
    {
      "anonymous": false,
      "inputs": [
        {
          "indexed": true,
          "internalType": "bytes32",
          "name": "role",
          "type": "bytes32"
        },
        {
          "indexed": true,
          "internalType": "bytes32",
          "name": "previousAdminRole",
          "type": "bytes32"
        },
        {
          "indexed": true,
          "internalType": "bytes32",
          "name": "newAdminRole",
          "type": "bytes32"
        }
      ],
      "name": "RoleAdminChanged",
      "type": "event"
    },
    {
      "anonymous": false,
      "inputs": [
        {
          "indexed": true,
          "internalType": "bytes32",
          "name": "role",
          "type": "bytes32"
        },
        {
          "indexed": true,
          "internalType": "address",
          "name": "account",
          "type": "address"
        },
        {
          "indexed": true,
          "internalType": "address",
          "name": "sender",
          "type": "address"
        }
      ],
      "name": "RoleGranted",
      "type": "event"
    },
    {
      "anonymous": false,
      "inputs": [
        {
          "indexed": true,
          "internalType": "bytes32",
          "name": "role",
          "type": "bytes32"
        },
        {
          "indexed": true,
          "internalType": "address",
          "name": "account",
          "type": "address"
        },
        {
          "indexed": true,
          "internalType": "address",
          "name": "sender",
          "type": "address"
        }
      ],
      "name": "RoleRevoked",
      "type": "event"
    },
    {
      "anonymous": false,
      "inputs": [
        {
          "components": [
            {
              "internalType": "string",
              "name": "name",
              "type": "string"
            },
            {
              "internalType": "uint256",
              "name": "rarity",
              "type": "uint256"
            },
            {
              "components": [
                {
                  "internalType": "string",
                  "name": "skill_name",
                  "type": "string"
                },
                {
                  "internalType": "string",
                  "name": "description",
                  "type": "string"
                },
                {
                  "internalType": "uint256",
                  "name": "min_skill_damage",
                  "type": "uint256"
                },
                {
                  "internalType": "uint256",
                  "name": "max_skill_damage",
                  "type": "uint256"
                }
              ],
              "internalType": "struct Skill.SkillClass",
              "name": "skill_1",
              "type": "tuple"
            },
            {
              "components": [
                {
                  "internalType": "string",
                  "name": "skill_name",
                  "type": "string"
                },
                {
                  "internalType": "string",
                  "name": "description",
                  "type": "string"
                },
                {
                  "internalType": "uint256",
                  "name": "min_skill_damage",
                  "type": "uint256"
                },
                {
                  "internalType": "uint256",
                  "name": "max_skill_damage",
                  "type": "uint256"
                }
              ],
              "internalType": "struct Skill.SkillClass",
              "name": "skill_2",
              "type": "tuple"
            }
          ],
          "indexed": false,
          "internalType": "struct Heroes.HeroesClass",
          "name": "challenger",
          "type": "tuple"
        },
        {
          "components": [
            {
              "internalType": "string",
              "name": "name",
              "type": "string"
            },
            {
              "internalType": "uint256",
              "name": "rarity",
              "type": "uint256"
            },
            {
              "components": [
                {
                  "internalType": "string",
                  "name": "skill_name",
                  "type": "string"
                },
                {
                  "internalType": "string",
                  "name": "description",
                  "type": "string"
                },
                {
                  "internalType": "uint256",
                  "name": "min_skill_damage",
                  "type": "uint256"
                },
                {
                  "internalType": "uint256",
                  "name": "max_skill_damage",
                  "type": "uint256"
                }
              ],
              "internalType": "struct Skill.SkillClass",
              "name": "skill_1",
              "type": "tuple"
            },
            {
              "components": [
                {
                  "internalType": "string",
                  "name": "skill_name",
                  "type": "string"
                },
                {
                  "internalType": "string",
                  "name": "description",
                  "type": "string"
                },
                {
                  "internalType": "uint256",
                  "name": "min_skill_damage",
                  "type": "uint256"
                },
                {
                  "internalType": "uint256",
                  "name": "max_skill_damage",
                  "type": "uint256"
                }
              ],
              "internalType": "struct Skill.SkillClass",
              "name": "skill_2",
              "type": "tuple"
            }
          ],
          "indexed": false,
          "internalType": "struct Heroes.HeroesClass",
          "name": "opponent",
          "type": "tuple"
        },
        {
          "indexed": false,
          "internalType": "bool",
          "name": "result",
          "type": "bool"
        }
      ],
      "name": "RoundWinner",
      "type": "event"
    },
    {
      "inputs": [],
      "name": "CHAMPION_ROLE",
      "outputs": [
        {
          "internalType": "bytes32",
          "name": "",
          "type": "bytes32"
        }
      ],
      "stateMutability": "view",
      "type": "function"
    },
    {
      "inputs": [],
      "name": "DEFAULT_ADMIN_ROLE",
      "outputs": [
        {
          "internalType": "bytes32",
          "name": "",
          "type": "bytes32"
        }
      ],
      "stateMutability": "view",
      "type": "function"
    },
    {
      "inputs": [],
      "name": "LOSER_ROLE",
      "outputs": [
        {
          "internalType": "bytes32",
          "name": "",
          "type": "bytes32"
        }
      ],
      "stateMutability": "view",
      "type": "function"
    },
    {
      "inputs": [],
      "name": "deployed",
      "outputs": [
        {
          "internalType": "contract Heroes",
          "name": "",
          "type": "address"
        }
      ],
      "stateMutability": "view",
      "type": "function"
    },
    {
      "inputs": [
        {
          "internalType": "bytes32",
          "name": "role",
          "type": "bytes32"
        }
      ],
      "name": "getRoleAdmin",
      "outputs": [
        {
          "internalType": "bytes32",
          "name": "",
          "type": "bytes32"
        }
      ],
      "stateMutability": "view",
      "type": "function"
    },
    {
      "inputs": [
        {
          "internalType": "bytes32",
          "name": "role",
          "type": "bytes32"
        },
        {
          "internalType": "uint256",
          "name": "index",
          "type": "uint256"
        }
      ],
      "name": "getRoleMember",
      "outputs": [
        {
          "internalType": "address",
          "name": "",
          "type": "address"
        }
      ],
      "stateMutability": "view",
      "type": "function"
    },
    {
      "inputs": [
        {
          "internalType": "bytes32",
          "name": "role",
          "type": "bytes32"
        }
      ],
      "name": "getRoleMemberCount",
      "outputs": [
        {
          "internalType": "uint256",
          "name": "",
          "type": "uint256"
        }
      ],
      "stateMutability": "view",
      "type": "function"
    },
    {
      "inputs": [
        {
          "internalType": "bytes32",
          "name": "role",
          "type": "bytes32"
        },
        {
          "internalType": "address",
          "name": "account",
          "type": "address"
        }
      ],
      "name": "grantRole",
      "outputs": [],
      "stateMutability": "nonpayable",
      "type": "function"
    },
    {
      "inputs": [
        {
          "internalType": "bytes32",
          "name": "role",
          "type": "bytes32"
        },
        {
          "internalType": "address",
          "name": "account",
          "type": "address"
        }
      ],
      "name": "hasRole",
      "outputs": [
        {
          "internalType": "bool",
          "name": "",
          "type": "bool"
        }
      ],
      "stateMutability": "view",
      "type": "function"
    },
    {
      "inputs": [],
      "name": "owner",
      "outputs": [
        {
          "internalType": "address",
          "name": "",
          "type": "address"
        }
      ],
      "stateMutability": "view",
      "type": "function"
    },
    {
      "inputs": [
        {
          "internalType": "address",
          "name": "",
          "type": "address"
        }
      ],
      "name": "ownerToMatch",
      "outputs": [
        {
          "components": [
            {
              "internalType": "string",
              "name": "name",
              "type": "string"
            },
            {
              "internalType": "uint256",
              "name": "rarity",
              "type": "uint256"
            },
            {
              "components": [
                {
                  "internalType": "string",
                  "name": "skill_name",
                  "type": "string"
                },
                {
                  "internalType": "string",
                  "name": "description",
                  "type": "string"
                },
                {
                  "internalType": "uint256",
                  "name": "min_skill_damage",
                  "type": "uint256"
                },
                {
                  "internalType": "uint256",
                  "name": "max_skill_damage",
                  "type": "uint256"
                }
              ],
              "internalType": "struct Skill.SkillClass",
              "name": "skill_1",
              "type": "tuple"
            },
            {
              "components": [
                {
                  "internalType": "string",
                  "name": "skill_name",
                  "type": "string"
                },
                {
                  "internalType": "string",
                  "name": "description",
                  "type": "string"
                },
                {
                  "internalType": "uint256",
                  "name": "min_skill_damage",
                  "type": "uint256"
                },
                {
                  "internalType": "uint256",
                  "name": "max_skill_damage",
                  "type": "uint256"
                }
              ],
              "internalType": "struct Skill.SkillClass",
              "name": "skill_2",
              "type": "tuple"
            }
          ],
          "internalType": "struct Heroes.HeroesClass",
          "name": "challenger",
          "type": "tuple"
        },
        {
          "components": [
            {
              "internalType": "string",
              "name": "name",
              "type": "string"
            },
            {
              "internalType": "uint256",
              "name": "rarity",
              "type": "uint256"
            },
            {
              "components": [
                {
                  "internalType": "string",
                  "name": "skill_name",
                  "type": "string"
                },
                {
                  "internalType": "string",
                  "name": "description",
                  "type": "string"
                },
                {
                  "internalType": "uint256",
                  "name": "min_skill_damage",
                  "type": "uint256"
                },
                {
                  "internalType": "uint256",
                  "name": "max_skill_damage",
                  "type": "uint256"
                }
              ],
              "internalType": "struct Skill.SkillClass",
              "name": "skill_1",
              "type": "tuple"
            },
            {
              "components": [
                {
                  "internalType": "string",
                  "name": "skill_name",
                  "type": "string"
                },
                {
                  "internalType": "string",
                  "name": "description",
                  "type": "string"
                },
                {
                  "internalType": "uint256",
                  "name": "min_skill_damage",
                  "type": "uint256"
                },
                {
                  "internalType": "uint256",
                  "name": "max_skill_damage",
                  "type": "uint256"
                }
              ],
              "internalType": "struct Skill.SkillClass",
              "name": "skill_2",
              "type": "tuple"
            }
          ],
          "internalType": "struct Heroes.HeroesClass",
          "name": "opponent",
          "type": "tuple"
        }
      ],
      "stateMutability": "view",
      "type": "function"
    },
    {
      "inputs": [],
      "name": "priceOfUrl",
      "outputs": [
        {
          "internalType": "uint256",
          "name": "",
          "type": "uint256"
        }
      ],
      "stateMutability": "view",
      "type": "function"
    },
    {
      "inputs": [],
      "name": "renounceOwnership",
      "outputs": [],
      "stateMutability": "nonpayable",
      "type": "function"
    },
    {
      "inputs": [
        {
          "internalType": "bytes32",
          "name": "role",
          "type": "bytes32"
        },
        {
          "internalType": "address",
          "name": "account",
          "type": "address"
        }
      ],
      "name": "renounceRole",
      "outputs": [],
      "stateMutability": "nonpayable",
      "type": "function"
    },
    {
      "inputs": [
        {
          "internalType": "bytes32",
          "name": "role",
          "type": "bytes32"
        },
        {
          "internalType": "address",
          "name": "account",
          "type": "address"
        }
      ],
      "name": "revokeRole",
      "outputs": [],
      "stateMutability": "nonpayable",
      "type": "function"
    },
    {
      "inputs": [],
      "name": "season",
      "outputs": [
        {
          "internalType": "string",
          "name": "",
          "type": "string"
        }
      ],
      "stateMutability": "view",
      "type": "function"
    },
    {
      "inputs": [],
      "name": "temp",
      "outputs": [
        {
          "internalType": "string",
          "name": "",
          "type": "string"
        }
      ],
      "stateMutability": "view",
      "type": "function"
    },
    {
      "inputs": [
        {
          "internalType": "address",
          "name": "newOwner",
          "type": "address"
        }
      ],
      "name": "transferOwnership",
      "outputs": [],
      "stateMutability": "nonpayable",
      "type": "function"
    },
    {
      "inputs": [
        {
          "internalType": "bytes32",
          "name": "",
          "type": "bytes32"
        },
        {
          "internalType": "string",
          "name": "result",
          "type": "string"
        }
      ],
      "name": "__callback",
      "outputs": [],
      "stateMutability": "nonpayable",
      "type": "function"
    },
    {
      "inputs": [
        {
          "internalType": "bytes32",
          "name": "_myid",
          "type": "bytes32"
        },
        {
          "internalType": "string",
          "name": "_result",
          "type": "string"
        },
        {
          "internalType": "bytes",
          "name": "_proof",
          "type": "bytes"
        }
      ],
      "name": "__callback",
      "outputs": [],
      "stateMutability": "nonpayable",
      "type": "function"
    },
    {
      "inputs": [
        {
          "internalType": "string",
          "name": "_season",
          "type": "string"
        }
      ],
      "name": "initialize",
      "outputs": [],
      "stateMutability": "nonpayable",
      "type": "function"
    },
    {
      "inputs": [
        {
          "internalType": "string",
          "name": "_season",
          "type": "string"
        }
      ],
      "name": "setSeason",
      "outputs": [],
      "stateMutability": "nonpayable",
      "type": "function"
    },
    {
      "inputs": [],
      "name": "destroyHero",
      "outputs": [],
      "stateMutability": "nonpayable",
      "type": "function"
    },
    {
      "inputs": [],
      "name": "deployHero",
      "outputs": [
        {
          "internalType": "contract Heroes",
          "name": "",
          "type": "address"
        }
      ],
      "stateMutability": "nonpayable",
      "type": "function"
    },
    {
      "inputs": [],
      "name": "getTemp",
      "outputs": [],
      "stateMutability": "payable",
      "type": "function"
    },
    {
      "inputs": [
        {
          "internalType": "uint256",
          "name": "item",
          "type": "uint256"
        }
      ],
      "name": "getReward",
      "outputs": [],
      "stateMutability": "nonpayable",
      "type": "function"
    },
    {
      "inputs": [
        {
          "components": [
            {
              "internalType": "string",
              "name": "name",
              "type": "string"
            },
            {
              "internalType": "uint256",
              "name": "rarity",
              "type": "uint256"
            },
            {
              "components": [
                {
                  "internalType": "string",
                  "name": "skill_name",
                  "type": "string"
                },
                {
                  "internalType": "string",
                  "name": "description",
                  "type": "string"
                },
                {
                  "internalType": "uint256",
                  "name": "min_skill_damage",
                  "type": "uint256"
                },
                {
                  "internalType": "uint256",
                  "name": "max_skill_damage",
                  "type": "uint256"
                }
              ],
              "internalType": "struct Skill.SkillClass",
              "name": "skill_1",
              "type": "tuple"
            },
            {
              "components": [
                {
                  "internalType": "string",
                  "name": "skill_name",
                  "type": "string"
                },
                {
                  "internalType": "string",
                  "name": "description",
                  "type": "string"
                },
                {
                  "internalType": "uint256",
                  "name": "min_skill_damage",
                  "type": "uint256"
                },
                {
                  "internalType": "uint256",
                  "name": "max_skill_damage",
                  "type": "uint256"
                }
              ],
              "internalType": "struct Skill.SkillClass",
              "name": "skill_2",
              "type": "tuple"
            }
          ],
          "internalType": "struct Heroes.HeroesClass",
          "name": "_challenger",
          "type": "tuple"
        },
        {
          "components": [
            {
              "internalType": "string",
              "name": "name",
              "type": "string"
            },
            {
              "internalType": "uint256",
              "name": "rarity",
              "type": "uint256"
            },
            {
              "components": [
                {
                  "internalType": "string",
                  "name": "skill_name",
                  "type": "string"
                },
                {
                  "internalType": "string",
                  "name": "description",
                  "type": "string"
                },
                {
                  "internalType": "uint256",
                  "name": "min_skill_damage",
                  "type": "uint256"
                },
                {
                  "internalType": "uint256",
                  "name": "max_skill_damage",
                  "type": "uint256"
                }
              ],
              "internalType": "struct Skill.SkillClass",
              "name": "skill_1",
              "type": "tuple"
            },
            {
              "components": [
                {
                  "internalType": "string",
                  "name": "skill_name",
                  "type": "string"
                },
                {
                  "internalType": "string",
                  "name": "description",
                  "type": "string"
                },
                {
                  "internalType": "uint256",
                  "name": "min_skill_damage",
                  "type": "uint256"
                },
                {
                  "internalType": "uint256",
                  "name": "max_skill_damage",
                  "type": "uint256"
                }
              ],
              "internalType": "struct Skill.SkillClass",
              "name": "skill_2",
              "type": "tuple"
            }
          ],
          "internalType": "struct Heroes.HeroesClass",
          "name": "_opponent",
          "type": "tuple"
        }
      ],
      "name": "initFight",
      "outputs": [
        {
          "components": [
            {
              "internalType": "string",
              "name": "name",
              "type": "string"
            },
            {
              "internalType": "uint256",
              "name": "rarity",
              "type": "uint256"
            },
            {
              "components": [
                {
                  "internalType": "string",
                  "name": "skill_name",
                  "type": "string"
                },
                {
                  "internalType": "string",
                  "name": "description",
                  "type": "string"
                },
                {
                  "internalType": "uint256",
                  "name": "min_skill_damage",
                  "type": "uint256"
                },
                {
                  "internalType": "uint256",
                  "name": "max_skill_damage",
                  "type": "uint256"
                }
              ],
              "internalType": "struct Skill.SkillClass",
              "name": "skill_1",
              "type": "tuple"
            },
            {
              "components": [
                {
                  "internalType": "string",
                  "name": "skill_name",
                  "type": "string"
                },
                {
                  "internalType": "string",
                  "name": "description",
                  "type": "string"
                },
                {
                  "internalType": "uint256",
                  "name": "min_skill_damage",
                  "type": "uint256"
                },
                {
                  "internalType": "uint256",
                  "name": "max_skill_damage",
                  "type": "uint256"
                }
              ],
              "internalType": "struct Skill.SkillClass",
              "name": "skill_2",
              "type": "tuple"
            }
          ],
          "internalType": "struct Heroes.HeroesClass",
          "name": "",
          "type": "tuple"
        }
      ],
      "stateMutability": "nonpayable",
      "type": "function"
    },
    {
      "inputs": [
        {
          "internalType": "uint256",
          "name": "randomNumberChallenger",
          "type": "uint256"
        },
        {
          "internalType": "uint256",
          "name": "randomNumberOpponent",
          "type": "uint256"
        }
      ],
      "name": "beginFight",
      "outputs": [
        {
          "internalType": "bool",
          "name": "",
          "type": "bool"
        },
        {
          "internalType": "uint256",
          "name": "",
          "type": "uint256"
        }
      ],
      "stateMutability": "nonpayable",
      "type": "function"
    },
    {
      "inputs": [
        {
          "internalType": "uint256",
          "name": "randomNumberChallenger",
          "type": "uint256"
        },
        {
          "internalType": "uint256",
          "name": "randomNumberOpponent",
          "type": "uint256"
        }
      ],
      "name": "didChallengerWin",
      "outputs": [
        {
          "internalType": "bool",
          "name": "",
          "type": "bool"
        }
      ],
      "stateMutability": "nonpayable",
      "type": "function"
    },
    {
      "inputs": [],
      "name": "showYourPresence",
      "outputs": [
        {
          "internalType": "string",
          "name": "",
          "type": "string"
        }
      ],
      "stateMutability": "view",
      "type": "function"
    }
  ],
  "bytecode": "0x6080604052600062000016620000bb60201b60201c565b905080603960006101000a81548173ffffffffffffffffffffffffffffffffffffffff021916908373ffffffffffffffffffffffffffffffffffffffff1602179055508073ffffffffffffffffffffffffffffffffffffffff16600073ffffffffffffffffffffffffffffffffffffffff167f8be0079c531659141344cd1fd0a4f28419497f9722a3daafe3b4186f6b6457e060405160405180910390a350620000c3565b600033905090565b61542e80620000d36000396000f3fe6080604052600436106101cd5760003560e01c80638da5cb5b116100f7578063c50b0fb011610095578063f2fde38b11610064578063f2fde38b1461066b578063f62d188814610694578063f905c15a146106bd578063fdf35a17146106e8576101cd565b8063c50b0fb01461059d578063ca15c873146105c8578063d547741f14610605578063df16e3621461062e576101cd565b806395252560116100d157806395252560146104ff578063a217fddf14610509578063ae025c0c14610534578063c27567c914610572576101cd565b80638da5cb5b1461045a5780639010d07c1461048557806391d14854146104c2576101cd565b806338bbfa501161016f57806367d8e0541161013e57806367d8e054146103c3578063715018a6146103ee5780638668a50c14610405578063897822b114610443576101cd565b806338bbfa501461030757806343d3b1be14610330578063580dad8d1461035b578063673402e514610398576101cd565b80632d1e7f86116101ab5780632d1e7f86146102615780632f2ff15d1461028a57806336568abe146102b357806338bb0623146102dc576101cd565b80631c4b774b146101d2578063248a9ca3146101fb57806327dc297e14610238575b600080fd5b3480156101de57600080fd5b506101f960048036038101906101f49190613c1d565b610713565b005b34801561020757600080fd5b50610222600480360381019061021d91906139d3565b61074f565b60405161022f9190614586565b60405180910390f35b34801561024457600080fd5b5061025f600480360381019061025a9190613a61565b61076f565b005b34801561026d57600080fd5b5061028860048036038101906102839190613b70565b6107c9565b005b34801561029657600080fd5b506102b160048036038101906102ac9190613a25565b6107e3565b005b3480156102bf57600080fd5b506102da60048036038101906102d59190613a25565b610857565b005b3480156102e857600080fd5b506102f16108da565b6040516102fe9190614586565b60405180910390f35b34801561031357600080fd5b5061032e60048036038101906103299190613ab5565b6108fe565b005b34801561033c57600080fd5b50610345610921565b6040516103529190614841565b60405180910390f35b34801561036757600080fd5b50610382600480360381019061037d9190613bb1565b610927565b60405161038f91906147a3565b60405180910390f35b3480156103a457600080fd5b506103ad610b57565b6040516103ba9190614601565b60405180910390f35b3480156103cf57600080fd5b506103d8610bf5565b6040516103e59190614586565b60405180910390f35b3480156103fa57600080fd5b50610403610c19565b005b34801561041157600080fd5b5061042c60048036038101906104279190613c6f565b610d71565b60405161043a92919061455d565b60405180910390f35b34801561044f57600080fd5b50610458610fd7565b005b34801561046657600080fd5b5061046f611134565b60405161047c91906144fe565b60405180910390f35b34801561049157600080fd5b506104ac60048036038101906104a79190613b34565b61115e565b6040516104b991906144fe565b60405180910390f35b3480156104ce57600080fd5b506104e960048036038101906104e49190613a25565b611190565b6040516104f69190614542565b60405180910390f35b6105076111c2565b005b34801561051557600080fd5b5061051e6112f1565b60405161052b9190614586565b60405180910390f35b34801561054057600080fd5b5061055b60048036038101906105569190613981565b6112f8565b6040516105699291906147c5565b60405180910390f35b34801561057e57600080fd5b50610587611a38565b60405161059491906145a1565b60405180910390f35b3480156105a957600080fd5b506105b2611b6a565b6040516105bf9190614601565b60405180910390f35b3480156105d457600080fd5b506105ef60048036038101906105ea91906139d3565b611c08565b6040516105fc9190614841565b60405180910390f35b34801561061157600080fd5b5061062c60048036038101906106279190613a25565b611c2f565b005b34801561063a57600080fd5b5061065560048036038101906106509190613c6f565b611ca3565b6040516106629190614542565b60405180910390f35b34801561067757600080fd5b50610692600480360381019061068d9190613981565b611e91565b005b3480156106a057600080fd5b506106bb60048036038101906106b69190613b70565b612058565b005b3480156106c957600080fd5b506106d261215d565b6040516106df91906145a1565b60405180910390f35b3480156106f457600080fd5b506106fd612183565b60405161070a9190614601565b60405180910390f35b7f6a25488c7d3aabc1977d19779cf2091613a2f71d0a0d13880837c533807c93f83382604051610744929190614519565b60405180910390a150565b600060386000838152602001908152602001600020600201549050919050565b610777612229565b73ffffffffffffffffffffffffffffffffffffffff163373ffffffffffffffffffffffffffffffffffffffff16146107ae57600080fd5b80603b90805190602001906107c49291906135f5565b505050565b80603d90805190602001906107df9291906135f5565b5050565b61080a603860008481526020019081526020016000206002015461080561253d565b611190565b610849576040517f08c379a000000000000000000000000000000000000000000000000000000000815260040161084090614643565b60405180910390fd5b6108538282612545565b5050565b61085f61253d565b73ffffffffffffffffffffffffffffffffffffffff168173ffffffffffffffffffffffffffffffffffffffff16146108cc576040517f08c379a00000000000000000000000000000000000000000000000000000000081526004016108c390614783565b60405180910390fd5b6108d682826125d9565b5050565b7f49e6510208b7d6a676c3a5226c42f48ec92cdb8b005e43e23eba69de6b98a36781565b6000801b600360008060001b815260200190815260200160002081905550505050565b603c5481565b61092f613675565b604051806040016040528084815260200183815250603e60003373ffffffffffffffffffffffffffffffffffffffff1673ffffffffffffffffffffffffffffffffffffffff16815260200190815260200160002060008201518160000160008201518160000190805190602001906109a89291906135f5565b506020820151816001015560408201518160020160008201518160000190805190602001906109d89291906135f5565b5060208201518160010190805190602001906109f59291906135f5565b50604082015181600201556060820151816003015550506060820151816006016000820151816000019080519060200190610a319291906135f5565b506020820151816001019080519060200190610a4e9291906135f5565b50604082015181600201556060820151816003015550505050602082015181600a016000820151816000019080519060200190610a8c9291906135f5565b50602082015181600101556040820151816002016000820151816000019080519060200190610abc9291906135f5565b506020820151816001019080519060200190610ad99291906135f5565b50604082015181600201556060820151816003015550506060820151816006016000820151816000019080519060200190610b159291906135f5565b506020820151816001019080519060200190610b329291906135f5565b5060408201518160020155606082015181600301555050505090505082905092915050565b603b8054600181600116156101000203166002900480601f016020809104026020016040519081016040528092919081815260200182805460018160011615610100020316600290048015610bed5780601f10610bc257610100808354040283529160200191610bed565b820191906000526020600020905b815481529060010190602001808311610bd057829003601f168201915b505050505081565b7f99339e56b1bd8cc96884f4f8debb5b812e9ef092eb5427d017e605fff91d557381565b610c2161253d565b73ffffffffffffffffffffffffffffffffffffffff16603960009054906101000a900473ffffffffffffffffffffffffffffffffffffffff1673ffffffffffffffffffffffffffffffffffffffff1614610cb0576040517f08c379a0000000000000000000000000000000000000000000000000000000008152600401610ca790614723565b60405180910390fd5b600073ffffffffffffffffffffffffffffffffffffffff16603960009054906101000a900473ffffffffffffffffffffffffffffffffffffffff1673ffffffffffffffffffffffffffffffffffffffff167f8be0079c531659141344cd1fd0a4f28419497f9722a3daafe3b4186f6b6457e060405160405180910390a36000603960006101000a81548173ffffffffffffffffffffffffffffffffffffffff021916908373ffffffffffffffffffffffffffffffffffffffff160217905550565b600080604051602001610d83906144e9565b60405160208183030381529060405280519060200120603e60003373ffffffffffffffffffffffffffffffffffffffff1673ffffffffffffffffffffffffffffffffffffffff168152602001908152602001600020600001600001604051602001610dee91906144d2565b604051602081830303815290604052805190602001201415610e45576040517f08c379a0000000000000000000000000000000000000000000000000000000008152600401610e3c90614703565b60405180910390fd5b604051602001610e54906144e9565b60405160208183030381529060405280519060200120603e60003373ffffffffffffffffffffffffffffffffffffffff1673ffffffffffffffffffffffffffffffffffffffff168152602001908152602001600020600a01600001604051602001610ebf91906144d2565b604051602081830303815290604052805190602001201415610f16576040517f08c379a0000000000000000000000000000000000000000000000000000000008152600401610f0d906146c3565b60405180910390fd5b6000610f228585611ca3565b90508015610f7f576001603e60003373ffffffffffffffffffffffffffffffffffffffff1673ffffffffffffffffffffffffffffffffffffffff168152602001908152602001600020600001600201600201549250925050610fd0565b6000603e60003373ffffffffffffffffffffffffffffffffffffffff1673ffffffffffffffffffffffffffffffffffffffff168152602001908152602001600020600a016006016002015492509250505b9250929050565b610fdf61253d565b73ffffffffffffffffffffffffffffffffffffffff16603960009054906101000a900473ffffffffffffffffffffffffffffffffffffffff1673ffffffffffffffffffffffffffffffffffffffff161461106e576040517f08c379a000000000000000000000000000000000000000000000000000000000815260040161106590614723565b60405180910390fd5b603a60009054906101000a900473ffffffffffffffffffffffffffffffffffffffff1673ffffffffffffffffffffffffffffffffffffffff166383197ef06040518163ffffffff1660e01b8152600401600060405180830381600087803b1580156110d857600080fd5b505af11580156110ec573d6000803e3d6000fd5b505050506000603a60006101000a81548173ffffffffffffffffffffffffffffffffffffffff021916908373ffffffffffffffffffffffffffffffffffffffff160217905550565b6000603960009054906101000a900473ffffffffffffffffffffffffffffffffffffffff16905090565b6000611188826038600086815260200190815260200160002060000161266d90919063ffffffff16565b905092915050565b60006111ba826038600086815260200190815260200160002060000161268790919063ffffffff16565b905092915050565b66470de4df8200008034101561120d576040517f08c379a000000000000000000000000000000000000000000000000000000000815260040161120490614763565b60405180910390fd5b61124b6040518060400160405280600381526020017f55524c00000000000000000000000000000000000000000000000000000000008152506126b7565b603c81905550603c54471015611296576040517f08c379a000000000000000000000000000000000000000000000000000000000815260040161128d906146a3565b60405180910390fd5b6112ed6040518060400160405280600381526020017f55524c0000000000000000000000000000000000000000000000000000000000815250604051806080016040528060608152602001615399606091396129d8565b5050565b6000801b81565b603e60205280600052604060002060009150905080600001604051806080016040529081600082018054600181600116156101000203166002900480601f0160208091040260200160405190810160405280929190818152602001828054600181600116156101000203166002900480156113b45780601f10611389576101008083540402835291602001916113b4565b820191906000526020600020905b81548152906001019060200180831161139757829003601f168201915b505050505081526020016001820154815260200160028201604051806080016040529081600082018054600181600116156101000203166002900480601f0160208091040260200160405190810160405280929190818152602001828054600181600116156101000203166002900480156114705780601f1061144557610100808354040283529160200191611470565b820191906000526020600020905b81548152906001019060200180831161145357829003601f168201915b50505050508152602001600182018054600181600116156101000203166002900480601f0160208091040260200160405190810160405280929190818152602001828054600181600116156101000203166002900480156115125780601f106114e757610100808354040283529160200191611512565b820191906000526020600020905b8154815290600101906020018083116114f557829003601f168201915b5050505050815260200160028201548152602001600382015481525050815260200160068201604051806080016040529081600082018054600181600116156101000203166002900480601f0160208091040260200160405190810160405280929190818152602001828054600181600116156101000203166002900480156115dc5780601f106115b1576101008083540402835291602001916115dc565b820191906000526020600020905b8154815290600101906020018083116115bf57829003601f168201915b50505050508152602001600182018054600181600116156101000203166002900480601f01602080910402602001604051908101604052809291908181526020018280546001816001161561010002031660029004801561167e5780601f106116535761010080835404028352916020019161167e565b820191906000526020600020905b81548152906001019060200180831161166157829003601f168201915b5050505050815260200160028201548152602001600382015481525050815250509080600a01604051806080016040529081600082018054600181600116156101000203166002900480601f0160208091040260200160405190810160405280929190818152602001828054600181600116156101000203166002900480156117485780601f1061171d57610100808354040283529160200191611748565b820191906000526020600020905b81548152906001019060200180831161172b57829003601f168201915b505050505081526020016001820154815260200160028201604051806080016040529081600082018054600181600116156101000203166002900480601f0160208091040260200160405190810160405280929190818152602001828054600181600116156101000203166002900480156118045780601f106117d957610100808354040283529160200191611804565b820191906000526020600020905b8154815290600101906020018083116117e757829003601f168201915b50505050508152602001600182018054600181600116156101000203166002900480601f0160208091040260200160405190810160405280929190818152602001828054600181600116156101000203166002900480156118a65780601f1061187b576101008083540402835291602001916118a6565b820191906000526020600020905b81548152906001019060200180831161188957829003601f168201915b5050505050815260200160028201548152602001600382015481525050815260200160068201604051806080016040529081600082018054600181600116156101000203166002900480601f0160208091040260200160405190810160405280929190818152602001828054600181600116156101000203166002900480156119705780601f1061194557610100808354040283529160200191611970565b820191906000526020600020905b81548152906001019060200180831161195357829003601f168201915b50505050508152602001600182018054600181600116156101000203166002900480601f016020809104026020016040519081016040528092919081815260200182805460018160011615610100020316600290048015611a125780601f106119e757610100808354040283529160200191611a12565b820191906000526020600020905b8154815290600101906020018083116119f557829003601f168201915b505050505081526020016002820154815260200160038201548152505081525050905082565b6000611a4261253d565b73ffffffffffffffffffffffffffffffffffffffff16603960009054906101000a900473ffffffffffffffffffffffffffffffffffffffff1673ffffffffffffffffffffffffffffffffffffffff1614611ad1576040517f08c379a0000000000000000000000000000000000000000000000000000000008152600401611ac890614723565b60405180910390fd5b6000801b604051611ae1906136a9565b8190604051809103906000f5905080158015611b01573d6000803e3d6000fd5b50603a60006101000a81548173ffffffffffffffffffffffffffffffffffffffff021916908373ffffffffffffffffffffffffffffffffffffffff160217905550603a60009054906101000a900473ffffffffffffffffffffffffffffffffffffffff16905090565b603d8054600181600116156101000203166002900480601f016020809104026020016040519081016040528092919081815260200182805460018160011615610100020316600290048015611c005780601f10611bd557610100808354040283529160200191611c00565b820191906000526020600020905b815481529060010190602001808311611be357829003601f168201915b505050505081565b6000611c2860386000848152602001908152602001600020600001612dd5565b9050919050565b611c566038600084815260200190815260200160002060020154611c5161253d565b611190565b611c95576040517f08c379a0000000000000000000000000000000000000000000000000000000008152600401611c8c906146e3565b60405180910390fd5b611c9f82826125d9565b5050565b600081831115611d9e577fbc4b92d339fc9a0c95f60c056c191fea7200e8580924dc0a223bfaa7ab8c1e67603e60003373ffffffffffffffffffffffffffffffffffffffff1673ffffffffffffffffffffffffffffffffffffffff168152602001908152602001600020600001603e60003373ffffffffffffffffffffffffffffffffffffffff1673ffffffffffffffffffffffffffffffffffffffff168152602001908152602001600020600a016001604051611d63939291906147fc565b60405180910390a1611d957f99339e56b1bd8cc96884f4f8debb5b812e9ef092eb5427d017e605fff91d557333612dea565b60019050611e8b565b7fbc4b92d339fc9a0c95f60c056c191fea7200e8580924dc0a223bfaa7ab8c1e67603e60003373ffffffffffffffffffffffffffffffffffffffff1673ffffffffffffffffffffffffffffffffffffffff168152602001908152602001600020600001603e60003373ffffffffffffffffffffffffffffffffffffffff1673ffffffffffffffffffffffffffffffffffffffff168152602001908152602001600020600a016000604051611e54939291906147fc565b60405180910390a1611e867f49e6510208b7d6a676c3a5226c42f48ec92cdb8b005e43e23eba69de6b98a36733612dea565b600090505b92915050565b611e9961253d565b73ffffffffffffffffffffffffffffffffffffffff16603960009054906101000a900473ffffffffffffffffffffffffffffffffffffffff1673ffffffffffffffffffffffffffffffffffffffff1614611f28576040517f08c379a0000000000000000000000000000000000000000000000000000000008152600401611f1f90614723565b60405180910390fd5b600073ffffffffffffffffffffffffffffffffffffffff168173ffffffffffffffffffffffffffffffffffffffff161415611f98576040517f08c379a0000000000000000000000000000000000000000000000000000000008152600401611f8f90614683565b60405180910390fd5b8073ffffffffffffffffffffffffffffffffffffffff16603960009054906101000a900473ffffffffffffffffffffffffffffffffffffffff1673ffffffffffffffffffffffffffffffffffffffff167f8be0079c531659141344cd1fd0a4f28419497f9722a3daafe3b4186f6b6457e060405160405180910390a380603960006101000a81548173ffffffffffffffffffffffffffffffffffffffff021916908373ffffffffffffffffffffffffffffffffffffffff16021790555050565b600560019054906101000a900460ff16806120775750612076612df8565b5b8061208f5750600560009054906101000a900460ff16155b6120ce576040517f08c379a00000000000000000000000000000000000000000000000000000000081526004016120c590614743565b60405180910390fd5b6000600560019054906101000a900460ff161590508015612120576001600560016101000a81548160ff0219169083151502179055506001600560006101000a81548160ff0219169083151502179055505b81603d90805190602001906121369291906135f5565b508015612159576000600560016101000a81548160ff0219169083151502179055505b5050565b603a60009054906101000a900473ffffffffffffffffffffffffffffffffffffffff1681565b60606121af7f99339e56b1bd8cc96884f4f8debb5b812e9ef092eb5427d017e605fff91d557333611190565b6121ee576040517f08c379a00000000000000000000000000000000000000000000000000000000081526004016121e590614663565b60405180910390fd5b6040518060400160405280601b81526020017f424f5720544f20594f5552204348414d50494f4e20484f454841210000000000815250905090565b60008073ffffffffffffffffffffffffffffffffffffffff16600160009054906101000a900473ffffffffffffffffffffffffffffffffffffffff1673ffffffffffffffffffffffffffffffffffffffff1614806122b1575060006122af600160009054906101000a900473ffffffffffffffffffffffffffffffffffffffff16612e0f565b145b156122c2576122c06000612e1a565b505b600160009054906101000a900473ffffffffffffffffffffffffffffffffffffffff1673ffffffffffffffffffffffffffffffffffffffff166338cc48316040518163ffffffff1660e01b8152600401602060405180830381600087803b15801561232c57600080fd5b505af1158015612340573d6000803e3d6000fd5b505050506040513d601f19601f8201168201806040525081019061236491906139aa565b73ffffffffffffffffffffffffffffffffffffffff1660008054906101000a900473ffffffffffffffffffffffffffffffffffffffff1673ffffffffffffffffffffffffffffffffffffffff161461249857600160009054906101000a900473ffffffffffffffffffffffffffffffffffffffff1673ffffffffffffffffffffffffffffffffffffffff166338cc48316040518163ffffffff1660e01b8152600401602060405180830381600087803b15801561242057600080fd5b505af1158015612434573d6000803e3d6000fd5b505050506040513d601f19601f8201168201806040525081019061245891906139aa565b6000806101000a81548173ffffffffffffffffffffffffffffffffffffffff021916908373ffffffffffffffffffffffffffffffffffffffff1602179055505b60008054906101000a900473ffffffffffffffffffffffffffffffffffffffff1673ffffffffffffffffffffffffffffffffffffffff1663c281d19e6040518163ffffffff1660e01b8152600401602060405180830381600087803b15801561250057600080fd5b505af1158015612514573d6000803e3d6000fd5b505050506040513d601f19601f8201168201806040525081019061253891906139aa565b905090565b600033905090565b61256d8160386000858152602001908152602001600020600001612e2b90919063ffffffff16565b156125d55761257a61253d565b73ffffffffffffffffffffffffffffffffffffffff168173ffffffffffffffffffffffffffffffffffffffff16837f2f8788117e7eff1d82e926ec794901d17c78024a50270940304540a733656f0d60405160405180910390a45b5050565b6126018160386000858152602001908152602001600020600001612e5b90919063ffffffff16565b156126695761260e61253d565b73ffffffffffffffffffffffffffffffffffffffff168173ffffffffffffffffffffffffffffffffffffffff16837ff6391f5c32d9c69d2a47ea670b442974b53935d1edc7fd64eb21e047a839171b60405160405180910390a45b5050565b600061267c8360000183612e8b565b60001c905092915050565b60006126af836000018373ffffffffffffffffffffffffffffffffffffffff1660001b612ef8565b905092915050565b60008073ffffffffffffffffffffffffffffffffffffffff16600160009054906101000a900473ffffffffffffffffffffffffffffffffffffffff1673ffffffffffffffffffffffffffffffffffffffff16148061273f5750600061273d600160009054906101000a900473ffffffffffffffffffffffffffffffffffffffff16612e0f565b145b156127505761274e6000612e1a565b505b600160009054906101000a900473ffffffffffffffffffffffffffffffffffffffff1673ffffffffffffffffffffffffffffffffffffffff166338cc48316040518163ffffffff1660e01b8152600401602060405180830381600087803b1580156127ba57600080fd5b505af11580156127ce573d6000803e3d6000fd5b505050506040513d601f19601f820116820180604052508101906127f291906139aa565b73ffffffffffffffffffffffffffffffffffffffff1660008054906101000a900473ffffffffffffffffffffffffffffffffffffffff1673ffffffffffffffffffffffffffffffffffffffff161461292657600160009054906101000a900473ffffffffffffffffffffffffffffffffffffffff1673ffffffffffffffffffffffffffffffffffffffff166338cc48316040518163ffffffff1660e01b8152600401602060405180830381600087803b1580156128ae57600080fd5b505af11580156128c2573d6000803e3d6000fd5b505050506040513d601f19601f820116820180604052508101906128e691906139aa565b6000806101000a81548173ffffffffffffffffffffffffffffffffffffffff021916908373ffffffffffffffffffffffffffffffffffffffff1602179055505b60008054906101000a900473ffffffffffffffffffffffffffffffffffffffff1673ffffffffffffffffffffffffffffffffffffffff1663524f3889836040518263ffffffff1660e01b815260040161297f9190614601565b602060405180830381600087803b15801561299957600080fd5b505af11580156129ad573d6000803e3d6000fd5b505050506040513d601f19601f820116820180604052508101906129d19190613c46565b9050919050565b60008073ffffffffffffffffffffffffffffffffffffffff16600160009054906101000a900473ffffffffffffffffffffffffffffffffffffffff1673ffffffffffffffffffffffffffffffffffffffff161480612a6057506000612a5e600160009054906101000a900473ffffffffffffffffffffffffffffffffffffffff16612e0f565b145b15612a7157612a6f6000612e1a565b505b600160009054906101000a900473ffffffffffffffffffffffffffffffffffffffff1673ffffffffffffffffffffffffffffffffffffffff166338cc48316040518163ffffffff1660e01b8152600401602060405180830381600087803b158015612adb57600080fd5b505af1158015612aef573d6000803e3d6000fd5b505050506040513d601f19601f82011682018060405250810190612b1391906139aa565b73ffffffffffffffffffffffffffffffffffffffff1660008054906101000a900473ffffffffffffffffffffffffffffffffffffffff1673ffffffffffffffffffffffffffffffffffffffff1614612c4757600160009054906101000a900473ffffffffffffffffffffffffffffffffffffffff1673ffffffffffffffffffffffffffffffffffffffff166338cc48316040518163ffffffff1660e01b8152600401602060405180830381600087803b158015612bcf57600080fd5b505af1158015612be3573d6000803e3d6000fd5b505050506040513d601f19601f82011682018060405250810190612c0791906139aa565b6000806101000a81548173ffffffffffffffffffffffffffffffffffffffff021916908373ffffffffffffffffffffffffffffffffffffffff1602179055505b60008060009054906101000a900473ffffffffffffffffffffffffffffffffffffffff1673ffffffffffffffffffffffffffffffffffffffff1663524f3889856040518263ffffffff1660e01b8152600401612ca39190614601565b602060405180830381600087803b158015612cbd57600080fd5b505af1158015612cd1573d6000803e3d6000fd5b505050506040513d601f19601f82011682018060405250810190612cf59190613c46565b905062030d403a02670de0b6b3a764000001811115612d1a576000801b915050612dcf565b60008054906101000a900473ffffffffffffffffffffffffffffffffffffffff1673ffffffffffffffffffffffffffffffffffffffff1663adf59f9982600087876040518563ffffffff1660e01b8152600401612d79939291906145bc565b6020604051808303818588803b158015612d9257600080fd5b505af1158015612da6573d6000803e3d6000fd5b50505050506040513d601f19601f82011682018060405250810190612dcb91906139fc565b9150505b92915050565b6000612de382600001612f1b565b9050919050565b612df48282612545565b5050565b6000803090506000813b9050600081149250505090565b6000813b9050919050565b6000612e24612f2c565b9050919050565b6000612e53836000018373ffffffffffffffffffffffffffffffffffffffff1660001b613483565b905092915050565b6000612e83836000018373ffffffffffffffffffffffffffffffffffffffff1660001b6134f3565b905092915050565b600081836000018054905011612ed6576040517f08c379a0000000000000000000000000000000000000000000000000000000008152600401612ecd90614623565b60405180910390fd5b826000018281548110612ee557fe5b9060005260206000200154905092915050565b600080836001016000848152602001908152602001600020541415905092915050565b600081600001805490509050919050565b600080612f4c731d3b2638a7cc9f2cb3d298a3da7a90b67e5506ed612e0f565b1115612fee57731d3b2638a7cc9f2cb3d298a3da7a90b67e5506ed600160006101000a81548173ffffffffffffffffffffffffffffffffffffffff021916908373ffffffffffffffffffffffffffffffffffffffff160217905550612fe56040518060400160405280600b81526020017f6574685f6d61696e6e65740000000000000000000000000000000000000000008152506135db565b60019050613480565b600061300d73c03a2615d5efaf5f49f60b7bb6583eaec212fdf1612e0f565b11156130af5773c03a2615d5efaf5f49f60b7bb6583eaec212fdf1600160006101000a81548173ffffffffffffffffffffffffffffffffffffffff021916908373ffffffffffffffffffffffffffffffffffffffff1602179055506130a66040518060400160405280600c81526020017f6574685f726f707374656e3300000000000000000000000000000000000000008152506135db565b60019050613480565b60006130ce73b7a07bcf2ba2f2703b24c0691b5278999c59ac7e612e0f565b11156131705773b7a07bcf2ba2f2703b24c0691b5278999c59ac7e600160006101000a81548173ffffffffffffffffffffffffffffffffffffffff021916908373ffffffffffffffffffffffffffffffffffffffff1602179055506131676040518060400160405280600981526020017f6574685f6b6f76616e00000000000000000000000000000000000000000000008152506135db565b60019050613480565b600061318f73146500cfd35b22e4a392fe0adc06de1a1368ed48612e0f565b11156132315773146500cfd35b22e4a392fe0adc06de1a1368ed48600160006101000a81548173ffffffffffffffffffffffffffffffffffffffff021916908373ffffffffffffffffffffffffffffffffffffffff1602179055506132286040518060400160405280600b81526020017f6574685f72696e6b6562790000000000000000000000000000000000000000008152506135db565b60019050613480565b600061325073a2998efd205fb9d4b4963afb70778d6354ad3a41612e0f565b11156132f25773a2998efd205fb9d4b4963afb70778d6354ad3a41600160006101000a81548173ffffffffffffffffffffffffffffffffffffffff021916908373ffffffffffffffffffffffffffffffffffffffff1602179055506132e96040518060400160405280600a81526020017f6574685f676f65726c69000000000000000000000000000000000000000000008152506135db565b60019050613480565b6000613311736f485c8bf6fc43ea212e93bbf8ce046c7f1cb475612e0f565b111561337557736f485c8bf6fc43ea212e93bbf8ce046c7f1cb475600160006101000a81548173ffffffffffffffffffffffffffffffffffffffff021916908373ffffffffffffffffffffffffffffffffffffffff16021790555060019050613480565b60006133947320e12a1f859b3feae5fb2a0a32c18f5a65555bbf612e0f565b11156133f8577320e12a1f859b3feae5fb2a0a32c18f5a65555bbf600160006101000a81548173ffffffffffffffffffffffffffffffffffffffff021916908373ffffffffffffffffffffffffffffffffffffffff16021790555060019050613480565b60006134177351efaf4c8b3c9afbd5ab9f4bbc82784ab6ef8faa612e0f565b111561347b577351efaf4c8b3c9afbd5ab9f4bbc82784ab6ef8faa600160006101000a81548173ffffffffffffffffffffffffffffffffffffffff021916908373ffffffffffffffffffffffffffffffffffffffff16021790555060019050613480565b600090505b90565b600061348f8383612ef8565b6134e85782600001829080600181540180825580915050600190039060005260206000200160009091909190915055826000018054905083600101600084815260200190815260200160002081905550600190506134ed565b600090505b92915050565b600080836001016000848152602001908152602001600020549050600081146135cf576000600182039050600060018660000180549050039050600086600001828154811061353e57fe5b906000526020600020015490508087600001848154811061355b57fe5b906000526020600020018190555060018301876001016000838152602001908152602001600020819055508660000180548061359357fe5b600190038181906000526020600020016000905590558660010160008781526020019081526020016000206000905560019450505050506135d5565b60009150505b92915050565b80600290805190602001906135f19291906135f5565b5050565b828054600181600116156101000203166002900490600052602060002090601f016020900481019282601f1061363657805160ff1916838001178555613664565b82800160010185558215613664579182015b82811115613663578251825591602001919060010190613648565b5b50905061367191906136b6565b5090565b604051806080016040528060608152602001600081526020016136966136d3565b81526020016136a36136d3565b81525090565b6108e380614ab683390190565b5b808211156136cf5760008160009055506001016136b7565b5090565b6040518060800160405280606081526020016060815260200160008152602001600081525090565b60008135905061370a81614a70565b92915050565b60008151905061371f81614a70565b92915050565b60008135905061373481614a87565b92915050565b60008151905061374981614a87565b92915050565b600082601f83011261376057600080fd5b813561377361376e82614889565b61485c565b9150808252602083016020830185838301111561378f57600080fd5b61379a8382846149f6565b50505092915050565b600082601f8301126137b457600080fd5b81356137c76137c2826148b5565b61485c565b915080825260208301602083018583830111156137e357600080fd5b6137ee8382846149f6565b50505092915050565b60006080828403121561380957600080fd5b613813608061485c565b9050600082013567ffffffffffffffff81111561382f57600080fd5b61383b848285016137a3565b600083015250602061384f84828501613957565b602083015250604082013567ffffffffffffffff81111561386f57600080fd5b61387b848285016138b3565b604083015250606082013567ffffffffffffffff81111561389b57600080fd5b6138a7848285016138b3565b60608301525092915050565b6000608082840312156138c557600080fd5b6138cf608061485c565b9050600082013567ffffffffffffffff8111156138eb57600080fd5b6138f7848285016137a3565b600083015250602082013567ffffffffffffffff81111561391757600080fd5b613923848285016137a3565b602083015250604061393784828501613957565b604083015250606061394b84828501613957565b60608301525092915050565b60008135905061396681614a9e565b92915050565b60008151905061397b81614a9e565b92915050565b60006020828403121561399357600080fd5b60006139a1848285016136fb565b91505092915050565b6000602082840312156139bc57600080fd5b60006139ca84828501613710565b91505092915050565b6000602082840312156139e557600080fd5b60006139f384828501613725565b91505092915050565b600060208284031215613a0e57600080fd5b6000613a1c8482850161373a565b91505092915050565b60008060408385031215613a3857600080fd5b6000613a4685828601613725565b9250506020613a57858286016136fb565b9150509250929050565b60008060408385031215613a7457600080fd5b6000613a8285828601613725565b925050602083013567ffffffffffffffff811115613a9f57600080fd5b613aab858286016137a3565b9150509250929050565b600080600060608486031215613aca57600080fd5b6000613ad886828701613725565b935050602084013567ffffffffffffffff811115613af557600080fd5b613b01868287016137a3565b925050604084013567ffffffffffffffff811115613b1e57600080fd5b613b2a8682870161374f565b9150509250925092565b60008060408385031215613b4757600080fd5b6000613b5585828601613725565b9250506020613b6685828601613957565b9150509250929050565b600060208284031215613b8257600080fd5b600082013567ffffffffffffffff811115613b9c57600080fd5b613ba8848285016137a3565b91505092915050565b60008060408385031215613bc457600080fd5b600083013567ffffffffffffffff811115613bde57600080fd5b613bea858286016137f7565b925050602083013567ffffffffffffffff811115613c0757600080fd5b613c13858286016137f7565b9150509250929050565b600060208284031215613c2f57600080fd5b6000613c3d84828501613957565b91505092915050565b600060208284031215613c5857600080fd5b6000613c668482850161396c565b91505092915050565b60008060408385031215613c8257600080fd5b6000613c9085828601613957565b9250506020613ca185828601613957565b9150509250929050565b613cb48161498a565b82525050565b613cc381614938565b82525050565b613cd28161494a565b82525050565b613ce181614956565b82525050565b613cf08161499c565b82525050565b613cff816149c0565b82525050565b6000613d10826148f6565b613d1a8185614901565b9350613d2a818560208601614a05565b613d3381614a52565b840191505092915050565b6000613d49826148f6565b613d538185614912565b9350613d63818560208601614a05565b613d6c81614a52565b840191505092915050565b600081546001811660008114613d945760018114613dba57613dfe565b607f6002830416613da58187614901565b955060ff198316865260208601935050613dfe565b60028204613dc88187614901565b9550613dd3856148e1565b60005b82811015613df557815481890152600182019150602081019050613dd6565b80880195505050505b505092915050565b600081546001811660008114613e235760018114613e4857613e8c565b607f6002830416613e348187614923565b955060ff1983168652808601935050613e8c565b60028204613e568187614923565b9550613e61856148e1565b60005b82811015613e8357815481890152600182019150602081019050613e64565b82880195505050505b505092915050565b6000613ea1602283614912565b91507f456e756d657261626c655365743a20696e646578206f7574206f6620626f756e60008301527f64730000000000000000000000000000000000000000000000000000000000006020830152604082019050919050565b6000613f07602f83614912565b91507f416363657373436f6e74726f6c3a2073656e646572206d75737420626520616e60008301527f2061646d696e20746f206772616e7400000000000000000000000000000000006020830152604082019050919050565b6000613f6d603783614912565b91507f596f75277265206e6f7420746865206368616d70696f6e20616e642063616e6e60008301527f6f7420696e74696d696461746520746865206172656e610000000000000000006020830152604082019050919050565b6000613fd3602683614912565b91507f4f776e61626c653a206e6577206f776e657220697320746865207a65726f206160008301527f64647265737300000000000000000000000000000000000000000000000000006020830152604082019050919050565b6000614039602e83614912565b91507f706c656173652061646420736f6d652045544820746f20636f76657220666f7260008301527f20746865207175657279206665650000000000000000000000000000000000006020830152604082019050919050565b600061409f600b83614912565b91507f4e6f206f70706f6e656e740000000000000000000000000000000000000000006000830152602082019050919050565b60006140df603083614912565b91507f416363657373436f6e74726f6c3a2073656e646572206d75737420626520616e60008301527f2061646d696e20746f207265766f6b65000000000000000000000000000000006020830152604082019050919050565b6000614145600d83614912565b91507f4e6f206368616c6c656e676572000000000000000000000000000000000000006000830152602082019050919050565b6000614185602083614912565b91507f4f776e61626c653a2063616c6c6572206973206e6f7420746865206f776e65726000830152602082019050919050565b60006141c5602e83614912565b91507f436f6e747261637420696e7374616e63652068617320616c726561647920626560008301527f656e20696e697469616c697a65640000000000000000000000000000000000006020830152604082019050919050565b600061422b600083614923565b9150600082019050919050565b6000614245601183614912565b91507f4d4f5245205354414b45204e45454445440000000000000000000000000000006000830152602082019050919050565b6000614285602f83614912565b91507f416363657373436f6e74726f6c3a2063616e206f6e6c792072656e6f756e636560008301527f20726f6c657320666f722073656c6600000000000000000000000000000000006020830152604082019050919050565b600060808301600083015184820360008601526142fb8282613d05565b915050602083015161431060208601826144b4565b506040830151848203604086015261432882826143ca565b9150506060830151848203606086015261434282826143ca565b9150508091505092915050565b6000608083016000808401858303600087015261436c8382613d77565b9250506001840154905061437f81614a38565b61438c60208701826144b4565b506002840185830360408701526143a38382614434565b9250506006840185830360608701526143bc8382614434565b925050819250505092915050565b600060808301600083015184820360008601526143e78282613d05565b915050602083015184820360208601526144018282613d05565b915050604083015161441660408601826144b4565b50606083015161442960608601826144b4565b508091505092915050565b600060808301600080840185830360008701526144518382613d77565b92505060018401858303602087015261446a8382613d77565b9250506002840154905061447d81614a38565b61448a60408701826144b4565b506003840154905061449b81614a38565b6144a860608701826144b4565b50819250505092915050565b6144bd81614980565b82525050565b6144cc81614980565b82525050565b60006144de8284613e06565b915081905092915050565b60006144f48261421e565b9150819050919050565b60006020820190506145136000830184613cba565b92915050565b600060408201905061452e6000830185613cab565b61453b60208301846144c3565b9392505050565b60006020820190506145576000830184613cc9565b92915050565b60006040820190506145726000830185613cc9565b61457f60208301846144c3565b9392505050565b600060208201905061459b6000830184613cd8565b92915050565b60006020820190506145b66000830184613ce7565b92915050565b60006060820190506145d16000830186613cf6565b81810360208301526145e38185613d3e565b905081810360408301526145f78184613d3e565b9050949350505050565b6000602082019050818103600083015261461b8184613d3e565b905092915050565b6000602082019050818103600083015261463c81613e94565b9050919050565b6000602082019050818103600083015261465c81613efa565b9050919050565b6000602082019050818103600083015261467c81613f60565b9050919050565b6000602082019050818103600083015261469c81613fc6565b9050919050565b600060208201905081810360008301526146bc8161402c565b9050919050565b600060208201905081810360008301526146dc81614092565b9050919050565b600060208201905081810360008301526146fc816140d2565b9050919050565b6000602082019050818103600083015261471c81614138565b9050919050565b6000602082019050818103600083015261473c81614178565b9050919050565b6000602082019050818103600083015261475c816141b8565b9050919050565b6000602082019050818103600083015261477c81614238565b9050919050565b6000602082019050818103600083015261479c81614278565b9050919050565b600060208201905081810360008301526147bd81846142de565b905092915050565b600060408201905081810360008301526147df81856142de565b905081810360208301526147f381846142de565b90509392505050565b60006060820190508181036000830152614816818661434f565b9050818103602083015261482a818561434f565b90506148396040830184613cc9565b949350505050565b600060208201905061485660008301846144c3565b92915050565b6000604051905081810181811067ffffffffffffffff8211171561487f57600080fd5b8060405250919050565b600067ffffffffffffffff8211156148a057600080fd5b601f19601f8301169050602081019050919050565b600067ffffffffffffffff8211156148cc57600080fd5b601f19601f8301169050602081019050919050565b60008190508160005260206000209050919050565b600081519050919050565b600082825260208201905092915050565b600082825260208201905092915050565b600081905092915050565b6000819050919050565b600061494382614960565b9050919050565b60008115159050919050565b6000819050919050565b600073ffffffffffffffffffffffffffffffffffffffff82169050919050565b6000819050919050565b6000614995826149d2565b9050919050565b60006149a7826149ae565b9050919050565b60006149b982614960565b9050919050565b60006149cb82614980565b9050919050565b60006149dd826149e4565b9050919050565b60006149ef82614960565b9050919050565b82818337600083830152505050565b60005b83811015614a23578082015181840152602081019050614a08565b83811115614a32576000848401525b50505050565b6000614a4b614a4683614a63565b61492e565b9050919050565b6000601f19601f8301169050919050565b60008160001c9050919050565b614a7981614938565b8114614a8457600080fd5b50565b614a9081614956565b8114614a9b57600080fd5b50565b614aa781614980565b8114614ab257600080fd5b5056fe608060405234801561001057600080fd5b506108c3806100206000396000f3fe608060405234801561001057600080fd5b50600436106100575760003560e01c80630f1ff7c71461005c578063349b95911461008c57806383197ef0146100bc578063882c2a43146100c6578063a26085f8146100f6575b600080fd5b61007660048036038101906100719190610477565b610112565b6040516100839190610705565b60405180910390f35b6100a660048036038101906100a191906104b8565b610133565b6040516100b39190610727565b60405180910390f35b6100c4610165565b005b6100e060048036038101906100db91906104f9565b61017e565b6040516100ed9190610705565b60405180910390f35b610110600480360381019061010b919061044e565b6101b1565b005b61011a610214565b6001826020018181510191508181525050819050919050565b61013b610248565b600a826040018181510191508181525050600a826060018181510191508181525050819050919050565b3373ffffffffffffffffffffffffffffffffffffffff16ff5b610186610214565b600184111561019d578282606001819052506101a7565b8282604001819052505b8190509392505050565b8073ffffffffffffffffffffffffffffffffffffffff166383197ef06040518163ffffffff1660e01b8152600401600060405180830381600087803b1580156101f957600080fd5b505af115801561020d573d6000803e3d6000fd5b5050505050565b60405180608001604052806060815260200160008152602001610235610248565b8152602001610242610248565b81525090565b6040518060800160405280606081526020016060815260200160008152602001600081525090565b60008135905061027f8161085f565b92915050565b600082601f83011261029657600080fd5b81356102a96102a482610776565b610749565b915080825260208301602083018583830111156102c557600080fd5b6102d083828461080c565b50505092915050565b6000608082840312156102eb57600080fd5b6102f56080610749565b9050600082013567ffffffffffffffff81111561031157600080fd5b61031d84828501610285565b600083015250602061033184828501610439565b602083015250604082013567ffffffffffffffff81111561035157600080fd5b61035d84828501610395565b604083015250606082013567ffffffffffffffff81111561037d57600080fd5b61038984828501610395565b60608301525092915050565b6000608082840312156103a757600080fd5b6103b16080610749565b9050600082013567ffffffffffffffff8111156103cd57600080fd5b6103d984828501610285565b600083015250602082013567ffffffffffffffff8111156103f957600080fd5b61040584828501610285565b602083015250604061041984828501610439565b604083015250606061042d84828501610439565b60608301525092915050565b60008135905061044881610876565b92915050565b60006020828403121561046057600080fd5b600061046e84828501610270565b91505092915050565b60006020828403121561048957600080fd5b600082013567ffffffffffffffff8111156104a357600080fd5b6104af848285016102d9565b91505092915050565b6000602082840312156104ca57600080fd5b600082013567ffffffffffffffff8111156104e457600080fd5b6104f084828501610395565b91505092915050565b60008060006060848603121561050e57600080fd5b600061051c86828701610439565b935050602084013567ffffffffffffffff81111561053957600080fd5b61054586828701610395565b925050604084013567ffffffffffffffff81111561056257600080fd5b61056e868287016102d9565b9150509250925092565b6000610583826107a2565b61058d81856107ad565b935061059d81856020860161081b565b6105a68161084e565b840191505092915050565b600060808301600083015184820360008601526105ce8282610578565b91505060208301516105e360208601826106f6565b50604083015184820360408601526105fb8282610622565b915050606083015184820360608601526106158282610622565b9150508091505092915050565b6000608083016000830151848203600086015261063f8282610578565b915050602083015184820360208601526106598282610578565b915050604083015161066e60408601826106f6565b50606083015161068160608601826106f6565b508091505092915050565b600060808301600083015184820360008601526106a98282610578565b915050602083015184820360208601526106c38282610578565b91505060408301516106d860408601826106f6565b5060608301516106eb60608601826106f6565b508091505092915050565b6106ff81610802565b82525050565b6000602082019050818103600083015261071f81846105b1565b905092915050565b60006020820190508181036000830152610741818461068c565b905092915050565b6000604051905081810181811067ffffffffffffffff8211171561076c57600080fd5b8060405250919050565b600067ffffffffffffffff82111561078d57600080fd5b601f19601f8301169050602081019050919050565b600081519050919050565b600082825260208201905092915050565b60006107c9826107e2565b9050919050565b60006107db826107be565b9050919050565b600073ffffffffffffffffffffffffffffffffffffffff82169050919050565b6000819050919050565b82818337600083830152505050565b60005b8381101561083957808201518184015260208101905061081e565b83811115610848576000848401525b50505050565b6000601f19601f8301169050919050565b610868816107d0565b811461087357600080fd5b50565b61087f81610802565b811461088a57600080fd5b5056fea2646970667358221220194c5ed307e7b318dbbee02b10ae34a5a519fc1372c50af0244b15cc3849b7f164736f6c634300060c00336a736f6e28687474703a2f2f776565726c6976652e6e6c2f6170692f6a736f6e2d646174612d31306d696e2e7068703f6b65793d65393531366436633061266c6f63617469653d44656e48616167292e6c697665776565725b305d2e74656d70a2646970667358221220faae5460b05783c6543619151de3c2c168f029c2d5af7d509d10900b33dbab6a64736f6c634300060c0033",
  "immutableReferences": {},
  "source": "/// Based on https://solidity.readthedocs.io/en/develop/natspec-format.html\n\npragma solidity ^0.6.0;\npragma experimental ABIEncoderV2;\n\nimport \"./Heroes.sol\";\nimport \"./ProvableAPI.sol\";\nimport \"../../node_modules/@openzeppelin/upgrades-core/contracts/Initializable.sol\";\nimport \"../../node_modules/@openzeppelin/contracts/access/AccessControl.sol\";\nimport \"../../node_modules/@openzeppelin/contracts/access/Ownable.sol\";\n\n//\"SPDX-License-Identifier: UNLICENSED\"\n\n/// @title A arena for a 1 on 1 battle\n/// @author Jeffrey Lo-A-Foe\n/// @notice You can use this contract for a simple one on one battle \n/// @dev All function calls are currently implemented without side effects\ncontract HeroesMatch is usingProvable, Initializable, AccessControl, Ownable{\n\n    Heroes public deployed;\n    string  public temp;\n    uint256 public priceOfUrl;\n    string public season;\n\n    bytes32 public constant CHAMPION_ROLE = keccak256(\"CHAMPION\");\n    bytes32 public constant LOSER_ROLE = keccak256(\"LOSER\");\n\n    modifier minAmount(uint _amount){ require(msg.value >= _amount, \"MORE STAKE NEEDED\"); _;}\n\n    struct Match {\n        Heroes.HeroesClass challenger;\n        Heroes.HeroesClass opponent;\n    }\n\n    event RoundWinner(Heroes.HeroesClass challenger, Heroes.HeroesClass opponent, bool result) ;\n    event ReceivedItem(address player, uint item);\n\n    mapping(address => Match) public ownerToMatch;\n\n    constructor() public Ownable() payable{}\n\n    function __callback(bytes32 /* myid prevent warning*/ , string memory result ) override public {\n        if (msg.sender != provable_cbAddress()) revert();\n        temp = result;\n    }\n\n    function initialize(string memory _season) public initializer {\n        season = _season;\n    }\n\n    function setSeason(string memory _season) public {\n        season = _season;\n    }\n\n    function destroyHero() public onlyOwner{\n        deployed.destroy();\n        deployed = Heroes(address(0));\n    }\n\n    function deployHero() public onlyOwner returns (Heroes) {\n        deployed = new Heroes{salt: 0x00}();\n        return deployed;\n    }\n\n    /// @notice Weather for some fight variation\n    /// @dev extend\n    function getTemp() public payable minAmount(0.02 ether){\n        priceOfUrl = provable_getPrice(\"URL\");\n        require (address(this).balance >= priceOfUrl,\n                \"please add some ETH to cover for the query fee\");\n        provable_query(\"URL\",\n                \"json(http://weerlive.nl/api/json-data-10min.php?key=e9516d6c0a&locatie=DenHaag).liveweer[0].temp\");\n    }\n\n    function getReward(uint item) public{\n        emit ReceivedItem(msg.sender, item);\n    }\n\n    /// @notice set the fighting arena and say who battles who\n    /// @dev extend\n    /// @param _opponent contains of name skill damage\n    /// @param _challenger contains of name skill damage\n    /// @return _challenger give back what character is made\n    //Set the fight arena\n    function initFight(Heroes.HeroesClass memory _challenger, Heroes.HeroesClass memory _opponent) public returns (Heroes.HeroesClass memory) {\n        ownerToMatch[msg.sender] = Match(_challenger,_opponent);\n        return _challenger;\n    }\n\n    /// @notice calculate the winning state\n    /// @dev extend\n    /// @param randomNumberChallenger The numbers are random generated from the dApp\n    /// @param randomNumberOpponent The numbers are random generated from the dApp\n    /// @return did challenger win and how much dmg is done\n    //Start the fight and determine damage.\n    function beginFight(uint randomNumberChallenger, uint randomNumberOpponent) public returns (bool, uint){\n        //No challenger or opponent\n        require(keccak256(abi.encodePacked(ownerToMatch[msg.sender].challenger.name)) != keccak256(abi.encodePacked(\"\")), \"No challenger\");\n        require(keccak256(abi.encodePacked(ownerToMatch[msg.sender].opponent.name)) != keccak256(abi.encodePacked(\"\")), \"No opponent\");\n\n        bool winner = didChallengerWin(randomNumberChallenger, randomNumberOpponent);\n\n        //Give result and the amount of damage\n        if(winner) {\n            return (true, ownerToMatch[msg.sender].challenger.skill_1.min_skill_damage);\n        }\n        else {\n            return (false, ownerToMatch[msg.sender].opponent.skill_2.min_skill_damage);\n        }\n    }\n    /// @notice announce the winner in the event log\n    /// @dev extend\n    /// @param randomNumberChallenger The numbers are random generated from the dApp\n    /// @param randomNumberOpponent The numbers are random generated from the dApp\n    /// @return did challenger win\n    //Determine who wins the fight\n    function didChallengerWin(uint randomNumberChallenger, uint randomNumberOpponent) public returns(bool) {\n        if(randomNumberChallenger > randomNumberOpponent) {\n            emit RoundWinner(ownerToMatch[msg.sender].challenger, ownerToMatch[msg.sender].opponent, true);\n            _setupRole(CHAMPION_ROLE, msg.sender);\n            return true;\n        }\n        else {\n            emit RoundWinner(ownerToMatch[msg.sender].challenger, ownerToMatch[msg.sender].opponent, false);\n            _setupRole(LOSER_ROLE, msg.sender);\n            return false;\n        }\n    }\n\n    function showYourPresence() public view returns (string memory) {\n        require(hasRole(CHAMPION_ROLE,msg.sender), \"You're not the champion and cannot intimidate the arena\");\n        return \"BOW TO YOUR CHAMPION HOEHA!\";\n    }\n\n}",
  "sourcePath": "/home/jeffrey/token/inleveren/BC3_Jeffrey/PD-12/ChainsGathering/dapp/contracts/Match.sol",
  "compiler": {
    "name": "solc",
    "version": "0.6.12+commit.27d51765.Emscripten.clang"
  },
  "schemaVersion": "3.3.2",
  "updatedAt": "2021-01-19T01:46:24.145Z",
  "devdoc": {
    "author": "Jeffrey Lo-A-Foe",
    "details": "All function calls are currently implemented without side effects",
    "kind": "dev",
    "methods": {
      "beginFight(uint256,uint256)": {
        "details": "extend",
        "params": {
          "randomNumberChallenger": "The numbers are random generated from the dApp",
          "randomNumberOpponent": "The numbers are random generated from the dApp"
        },
        "returns": {
          "_0": "did challenger win and how much dmg is done"
        }
      },
      "didChallengerWin(uint256,uint256)": {
        "details": "extend",
        "params": {
          "randomNumberChallenger": "The numbers are random generated from the dApp",
          "randomNumberOpponent": "The numbers are random generated from the dApp"
        },
        "returns": {
          "_0": "did challenger win"
        }
      },
      "getRoleAdmin(bytes32)": {
        "details": "Returns the admin role that controls `role`. See {grantRole} and {revokeRole}. To change a role's admin, use {_setRoleAdmin}."
      },
      "getRoleMember(bytes32,uint256)": {
        "details": "Returns one of the accounts that have `role`. `index` must be a value between 0 and {getRoleMemberCount}, non-inclusive. Role bearers are not sorted in any particular way, and their ordering may change at any point. WARNING: When using {getRoleMember} and {getRoleMemberCount}, make sure you perform all queries on the same block. See the following https://forum.openzeppelin.com/t/iterating-over-elements-on-enumerableset-in-openzeppelin-contracts/2296[forum post] for more information."
      },
      "getRoleMemberCount(bytes32)": {
        "details": "Returns the number of accounts that have `role`. Can be used together with {getRoleMember} to enumerate all bearers of a role."
      },
      "getTemp()": {
        "details": "extend"
      },
      "grantRole(bytes32,address)": {
        "details": "Grants `role` to `account`. If `account` had not been already granted `role`, emits a {RoleGranted} event. Requirements: - the caller must have ``role``'s admin role."
      },
      "hasRole(bytes32,address)": {
        "details": "Returns `true` if `account` has been granted `role`."
      },
      "initFight((string,uint256,(string,string,uint256,uint256),(string,string,uint256,uint256)),(string,uint256,(string,string,uint256,uint256),(string,string,uint256,uint256)))": {
        "details": "extend",
        "params": {
          "_challenger": "contains of name skill damage",
          "_opponent": "contains of name skill damage"
        },
        "returns": {
          "_0": "_challenger give back what character is made"
        }
      },
      "owner()": {
        "details": "Returns the address of the current owner."
      },
      "renounceOwnership()": {
        "details": "Leaves the contract without owner. It will not be possible to call `onlyOwner` functions anymore. Can only be called by the current owner. NOTE: Renouncing ownership will leave the contract without an owner, thereby removing any functionality that is only available to the owner."
      },
      "renounceRole(bytes32,address)": {
        "details": "Revokes `role` from the calling account. Roles are often managed via {grantRole} and {revokeRole}: this function's purpose is to provide a mechanism for accounts to lose their privileges if they are compromised (such as when a trusted device is misplaced). If the calling account had been granted `role`, emits a {RoleRevoked} event. Requirements: - the caller must be `account`."
      },
      "revokeRole(bytes32,address)": {
        "details": "Revokes `role` from `account`. If `account` had been granted `role`, emits a {RoleRevoked} event. Requirements: - the caller must have ``role``'s admin role."
      },
      "transferOwnership(address)": {
        "details": "Transfers ownership of the contract to a new account (`newOwner`). Can only be called by the current owner."
      }
    },
    "title": "A arena for a 1 on 1 battle",
    "version": 1
  },
  "userdoc": {
    "kind": "user",
    "methods": {
      "beginFight(uint256,uint256)": {
        "notice": "calculate the winning state"
      },
      "didChallengerWin(uint256,uint256)": {
        "notice": "announce the winner in the event log"
      },
      "getTemp()": {
        "notice": "Weather for some fight variation"
      },
      "initFight((string,uint256,(string,string,uint256,uint256),(string,string,uint256,uint256)),(string,uint256,(string,string,uint256,uint256),(string,string,uint256,uint256)))": {
        "notice": "set the fighting arena and say who battles who"
      }
    },
    "notice": "You can use this contract for a simple one on one battle ",
    "version": 1
  }
}