{
  "contractName": "Heroes",
  "abi": [
    {
      "inputs": [],
      "stateMutability": "nonpayable",
      "type": "constructor"
    },
    {
      "inputs": [],
      "name": "destroy",
      "outputs": [],
      "stateMutability": "nonpayable",
      "type": "function"
    },
    {
      "inputs": [
        {
          "components": [
            {
              "internalType": "string",
              "name": "skill_name",
              "type": "string"
            },
            {
              "internalType": "string",
              "name": "description",
              "type": "string"
            },
            {
              "internalType": "uint256",
              "name": "min_skill_damage",
              "type": "uint256"
            },
            {
              "internalType": "uint256",
              "name": "max_skill_damage",
              "type": "uint256"
            }
          ],
          "internalType": "struct Skill.SkillClass",
          "name": "skill",
          "type": "tuple"
        }
      ],
      "name": "increaseSkillDamage",
      "outputs": [
        {
          "components": [
            {
              "internalType": "string",
              "name": "skill_name",
              "type": "string"
            },
            {
              "internalType": "string",
              "name": "description",
              "type": "string"
            },
            {
              "internalType": "uint256",
              "name": "min_skill_damage",
              "type": "uint256"
            },
            {
              "internalType": "uint256",
              "name": "max_skill_damage",
              "type": "uint256"
            }
          ],
          "internalType": "struct Skill.SkillClass",
          "name": "",
          "type": "tuple"
        }
      ],
      "stateMutability": "nonpayable",
      "type": "function"
    },
    {
      "inputs": [
        {
          "components": [
            {
              "internalType": "string",
              "name": "name",
              "type": "string"
            },
            {
              "internalType": "uint256",
              "name": "rarity",
              "type": "uint256"
            },
            {
              "components": [
                {
                  "internalType": "string",
                  "name": "skill_name",
                  "type": "string"
                },
                {
                  "internalType": "string",
                  "name": "description",
                  "type": "string"
                },
                {
                  "internalType": "uint256",
                  "name": "min_skill_damage",
                  "type": "uint256"
                },
                {
                  "internalType": "uint256",
                  "name": "max_skill_damage",
                  "type": "uint256"
                }
              ],
              "internalType": "struct Skill.SkillClass",
              "name": "skill_1",
              "type": "tuple"
            },
            {
              "components": [
                {
                  "internalType": "string",
                  "name": "skill_name",
                  "type": "string"
                },
                {
                  "internalType": "string",
                  "name": "description",
                  "type": "string"
                },
                {
                  "internalType": "uint256",
                  "name": "min_skill_damage",
                  "type": "uint256"
                },
                {
                  "internalType": "uint256",
                  "name": "max_skill_damage",
                  "type": "uint256"
                }
              ],
              "internalType": "struct Skill.SkillClass",
              "name": "skill_2",
              "type": "tuple"
            }
          ],
          "internalType": "struct Heroes.HeroesClass",
          "name": "hero",
          "type": "tuple"
        }
      ],
      "name": "increaseRarity",
      "outputs": [
        {
          "components": [
            {
              "internalType": "string",
              "name": "name",
              "type": "string"
            },
            {
              "internalType": "uint256",
              "name": "rarity",
              "type": "uint256"
            },
            {
              "components": [
                {
                  "internalType": "string",
                  "name": "skill_name",
                  "type": "string"
                },
                {
                  "internalType": "string",
                  "name": "description",
                  "type": "string"
                },
                {
                  "internalType": "uint256",
                  "name": "min_skill_damage",
                  "type": "uint256"
                },
                {
                  "internalType": "uint256",
                  "name": "max_skill_damage",
                  "type": "uint256"
                }
              ],
              "internalType": "struct Skill.SkillClass",
              "name": "skill_1",
              "type": "tuple"
            },
            {
              "components": [
                {
                  "internalType": "string",
                  "name": "skill_name",
                  "type": "string"
                },
                {
                  "internalType": "string",
                  "name": "description",
                  "type": "string"
                },
                {
                  "internalType": "uint256",
                  "name": "min_skill_damage",
                  "type": "uint256"
                },
                {
                  "internalType": "uint256",
                  "name": "max_skill_damage",
                  "type": "uint256"
                }
              ],
              "internalType": "struct Skill.SkillClass",
              "name": "skill_2",
              "type": "tuple"
            }
          ],
          "internalType": "struct Heroes.HeroesClass",
          "name": "",
          "type": "tuple"
        }
      ],
      "stateMutability": "pure",
      "type": "function"
    },
    {
      "inputs": [
        {
          "internalType": "uint256",
          "name": "number",
          "type": "uint256"
        },
        {
          "components": [
            {
              "internalType": "string",
              "name": "skill_name",
              "type": "string"
            },
            {
              "internalType": "string",
              "name": "description",
              "type": "string"
            },
            {
              "internalType": "uint256",
              "name": "min_skill_damage",
              "type": "uint256"
            },
            {
              "internalType": "uint256",
              "name": "max_skill_damage",
              "type": "uint256"
            }
          ],
          "internalType": "struct Skill.SkillClass",
          "name": "skill",
          "type": "tuple"
        },
        {
          "components": [
            {
              "internalType": "string",
              "name": "name",
              "type": "string"
            },
            {
              "internalType": "uint256",
              "name": "rarity",
              "type": "uint256"
            },
            {
              "components": [
                {
                  "internalType": "string",
                  "name": "skill_name",
                  "type": "string"
                },
                {
                  "internalType": "string",
                  "name": "description",
                  "type": "string"
                },
                {
                  "internalType": "uint256",
                  "name": "min_skill_damage",
                  "type": "uint256"
                },
                {
                  "internalType": "uint256",
                  "name": "max_skill_damage",
                  "type": "uint256"
                }
              ],
              "internalType": "struct Skill.SkillClass",
              "name": "skill_1",
              "type": "tuple"
            },
            {
              "components": [
                {
                  "internalType": "string",
                  "name": "skill_name",
                  "type": "string"
                },
                {
                  "internalType": "string",
                  "name": "description",
                  "type": "string"
                },
                {
                  "internalType": "uint256",
                  "name": "min_skill_damage",
                  "type": "uint256"
                },
                {
                  "internalType": "uint256",
                  "name": "max_skill_damage",
                  "type": "uint256"
                }
              ],
              "internalType": "struct Skill.SkillClass",
              "name": "skill_2",
              "type": "tuple"
            }
          ],
          "internalType": "struct Heroes.HeroesClass",
          "name": "hero",
          "type": "tuple"
        }
      ],
      "name": "changeSkill",
      "outputs": [
        {
          "components": [
            {
              "internalType": "string",
              "name": "name",
              "type": "string"
            },
            {
              "internalType": "uint256",
              "name": "rarity",
              "type": "uint256"
            },
            {
              "components": [
                {
                  "internalType": "string",
                  "name": "skill_name",
                  "type": "string"
                },
                {
                  "internalType": "string",
                  "name": "description",
                  "type": "string"
                },
                {
                  "internalType": "uint256",
                  "name": "min_skill_damage",
                  "type": "uint256"
                },
                {
                  "internalType": "uint256",
                  "name": "max_skill_damage",
                  "type": "uint256"
                }
              ],
              "internalType": "struct Skill.SkillClass",
              "name": "skill_1",
              "type": "tuple"
            },
            {
              "components": [
                {
                  "internalType": "string",
                  "name": "skill_name",
                  "type": "string"
                },
                {
                  "internalType": "string",
                  "name": "description",
                  "type": "string"
                },
                {
                  "internalType": "uint256",
                  "name": "min_skill_damage",
                  "type": "uint256"
                },
                {
                  "internalType": "uint256",
                  "name": "max_skill_damage",
                  "type": "uint256"
                }
              ],
              "internalType": "struct Skill.SkillClass",
              "name": "skill_2",
              "type": "tuple"
            }
          ],
          "internalType": "struct Heroes.HeroesClass",
          "name": "",
          "type": "tuple"
        }
      ],
      "stateMutability": "pure",
      "type": "function"
    },
    {
      "inputs": [
        {
          "internalType": "contract Skill",
          "name": "SC",
          "type": "address"
        }
      ],
      "name": "destroySkill",
      "outputs": [],
      "stateMutability": "nonpayable",
      "type": "function"
    }
  ],
  "bytecode": "0x608060405234801561001057600080fd5b506108c3806100206000396000f3fe608060405234801561001057600080fd5b50600436106100575760003560e01c80630f1ff7c71461005c578063349b95911461008c57806383197ef0146100bc578063882c2a43146100c6578063a26085f8146100f6575b600080fd5b61007660048036038101906100719190610477565b610112565b6040516100839190610705565b60405180910390f35b6100a660048036038101906100a191906104b8565b610133565b6040516100b39190610727565b60405180910390f35b6100c4610165565b005b6100e060048036038101906100db91906104f9565b61017e565b6040516100ed9190610705565b60405180910390f35b610110600480360381019061010b919061044e565b6101b1565b005b61011a610214565b6001826020018181510191508181525050819050919050565b61013b610248565b600a826040018181510191508181525050600a826060018181510191508181525050819050919050565b3373ffffffffffffffffffffffffffffffffffffffff16ff5b610186610214565b600184111561019d578282606001819052506101a7565b8282604001819052505b8190509392505050565b8073ffffffffffffffffffffffffffffffffffffffff166383197ef06040518163ffffffff1660e01b8152600401600060405180830381600087803b1580156101f957600080fd5b505af115801561020d573d6000803e3d6000fd5b5050505050565b60405180608001604052806060815260200160008152602001610235610248565b8152602001610242610248565b81525090565b6040518060800160405280606081526020016060815260200160008152602001600081525090565b60008135905061027f8161085f565b92915050565b600082601f83011261029657600080fd5b81356102a96102a482610776565b610749565b915080825260208301602083018583830111156102c557600080fd5b6102d083828461080c565b50505092915050565b6000608082840312156102eb57600080fd5b6102f56080610749565b9050600082013567ffffffffffffffff81111561031157600080fd5b61031d84828501610285565b600083015250602061033184828501610439565b602083015250604082013567ffffffffffffffff81111561035157600080fd5b61035d84828501610395565b604083015250606082013567ffffffffffffffff81111561037d57600080fd5b61038984828501610395565b60608301525092915050565b6000608082840312156103a757600080fd5b6103b16080610749565b9050600082013567ffffffffffffffff8111156103cd57600080fd5b6103d984828501610285565b600083015250602082013567ffffffffffffffff8111156103f957600080fd5b61040584828501610285565b602083015250604061041984828501610439565b604083015250606061042d84828501610439565b60608301525092915050565b60008135905061044881610876565b92915050565b60006020828403121561046057600080fd5b600061046e84828501610270565b91505092915050565b60006020828403121561048957600080fd5b600082013567ffffffffffffffff8111156104a357600080fd5b6104af848285016102d9565b91505092915050565b6000602082840312156104ca57600080fd5b600082013567ffffffffffffffff8111156104e457600080fd5b6104f084828501610395565b91505092915050565b60008060006060848603121561050e57600080fd5b600061051c86828701610439565b935050602084013567ffffffffffffffff81111561053957600080fd5b61054586828701610395565b925050604084013567ffffffffffffffff81111561056257600080fd5b61056e868287016102d9565b9150509250925092565b6000610583826107a2565b61058d81856107ad565b935061059d81856020860161081b565b6105a68161084e565b840191505092915050565b600060808301600083015184820360008601526105ce8282610578565b91505060208301516105e360208601826106f6565b50604083015184820360408601526105fb8282610622565b915050606083015184820360608601526106158282610622565b9150508091505092915050565b6000608083016000830151848203600086015261063f8282610578565b915050602083015184820360208601526106598282610578565b915050604083015161066e60408601826106f6565b50606083015161068160608601826106f6565b508091505092915050565b600060808301600083015184820360008601526106a98282610578565b915050602083015184820360208601526106c38282610578565b91505060408301516106d860408601826106f6565b5060608301516106eb60608601826106f6565b508091505092915050565b6106ff81610802565b82525050565b6000602082019050818103600083015261071f81846105b1565b905092915050565b60006020820190508181036000830152610741818461068c565b905092915050565b6000604051905081810181811067ffffffffffffffff8211171561076c57600080fd5b8060405250919050565b600067ffffffffffffffff82111561078d57600080fd5b601f19601f8301169050602081019050919050565b600081519050919050565b600082825260208201905092915050565b60006107c9826107e2565b9050919050565b60006107db826107be565b9050919050565b600073ffffffffffffffffffffffffffffffffffffffff82169050919050565b6000819050919050565b82818337600083830152505050565b60005b8381101561083957808201518184015260208101905061081e565b83811115610848576000848401525b50505050565b6000601f19601f8301169050919050565b610868816107d0565b811461087357600080fd5b50565b61087f81610802565b811461088a57600080fd5b5056fea2646970667358221220194c5ed307e7b318dbbee02b10ae34a5a519fc1372c50af0244b15cc3849b7f164736f6c634300060c0033",
  "immutableReferences": {},
  "source": "pragma solidity ^0.6.0;\npragma experimental ABIEncoderV2;\n\nimport \"./Skill.sol\";\n\n//\"SPDX-License-Identifier: UNLICENSED\"\ncontract Heroes is Skill{\n\n    struct HeroesClass {\n        string name;\n        uint rarity;\n        SkillClass skill_1;\n        SkillClass skill_2;\n    }\n\n    function increaseRarity(HeroesClass memory hero) public pure returns (HeroesClass memory) {\n        hero.rarity += 1;\n        return hero;\n    }\n\n    function changeSkill(uint number, SkillClass memory skill, HeroesClass memory hero) public pure returns (HeroesClass memory) {\n        if(number > 1){\n            hero.skill_2 = skill;\n        }\n        else{\n            hero.skill_1 = skill;\n        }\n        return hero;\n    }\n\n    function destroySkill(Skill SC) public{\n        SC.destroy();\n    }\n\n    constructor() public {}\n\n}",
  "sourcePath": "/home/jeffrey/token/inleveren/BC3_Jeffrey/PD-12/ChainsGathering/dapp/contracts/Heroes.sol",
  "compiler": {
    "name": "solc",
    "version": "0.6.12+commit.27d51765.Emscripten.clang"
  },
  "schemaVersion": "3.3.2",
  "updatedAt": "2021-01-19T01:46:24.121Z",
  "devdoc": {
    "kind": "dev",
    "methods": {},
    "version": 1
  },
  "userdoc": {
    "kind": "user",
    "methods": {},
    "version": 1
  }
}