{
  "contractName": "Migrations",
  "abi": [
    {
      "inputs": [],
      "stateMutability": "nonpayable",
      "type": "constructor"
    },
    {
      "inputs": [],
      "name": "kill",
      "outputs": [],
      "stateMutability": "nonpayable",
      "type": "function"
    },
    {
      "inputs": [],
      "name": "last_completed_migration",
      "outputs": [
        {
          "internalType": "uint256",
          "name": "",
          "type": "uint256"
        }
      ],
      "stateMutability": "view",
      "type": "function"
    },
    {
      "inputs": [],
      "name": "owneds",
      "outputs": [],
      "stateMutability": "nonpayable",
      "type": "function"
    },
    {
      "inputs": [],
      "name": "owners",
      "outputs": [
        {
          "internalType": "address payable",
          "name": "",
          "type": "address"
        }
      ],
      "stateMutability": "view",
      "type": "function"
    },
    {
      "inputs": [
        {
          "internalType": "uint256",
          "name": "completed",
          "type": "uint256"
        }
      ],
      "name": "setCompleted",
      "outputs": [],
      "stateMutability": "nonpayable",
      "type": "function"
    },
    {
      "inputs": [
        {
          "internalType": "address",
          "name": "new_address",
          "type": "address"
        }
      ],
      "name": "upgrade",
      "outputs": [],
      "stateMutability": "nonpayable",
      "type": "function"
    }
  ],
  "bytecode": "0x608060405234801561001057600080fd5b50336000806101000a81548173ffffffffffffffffffffffffffffffffffffffff021916908373ffffffffffffffffffffffffffffffffffffffff1602179055506103a7806100606000396000f3fe608060405234801561001057600080fd5b50600436106100625760003560e01c80630900f0101461006757806341c0e1b5146100ab578063445df0ac146100b55780635c516198146100d3578063affe39c1146100dd578063fdacd57614610111575b600080fd5b6100a96004803603602081101561007d57600080fd5b81019080803573ffffffffffffffffffffffffffffffffffffffff16906020019092919050505061013f565b005b6100b361020c565b005b6100bd6102a2565b6040518082815260200191505060405180910390f35b6100db6102a8565b005b6100e56102ea565b604051808273ffffffffffffffffffffffffffffffffffffffff16815260200191505060405180910390f35b61013d6004803603602081101561012757600080fd5b8101908080359060200190929190505050610310565b005b600160009054906101000a900473ffffffffffffffffffffffffffffffffffffffff1673ffffffffffffffffffffffffffffffffffffffff163373ffffffffffffffffffffffffffffffffffffffff1614156102095760008190508073ffffffffffffffffffffffffffffffffffffffff1663fdacd5766002546040518263ffffffff1660e01b815260040180828152602001915050600060405180830381600087803b1580156101ef57600080fd5b505af1158015610203573d6000803e3d6000fd5b50505050505b50565b60008060009054906101000a900473ffffffffffffffffffffffffffffffffffffffff16905060008054906101000a900473ffffffffffffffffffffffffffffffffffffffff1673ffffffffffffffffffffffffffffffffffffffff163373ffffffffffffffffffffffffffffffffffffffff16141561029f578073ffffffffffffffffffffffffffffffffffffffff16ff5b50565b60025481565b336000806101000a81548173ffffffffffffffffffffffffffffffffffffffff021916908373ffffffffffffffffffffffffffffffffffffffff160217905550565b600160009054906101000a900473ffffffffffffffffffffffffffffffffffffffff1681565b600160009054906101000a900473ffffffffffffffffffffffffffffffffffffffff1673ffffffffffffffffffffffffffffffffffffffff163373ffffffffffffffffffffffffffffffffffffffff16141561036e57806002819055505b5056fea26469706673582212206bffaf3e9b450c312c78c1258f5dafe77f063195af803321658aaad098d193e164736f6c634300060c0033",
  "immutableReferences": {},
  "source": "pragma solidity >=0.4.21 < 0.7.0;\n\nimport \"../lib/mortal.sol\";\n\n//\"SPDX-License-Identifier: UNLICENSED\"\ncontract Migrations is mortal {\n  address payable public owners;\n  uint public last_completed_migration;\n\n  modifier restricted() {\n    if (msg.sender == owners) _;\n  }\n\n  constructor() public {\n    owner = msg.sender;\n  }\n\n  function setCompleted(uint completed) public restricted {\n    last_completed_migration = completed;\n  }\n\n  function upgrade(address new_address) public restricted {\n    Migrations upgraded = Migrations(new_address);\n    upgraded.setCompleted(last_completed_migration);\n  }\n}",
  "sourcePath": "/home/jeffrey/token/inleveren/BC3_Jeffrey/PD-12/ChainsGathering/dapp/contracts/Migrations.sol",
  "compiler": {
    "name": "solc",
    "version": "0.6.12+commit.27d51765.Emscripten.clang"
  },
  "schemaVersion": "3.3.2",
  "updatedAt": "2021-01-19T01:47:32.507Z",
  "devdoc": {
    "kind": "dev",
    "methods": {},
    "version": 1
  },
  "userdoc": {
    "kind": "user",
    "methods": {},
    "version": 1
  }
}