{
  "contractName": "Skill",
  "abi": [
    {
      "inputs": [],
      "stateMutability": "nonpayable",
      "type": "constructor"
    },
    {
      "inputs": [
        {
          "components": [
            {
              "internalType": "string",
              "name": "skill_name",
              "type": "string"
            },
            {
              "internalType": "string",
              "name": "description",
              "type": "string"
            },
            {
              "internalType": "uint256",
              "name": "min_skill_damage",
              "type": "uint256"
            },
            {
              "internalType": "uint256",
              "name": "max_skill_damage",
              "type": "uint256"
            }
          ],
          "internalType": "struct Skill.SkillClass",
          "name": "skill",
          "type": "tuple"
        }
      ],
      "name": "increaseSkillDamage",
      "outputs": [
        {
          "components": [
            {
              "internalType": "string",
              "name": "skill_name",
              "type": "string"
            },
            {
              "internalType": "string",
              "name": "description",
              "type": "string"
            },
            {
              "internalType": "uint256",
              "name": "min_skill_damage",
              "type": "uint256"
            },
            {
              "internalType": "uint256",
              "name": "max_skill_damage",
              "type": "uint256"
            }
          ],
          "internalType": "struct Skill.SkillClass",
          "name": "",
          "type": "tuple"
        }
      ],
      "stateMutability": "nonpayable",
      "type": "function"
    }
  ],
  "bytecode": "0x608060405234801561001057600080fd5b506103fb806100206000396000f3fe608060405234801561001057600080fd5b506004361061002b5760003560e01c8063349b959114610030575b600080fd5b61004a600480360381019061004591906101c7565b610060565b60405161005791906102ba565b60405180910390f35b610068610092565b600a826040018181510191508181525050600a826060018181510191508181525050819050919050565b6040518060800160405280606081526020016060815260200160008152602001600081525090565b600082601f8301126100cb57600080fd5b81356100de6100d982610309565b6102dc565b915080825260208301602083018583830111156100fa57600080fd5b61010583828461035b565b50505092915050565b60006080828403121561012057600080fd5b61012a60806102dc565b9050600082013567ffffffffffffffff81111561014657600080fd5b610152848285016100ba565b600083015250602082013567ffffffffffffffff81111561017257600080fd5b61017e848285016100ba565b6020830152506040610192848285016101b2565b60408301525060606101a6848285016101b2565b60608301525092915050565b6000813590506101c1816103ae565b92915050565b6000602082840312156101d957600080fd5b600082013567ffffffffffffffff8111156101f357600080fd5b6101ff8482850161010e565b91505092915050565b600061021382610335565b61021d8185610340565b935061022d81856020860161036a565b6102368161039d565b840191505092915050565b6000608083016000830151848203600086015261025e8282610208565b915050602083015184820360208601526102788282610208565b915050604083015161028d60408601826102ab565b5060608301516102a060608601826102ab565b508091505092915050565b6102b481610351565b82525050565b600060208201905081810360008301526102d48184610241565b905092915050565b6000604051905081810181811067ffffffffffffffff821117156102ff57600080fd5b8060405250919050565b600067ffffffffffffffff82111561032057600080fd5b601f19601f8301169050602081019050919050565b600081519050919050565b600082825260208201905092915050565b6000819050919050565b82818337600083830152505050565b60005b8381101561038857808201518184015260208101905061036d565b83811115610397576000848401525b50505050565b6000601f19601f8301169050919050565b6103b781610351565b81146103c257600080fd5b5056fea2646970667358221220099d4b226627f8c7b5f53a6dcee5b5d4aee6c6f82213c6d73f53cb64425eb25164736f6c634300060c0033",
  "immutableReferences": {},
  "source": "pragma solidity ^0.6.0;\npragma experimental ABIEncoderV2;\n\ncontract Skill {\n\n    struct SkillClass {\n        string skill_name;\n        string description;\n        uint min_skill_damage;\n        uint max_skill_damage;\n    }\n\n    function increaseSkillDamage(SkillClass memory skill) public returns(SkillClass memory) {\n        skill.min_skill_damage += 10;\n        skill.max_skill_damage += 10;\n        return skill;\n    }\n\n    constructor() public {}\n\n}",
  "sourcePath": "/home/jeffrey/token/ChainsGathering/dapp/contracts/Skill.sol",
  "compiler": {
    "name": "solc",
    "version": "0.6.12+commit.27d51765.Emscripten.clang"
  },
  "schemaVersion": "3.3.2",
  "updatedAt": "2020-12-01T14:41:39.653Z",
  "devdoc": {
    "kind": "dev",
    "methods": {},
    "version": 1
  },
  "userdoc": {
    "kind": "user",
    "methods": {},
    "version": 1
  }
}